:100000000C94F0000C94C6020C94ED020C941403B2
:100010000C9477030C94DA030C9418010C94DF32DF
:100020000C9418010C9418010C9418010C94BD0F39
:100030000C9418010C9418010C9418010C941801DC
:100040000C94572A0C9418010C94BC2D0C94EE2D92
:100050000C9418010C9418010C9418010C941801BC
:100060000C9418010C941801E80AED0AF40A030B29
:100070000A0B190B2A0B360B4A0B5B0B670B7B0B1E
:10008000880B940BA80BB90BC00BCD0BD40BE10B59
:10009000F20BB50EB80EBB0EBE0EC10EC40EC70ECF
:1000A000CA0ECD0ED00ED30ED60ED90E0D0F100FD8
:1000B000130F160F190F1C0F1F0F220F250F280FDC
:1000C0002B0F2E0F310F340F370F3A0F3D0F400F0C
:1000D000430F7A1FA11FCB1F04201D2036205C2058
:1000E0009020C9200221362163218D21BE21EE21DD
:1000F00007225922722290228223AA23E523772401
:100100002425A125B625D9258B267B237423F62803
:10011000BC2905A84CCDB2D44EB93836A9020C5032
:10012000B9918688083CA6AAAA2ABE000000803F92
:10013000252500460026260025250041002626000C
:1001400025250049200026260025250042200026DE
:1001500026002525004E20002626002525004420C7
:100160000026260025250045200026260000010245
:10017000030405060700010203040500010203044D
:100180000500000008000201000003040700000051
:100190000000000000010204081020408001020459
:1001A00008102001020408102004040404040404BC
:1001B000040202020202020303030303030000001D
:1001C0000023002600290000000000250028002B45
:1001D0000000000000240027002A0002F8051E2E5F
:1001E00011241FBECFEFD8E0DEBFCDBF13E0A0E0EB
:1001F000B1E0E0EBF4E702C005900D92AE33B10739
:10020000D9F727E0AEE3B3E001C01D92A638B207EC
:10021000E1F711E0C0EED1E004C02297FE010E9498
:100220002C38CC3DD107C9F70E94622E0C94563A67
:100230000C94000081E08093480390914903911150
:100240000BC08093490321E04FE050E060E070E094
:100250008EE493E00C948F1E089581E08093470311
:100260009091490391110BC08093490321E04FE025
:1002700050E060E070E08EE493E00C948F1E0895EF
:10028000EF92FF920F931F93CF93DF931F92CDB7FF
:10029000DEB77C01FC0100811181C80169830E94E5
:1002A000353A6981681719F0C8010E943D3AC701C3
:1002B0000F90DF91CF911F910F91FF90EF900895D4
:1002C0000F931F93CF93DF9300D0CDB7DEB78B0191
:1002D000FB0160819A838983CE0101960E944001CF
:1002E000C8010F900F90DF91CF911F910F9108954A
:1002F000A82FAF7787FD05C08EEF8A0F823008F4F4
:1003000099C0B0E0FD01EB56FE4F2491FD01E75589
:10031000FE4F8491942F9D7F9130B9F4823031F457
:1003200090919006922B909390060FC0833031F4F9
:1003300090918106922B9093810607C0843029F416
:1003400090916E06922B90936E0641504230B8F415
:10035000823031F490918F06922B90938F060FC0CC
:10036000833031F490918006922B9093800607C0E1
:10037000843029F490916D06922B90936D06FD01C7
:10038000E359FE4FA4918230C1F4B0E0AA0FBB1F25
:10039000AF56B94F6D937C93E1ECF1E0A591B49128
:1003A0008C9180938E068BE690E09093A2068093CA
:1003B000A10680916800816033C08330C1F4B0E051
:1003C000AA0FBB1FAE57B94F6D937C93E3ECF1E0DE
:1003D000A591B4918C9180937F068CE690E09093E8
:1003E000A2068093A10680916800826019C08430C3
:1003F000C9F4B0E0AA0FBB1FA159B94F6D937C930C
:10040000E5ECF1E0A591B4918C9180936C068DE6BA
:1004100090E09093A2068093A1068091680084608A
:1004200080936800A091A106B091A2068C91822BC6
:100430008C9316C09FB7F894A230B1F470939E06C7
:1004400060939D06E898809169008C7F8093690095
:1004500080916900842B80936900E09AE89A9FBF9D
:100460008FB780688FBF08957093A00660939F0632
:10047000E99880916900837F809369008091690089
:1004800024E0429FA0011124842B80936900E19A0B
:10049000E99AE5CF3FB7F894982F9F7787FD05C07D
:1004A0008EEF890F823008F45EC0892F90E0FC0146
:1004B000EB56FE4F2491FC01E755FE4F84918230AC
:1004C000D1F480916B002095822380936B00809102
:1004D0006B00811105C0809168008E7F8093680059
:1004E0008091900682238093900680918F068223CC
:1004F00080938F0641C08330D1F480916C002095A9
:10050000822380936C0080916C00811105C08091E2
:1005100068008D7F8093680080918106822380939C
:1005200081068091800682238093800625C08430D6
:1005300019F580916D002095822380936D00809144
:100540006D00811105C0809168008B7F80936800E9
:1005500080916E06822380936E0680916D068223C1
:1005600080936D0609C0923049F4E8988091690043
:100570008C7F80936900E09A3FBF0895E99880914D
:100580006900837F80936900E19AF6CF1F920F92F2
:100590000FB60F9211242F933F934F935F936F9356
:1005A0007F938F939F93AF93BF93EF93FF93E091CC
:1005B0009D06F0919E060995FF91EF91BF91AF9135
:1005C0009F918F917F916F915F914F913F912F916B
:1005D0000F900FBE0F901F9018951F920F920FB69D
:1005E0000F9211242F933F934F935F936F937F93B9
:1005F0008F939F93AF93BF93EF93FF93E0919F06E9
:10060000F091A0060995FF91EF91BF91AF919F9155
:100610008F917F916F915F914F913F912F910F90AB
:100620000FBE0F901F9018951F920F920FB60F924A
:1006300011242F933F934F935F936F937F938F93E7
:100640009F93AF93BF93CF93EF93FF9393B1C091D9
:100650008E062091900630918F06892F80958323F6
:100660002923822B20916B00C927C223C823909392
:100670008E06CC2351F1C0FF05C0E0919106F091A8
:1006800092060995C1FF05C0E0919306F09194068A
:100690000995C2FF05C0E0919506F091960609956F
:1006A000C3FF05C0E0919706F09198060995C4FF35
:1006B00005C0E0919906F0919A060995C5FF05C01D
:1006C000E0919B06F0919C060995FF91EF91CF91E7
:1006D000BF91AF919F918F917F916F915F914F915A
:1006E0003F912F910F900FBE0F901F9018951F9262
:1006F0000F920FB60F9211242F933F934F935F9356
:100700006F937F938F939F93AF93BF93CF93EF9309
:10071000FF9396B1C0917F062091810630918006AB
:10072000892F809583232923822B20916C00C92750
:10073000C223C82390937F06CC2351F1C0FF05C08C
:10074000E0918206F09183060995C1FF05C0E09112
:100750008406F09185060995C2FF05C0E0918606E2
:10076000F09187060995C3FF05C0E0918806F091D6
:1007700089060995C4FF05C0E0918A06F0918B06B1
:100780000995C5FF05C0E0918C06F0918D0609958D
:10079000FF91EF91CF91BF91AF919F918F917F91F9
:1007A0006F915F914F913F912F910F900FBE0F90DE
:1007B0001F9018951F920F920FB60F9211242F932E
:1007C0003F934F935F936F937F938F939F93AF93D9
:1007D000BF93CF93EF93FF9399B1C0916C06209193
:1007E0006E0630916D06892F809583232923822BF5
:1007F00020916D00C927C223C82390936C06CC2397
:10080000C1F1C0FF05C0E0916F06F0917006099537
:10081000C1FF05C0E0917106F09172060995C2FF13
:1008200005C0E0917306F09174060995C3FF05C0F9
:10083000E0917506F09176060995C4FF05C0E09138
:100840007706F09178060995C5FF05C0E091790615
:10085000F0917A060995C6FF05C0E0917B06F091FC
:100860007C060995C7FF05C0E0917D06F0917E06E4
:100870000995FF91EF91CF91BF91AF919F918F918A
:100880007F916F915F914F913F912F910F900FBE8C
:100890000F901F9018958EE493E00E946A1D0E94AD
:1008A000E8356F30710524F481E080933E030895AC
:1008B00010923E0308958F929F92AF92BF92CF9273
:1008C000DF92EF92FF920F931F93CF938EE493E00A
:1008D0000E94971D20E030E044E352E40E947C3502
:1008E00087FF54C0C3E08091490381114FC021E0CC
:1008F0004CE150E060E070E08EE493E00E948F1ED7
:100900001F92CF9348E0842E912CA12CB12C58EB50
:10091000C52E5EE1D52E55E8E52E5FE3F52E00E00D
:1009200010E02AEF34E440E050E06CE574E48EE43B
:1009300093E00E94C91E6EE170E080E090E00E94AA
:10094000D02A1F92CF936CE5C62E6FE8D62E62E8B0
:10095000E62E6FE3F62E00E010E02CE534E440E0F4
:1009600050E06AEF74E48EE493E00E94C91E8EE4C6
:1009700093E00E94941E64EF71E080E090E00E949A
:10098000D02A0F900F900F900F90ADCFCF911F9165
:100990000F91FF90EF90DF90CF90BF90AF909F901E
:1009A0008F9008954F925F926F927F928F929F9255
:1009B000AF92BF92CF92DF92EF92FF920F931F936D
:1009C000CF93DF93CDB7DEB728970FB6F894DEBF8D
:1009D0000FBECDBF88E0EAE0F1E0DE0111960190A4
:1009E0000D928A95E1F780914903811109C0AE010A
:1009F0004F5F5F4F6CEB72E08EE493E00E94F41463
:100A0000F4E06F2E712CAAE05A2E44244394809176
:100A100049038823A1F0809149038111C1C021E0DD
:100A200043E150E060E070E08EE493E00E948F1EAE
:100A300069E070E08EE493E00E94631FB1C020E0A3
:100A400030E041E050E060E070E08EE493E00E942E
:100A50007F1E1F925F927AE0872E912CA12CB12CE1
:100A6000E8EBCE2EEEE1DE2EE5E8EE2EEFE3FE2EF5
:100A700000E010E028E433E440E050E068EC72E489
:100A80008EE493E00E94C91E809149030F900F905D
:100A90008111C1CF21E030E041E050E060E070E042
:100AA0008EE493E00E947F1E1F925F9200E010E0B0
:100AB00026E933E440E050E068E473E48EE493E038
:100AC0000E94C91E809149030F900F908111A3CFFE
:100AD00022E030E041E050E060E070E08EE493E03E
:100AE0000E947F1E1F925F9200E010E02AEF33E425
:100AF00040E050E066E973E48EE493E00E94C91E92
:100B000064EF71E080E090E00E94D02A8091490378
:100B10000F900F9081117FCF21E030E041E050E055
:100B200060E070E08EE493E00E947F1E1F924F927F
:100B300000E010E02AE733E440E050E068EC73E4C2
:100B40008EE493E00E94C91E809149030F900F909C
:100B5000811161CF20E030E041E050E060E070E0E2
:100B60008EE493E00E947F1E1F924F9200E010E0FF
:100B700028EC32E440E050E06AE773E48EE493E06E
:100B80000E94C91E64EF71E080E090E00E94D02ACC
:100B900081E0681A71080F900F9009F038CF3BCFB1
:100BA0008EE493E00E945D1780914903811109C092
:100BB00021E04BE050E060E070E08EE493E00E94C2
:100BC0008F1E28960FB6F894DEBF0FBECDBFDF9103
:100BD000CF911F910F91FF90EF90DF90CF90BF903A
:100BE000AF909F908F907F906F905F904F900895FF
:100BF000CF93DF9383E394E00E94F0122CE04DE06A
:100C00006BE08EE493E00E94AC1285E593E00E94D5
:100C1000CE11C6E5D3E0CE010E947910188A1F8656
:100C2000A99683E0CA3FD807B1F78AEF93E0DF9136
:100C3000CF910C942912CF92DF92EF92FF920F93F3
:100C40001F93CF93DF93CDB7DEB72B970FB6F894F2
:100C5000DEBF0FBECDBF8EE493E00E945D17198208
:100C60001A821B821C82FE01359687E0DF011D92ED
:100C70008A95E9F78E010F5F1F4FB5E0EB2EF12C3F
:100C80006801C7010E94353AF80181938F01FFEF97
:100C9000EF1AFF0A80E1E816F10499F76AE671E0BD
:100CA00082ED96E00E94AF2E67E671E082ED96E05D
:100CB0000E94AF2EB60182ED96E00E94D42E64E62B
:100CC00071E082ED96E00E94F12E82ED96E00E94A6
:100CD000D32C2B960FB6F894DEBF0FBECDBFDF919D
:100CE000CF911F910F91FF90EF90DF90CF900895DB
:100CF000CF92DF92EF92FF928EE493E00E945D1715
:100D00008EE493E00E946A1D6B017C0161E671E054
:100D100082ED96E00E94AF2E6EE571E082ED96E0E6
:100D20000E94AF2EC701B6010E94E8354AE050E0AC
:100D300082ED96E00E94A62F6BE571E082ED96E0D1
:100D40000E94F12E82ED96E0FF90EF90DF90CF9021
:100D50000C94D32CCF93DF938EE493E00E945D1725
:100D60008EE493E00E946E1DEC0168E571E082ED77
:100D700096E00E94AF2E65E571E082ED96E00E945C
:100D8000AF2E4AE050E0BE0182ED96E00E94A62F11
:100D900062E571E082ED96E00E94F12E82ED96E030
:100DA000DF91CF910C94D32CCF92DF92EF92FF92F0
:100DB0008EE493E00E945D178EE493E00E94971DFD
:100DC0006B017C016FE471E082ED96E00E94AF2E32
:100DD0006CE471E082ED96E00E94AF2E22E030E0FC
:100DE000B701A60182ED96E00E94993069E471E0B6
:100DF00082ED96E00E94F12E82ED96E0FF90EF905A
:100E0000DF90CF900C94D32C8EE493E00E945D177A
:100E100066E471E082ED96E00E94AF2E63E471E03B
:100E200082ED96E00E94AF2E63E173E082ED96E0E2
:100E30000E94D42E60E471E082ED96E00E94F12ED3
:100E400082ED96E00C94D32C8F929F92AF92BF923A
:100E5000CF92DF92EF92FF920F931F93CF93DF9386
:100E60001F92CDB7DEB726E040E052EC61E070E0C3
:100E700082ED96E00E945A2D60E086E00E94832B6E
:100E800060E087E00E94832B1F9289E08F9308E047
:100E9000802E912C8AE0A82EB12C94E1C92ED12C61
:100EA000EE24E39405E010E024E030E043E050E07D
:100EB00062E070E08EE493E00E94311484E10E94CD
:100EC0003D2B0E943B3343E06AE171E086E00E94E3
:100ED000780143E06DE271E087E00E94780149E526
:100EE00059E066EF72E083E394E00E94051341E667
:100EF00059E068EF72E083E394E00E9405134BE948
:100F000059E06AEF72E083E394E00E9405134DEE2E
:100F100058E06CEF72E083E394E00E94051349E827
:100F20005EE06EEF72E083E394E00E94051341EE11
:100F30005EE060E073E083E394E00E94051348EF15
:100F400059E062E073E083E394E00E9405134CE50E
:100F50005AE064E073E083E394E00E9405134BE4FD
:100F60005FE066E073E083E394E00E9405134BE1E9
:100F700056E068E073E083E394E00E94051348E7DD
:100F800056E06AE073E083E394E00E9405134AEAC6
:100F900056E06CE073E083E394E00E94051344EDB7
:100FA00056E06EE073E083E394E00E94051344E0B2
:100FB00057E060E173E083E394E00E94051369E584
:100FC00079E083E394E00E94371360E070E08EE400
:100FD00093E00E94631F8EE493E00E945D1785E01A
:100FE00090E00E94353A0F900F908432F1F462E164
:100FF00073E085E090E00E9460011982BE016F5F9E
:101000007F4F86E090E00E94600121E04DE150E0DA
:1010100060E070E08EE493E00E948F1E68EE73E063
:1010200080E090E00E94D02AF9CF0E941B0662E384
:1010300070E080E090E00E94D02A0E94040762E302
:1010400070E080E090E00E94D02A0E94D4060E94C6
:101050005B0412E0E12EF12C00E010E080914903E6
:10106000882329F081E0E81AF108A9F0F5CF98016A
:1010700040E050E0BA018EE493E00E947F1E66E9F2
:1010800070E080E090E00E94D02A0F5F1F4F083090
:10109000110521F7E7CF80914903811115C021E0A7
:1010A0004AE050E060E070E08EE493E00E948F1E22
:1010B0006BE070E08EE493E00E94631F68EC70E0E8
:1010C00080E090E00E94D02A85E090E00E94353ACE
:1010D000833209F041C080914903811110C02CEB8B
:1010E00032E040E050E060E87FE38EE493E00E946D
:1010F000A21768EC70E080E090E00E94D02A809116
:10110000490381110CC0409106015091070121E073
:1011100030E061E070E08EE493E00E94331980914A
:101120004903811119C021E04FE050E060E070E018
:101130008EE493E00E948F1E04E110E020E233E091
:1011400040E050E060E070E48EE493E00E94381AE2
:101150008EE493E00E945D1780914903811109C0DC
:1011600021E04BE050E060E070E08EE493E00E940C
:101170008F1E0E94A12A60934303709344038093BF
:101180004503909346030F90DF91CF911F910F91EC
:10119000FF90EF90DF90CF90BF90AF909F908F9097
:1011A00008956EE170E080E090E00E94D02A6DE347
:1011B00071E082ED96E00E94AF2E6BE371E082ED6C
:1011C00096E00E94AF2E68E371E082ED96E00E9407
:1011D000F12E82ED96E00C94D32C0E94D1088EE47F
:1011E00093E00E949817882329F060E08EE493E052
:1011F0000E949D1783E394E00E94FB12009739F050
:101200000E94BB3990934D0380934C0317C021E09B
:101210004AE150E060E070E08EE493E00E948F1EAF
:1012200060ED77E080E090E00E94D02A8EE493E0C9
:101230000E94941E10924D0310924C0383E394E09D
:101240000E94FB12009719F00E94BB3902C088EE81
:1012500093E0909307018093060183E394E00E945A
:10126000FB12009719F00E94BB3902C08FE090E09A
:10127000909305018093040108956EE170E080E091
:1012800090E00E94D02A65E371E082ED96E00E9432
:10129000AF2E63E371E082ED96E00E94AF2E60E333
:1012A00071E082ED96E00E94F12E82ED96E00C94C2
:1012B000D32C0E94D1088EE493E00E945D170C9419
:1012C0003D09CF93DF9300D0CDB7DEB70E94D108A0
:1012D0008EE493E00E945D1783E394E00E94FB128A
:1012E000009779F042E050E0BE016F5F7F4F0E94AF
:1012F000A738AB01BC0120E08EE493E00E948F1E72
:1013000013C021E04AE150E060E070E08EE493E039
:101310000E948F1E60ED77E080E090E00E94D02A6E
:101320008EE493E00E94941E0E943D090F900F905E
:10133000DF91CF9108958F929F92AF92BF92EF92DB
:10134000FF920F931F93CF93DF930E94D1088EE4F7
:1013500093E00E945D1783E394E00E94FB120097E4
:1013600029F00E94BB39EC0110E001C011E083E3D9
:1013700094E00E94FB12009721F00E94BB391123D8
:10138000A1F021E04AE150E060E070E08EE493E0FB
:101390000E948F1E60ED77E080E090E00E94D02AEE
:1013A0008EE493E00E94941E17C04C01AA2497FC7F
:1013B000A094BA2CBE01882777FD8095982F0E94B3
:1013C0001B36AB01BC01EE24E394F12C95018401A2
:1013D0008EE493E00E94961EDF91CF911F910F91B2
:1013E000FF90EF90BF90AF909F908F900C943D092D
:1013F000CF92DF92EF92FF920F931F93CF93DF93E1
:101400000E94D1088EE493E00E945D1783E394E08C
:101410000E94FB12009729F00E94BB39EC0110E0FA
:1014200001C011E083E394E00E94FB12009721F0D9
:101430000E94BB397C0101C011E083E394E00E946B
:10144000FB12009721F00E94BB396C0101C011E032
:1014500083E394E00E94FB12009721F00E94BB39C5
:101460001123A1F021E04AE150E060E070E08EE459
:1014700093E00E948F1E60ED77E080E090E00E9494
:10148000D02A8EE493E00E94941E0CC08C01960139
:10149000A701BE018EE493E00E94C3148EE493E0A2
:1014A0000E94D514DF91CF911F910F91FF90EF9083
:1014B000DF90CF900C943D09BF92CF92DF92EF92D4
:1014C000FF920F931F93CF93DF93CDB7DEB728978B
:1014D0000FB6F894DEBF0FBECDBF0E94D1088EE1DB
:1014E00090E090934D0380934C0383E394E00E943B
:1014F000FB12009729F00E94BB396C01B12C02C08D
:10150000BB24B39483E394E00E94FB12009721F084
:101510000E94BB397C0102C0BB24B39483E394E0F6
:101520000E94FB12009721F00E94BB398C0102C07F
:10153000BB24B39483E394E00E94FB12009721F054
:101540000E94BB39BB20A1F021E04AE150E060E0FD
:1015500070E08EE493E00E948F1E60ED77E080E003
:1015600090E00E94D02A8EE493E00E94941E11C065
:10157000DA82C982FC82EB821E830D8398878F8377
:10158000AE014F5F5F4F68EC70E08EE493E00E9425
:10159000F4140E943D0928960FB6F894DEBF0FBEE2
:1015A000CDBFDF91CF911F910F91FF90EF90DF9012
:1015B000CF90BF900895EF92FF920F931F938531C4
:1015C000910508F025C1FC01EC5CFF4F0C942A3812
:1015D0008EE493E00E945D1715C1209106013091C1
:1015E000070101E010E006C02091060130910701DB
:1015F0000FEF1FEF40E050E060E87FE38EE493E000
:101600000E94DF17FFC0209106013091070101E021
:1016100010E006C020910601309107010FEF1FEF87
:1016200040E050E060E87FE38EE493E00E944F18D2
:10163000E9C000910401109105012091060130914B
:10164000070140E050E060E87FE38EE493E00E9411
:10165000EE19D8C0009104011091050120910601F6
:1016600030910701EE24E394F12C0BC000910401AA
:10167000109105012091060130910701EE24EA94B2
:10168000FE2C40E050E060E87FE38EE493E00E94AF
:10169000691BB8C000910401109105012091060159
:1016A0003091070140E050E060E87FE38EE493E092
:1016B0000E94381AA7C000910401109105012091E1
:1016C000060130910701EE24E394F12C0BC0009148
:1016D0000401109105012091060130910701EE24CB
:1016E000EA94FE2C40E050E060E87FE38EE493E073
:1016F0000E941B1C87C0209106013091070140E029
:1017000050E060E87FE38EE493E00E94A2177AC085
:10171000009104011091050120910601309107010B
:10172000EE24E394F12C0BC000910401109105010B
:101730002091060130910701EE24EA94FE2C40E04E
:1017400050E060E87FE38EE493E00E94BC1C5AC046
:1017500000910401109105012091060130910701CB
:1017600040E050E060E87FE38EE493E00E94891A55
:1017700049C0409106015091070121E030E006C0C8
:1017800040910601509107012FEF3FEF61E070E0BB
:101790008EE493E00E94AB1835C040910601509151
:1017A000070121E030E006C0409106015091070199
:1017B0002FEF3FEF61E070E08EE493E00E94331979
:1017C00021C0009104011091050120910601309182
:1017D000070140E050E060E87FE38EE493E00E9480
:1017E000CF1A10C00091040110910501209106014B
:1017F0003091070140E050E060E87FE38EE493E041
:101800000E94171B1F910F91FF90EF900C943D09C0
:101810001F910F91FF90EF9008950F931F93CF9317
:10182000DF9382ED96E00E94772C181619063CF49F
:1018300080914A0390914B03049709F0EEC1809187
:101840004903882341F18EE493E00E945D1764E62A
:1018500070E080E090E00E94D02A62E070E08EE4C8
:1018600093E00E94631F68EC70E080E090E00E94CB
:10187000D02A80914803882309F4E7C18091470367
:101880008111E3C181E090E090934B0380934A0380
:1018900063E070E022C200914A0310914B030230D2
:1018A000110509F487C03CF40115110569F00130F8
:1018B000110559F1ABC10330110509F431C10430F0
:1018C000110509F48FC1A2C10E94A12A009143030E
:1018D000109144032091450330914603601B710B26
:1018E000820B930B603878438140910508F40CC259
:1018F0000E94D2040E94A12A609343037093440380
:101900008093450390934603FFC125E130E040E01A
:1019100050E065E070E080E090E00E9467337093F3
:101920004203609341036F5071096430710538F4CC
:101930001093400300933F0380E496E010C026E03C
:1019400030E040E050E063E070E080E090E00E9432
:1019500067337093400360933F0388EE93E0909366
:1019600007018093060125E130E040E050E06AE0A5
:1019700070E080E090E00E946733AB01BC0121E0A1
:101980008EE493E00E948F1EC0E0D0E080913F0380
:1019900090914003C817D9070CF0B6C1809141035C
:1019A000909142030E94DB0A809149038111ACC1EE
:1019B0002196ECCF80913E03882309F49FC080914B
:1019C0004903811119C021E04EE050E060E070E071
:1019D0008EE493E00E948F1E66E070E08EE493E058
:1019E0000E94631F24EF31E040E050E060EA70E4C1
:1019F0008EE493E00E94A2178091490381110FC0E9
:101A000021E044E150E060E070E08EE493E00E9469
:101A10008F1E69E070E08EE493E00E94631FC3E0D4
:101A2000D0E080914903882399F064E670E080E07B
:101A300090E00E94D02A0E944B0464E670E080E0AF
:101A400090E00E94D02A80913E0381115DC10FC0B9
:101A50000FEF1FEF24E135E040E050E060E87FE366
:101A60008EE493E00E94DF172197D9F6DECF8091B4
:101A70004903811149C121E04AE050E060E070E093
:101A80008EE493E00E948F1E62E370E080E090E0BD
:101A90000E94D02A0E944B04C3E0D0E080913E0314
:101AA000882329F080913E0381112EC106C08091C8
:101AB0004903882309F416C1F5CF809149038111A8
:101AC00023C18EE493E00E945D1721E04BE050E0DB
:101AD00060E070E08EE493E00E948F1E6DE070E0A5
:101AE0008EE493E00E94631F68EC70E080E090E079
:101AF000DF91CF911F910F910C94D02A01E010E05B
:101B000028EE33E040E050E060E87FE38EE493E0CD
:101B10000E94DF17DF91CF911F910F910C944B041E
:101B20008EE493E00E946E1D8A3892400CF4ECC063
:101B300062E370E080E090E00E94D02A8091490347
:101B400081113FC021E04EE050E060E070E08EE4A3
:101B500093E00E948F1E67E070E08EE493E00E94A5
:101B6000631F809149038111CFC025E130E040E03F
:101B700050E06AE070E080E090E00E946733AB01E3
:101B8000BC0121E08EE493E00E948F1E25E130E04D
:101B900040E050E065E070E080E090E00E94673354
:101BA0007093420360934103CB010E94DB0A8EE4F1
:101BB00093E00E945D1764EF71E080E090E00E9486
:101BC000D02A8091490381119FC021E04BE050E071
:101BD00060E070E08EE493E0DF91CF911F910F9170
:101BE0000C948F1E83E394E00E943D138EE493E0F7
:101BF0000E949817811188C080914C0390914D03E9
:101C0000DF91CF911F910F910C94DB0A84E090E05B
:101C100090934B0380934A0377C084E090E09093C5
:101C20004B0380934A0321E04BE050E060E070E01A
:101C30008EE493E00E948F1E86E00E944A0287E0B5
:101C40000E944A0210924903FACD80914803811103
:101C50000DC080914703882349F082E090E0909383
:101C60004B0380934A0364E070E037C080914803DF
:101C7000882321F080914703811127C040914A03B6
:101C800050914B03662757FD6095762F21E08EE437
:101C900093E00E948F1EC8ECD0E06AE070E080E024
:101CA00090E00E94D02A2197C1F721E04BE050E05C
:101CB00060E070E08EE493E00E948F1E1092490372
:101CC00010924803109247031FC083E090E0909366
:101CD0004B0380934A0365E070E08EE493E00E943A
:101CE000631FCCCF01E010E028EE33E040E050E08D
:101CF00060E87FE38EE493E00E944F180E944B045B
:101D0000219709F0CBCECECEDF91CF911F910F91CD
:101D100008950E94D1088EE493E00E945D1783E34A
:101D200094E00E94FB12009761F00E94BB3901977A
:101D30008D30910508F043C0875B9F4FFC010C94E8
:101D40002A3821E04AE150E060E070E08EE493E060
:101D50000E948F1E60ED77E080E090E00E94D02A24
:101D60008EE493E00E94941E2AC060E070E023C0DD
:101D700061E070E020C062E070E01DC063E070E0F0
:101D80001AC064E070E017C065E070E014C066E05F
:101D900070E011C067E070E00EC068E070E00BC05A
:101DA00069E070E008C06AE070E005C06BE070E0D8
:101DB00002C06CE070E08EE493E00E94CA220C94B2
:101DC0003D090E94D1088EE493E00E945D1783E3F1
:101DD00094E00E94FB12009761F00E94BB390197CA
:101DE0008331910508F055C08A5A9F4FFC010C942D
:101DF0002A3821E04AE150E060E070E08EE493E0B0
:101E00000E948F1E60ED77E080E090E00E94D02A73
:101E10008EE493E00E94941E3CC060E070E035C008
:101E200061E070E032C066E070E02FC067E070E013
:101E30002CC068E070E029C069E070E026C06AE06C
:101E400070E023C06BE070E020C06CE070E01DC06B
:101E50006DE070E01AC06EE070E017C06FE070E0F7
:101E600014C060E170E011C061E170E00EC062E199
:101E700070E00BC063E070E008C064E070E005C093
:101E800065E070E002C062E070E08EE493E00E94E2
:101E9000631F0C943D09CF92DF92EF92FF920F9354
:101EA0001F93CF93DF93CDB7DEB72D970FB6F8947E
:101EB000DEBF0FBECDBF0E94D1088EE493E00E942A
:101EC0005D1719821A821B821C82FE01359687E0FB
:101ED000DF011D928A95E9F783E394E00E94FB12EB
:101EE000009739F1DC01FE0131969E2F2F2F6E01F4
:101EF0008CE0C80ED11C8D91811106C0092F122FC4
:101F0000A5E0EA2EF12C05C0EC15FD05B9F381938F
:101F1000F2CFD8016D918D01FD86EC86C6010E943D
:101F20004001BFEFEB1AFB0AE0E1EE16F10489F77E
:101F300013C021E04AE150E060E070E08EE493E0FD
:101F40000E948F1E60ED77E080E090E00E94D02A32
:101F50008EE493E00E94941E0E943D092D960FB6D8
:101F6000F894DEBF0FBECDBFDF91CF911F910F91CF
:101F7000FF90EF90DF90CF9008951F920F920FB6D1
:101F80000F9211242F933F934F935F936F937F93FF
:101F90008F939F93AF93BF93EF93FF938091A4068A
:101FA00087FF05C010928500109284001AC020910E
:101FB000A406332727FD30958091A30690E02817CB
:101FC00039077CF48091A406992787FD9095FC0140
:101FD000EE0FFF1FE80FF91FEB55F94F808186FDCB
:101FE00015C08091A4068F5F8093A4062091A4065B
:101FF000332727FD30958091A30690E028173907F5
:10200000BCF48091A4068C305CF112C08091A406CF
:10201000992787FD9095FC01EE0FFF1FE80FF91F30
:10202000EB55F94F808160E08F730E94BC2BD9CFB4
:102030008091840090918500049680349C4918F426
:1020400080E49CE905C0809184009091850004960D
:1020500090938900809388008FEF8093A40638C006
:1020600020918400309185008091A406992787FDF6
:102070009095FC01EE0FFF1FE80FF91FEB55F94F8C
:1020800081819281820F931F9093890080938800B1
:102090008091A406992787FD9095FC01EE0FFF1F04
:1020A000E80FF91FEB55F94F808186FF11C0809131
:1020B000A406992787FD9095FC01EE0FFF1FE80FFE
:1020C000F91FEB55F94F808161E08F730E94BC2BA3
:1020D000FF91EF91BF91AF919F918F917F916F9100
:1020E0005F914F913F912F910F900FBE0F901F90D6
:1020F00018952091A3062C30A0F431E0320F3093D4
:10210000A306FC012083822F90E0FC01EE0FFF1F4D
:10211000E80FF91FEB55F94F88EB9BE09283818321
:1021200008952FEFFC0120830895DF92EF92FF9234
:102130000F931F93CF93DF93EC01D62E7A01890181
:1021400088818C3008F066C061E08D2D0E94832B61
:102150008881A82FB0E0FD01EE0FFF1FEA0FFB1FE3
:10216000EB55F94F2D2D2F739081907C922B9083FE
:1021700060E272E06E197F0977FF02C06D5F7F4FEA
:102180007595679575956795698340E659E0401B9D
:10219000510B57FF02C04D5F5F4F559547955595C1
:1021A00047954A836CE00E94C9379CE0899FB00143
:1021B000112420E030E0A901460F571FFA01EE0F6D
:1021C000FF1FE40FF51FEB55F94F908196FD16C0E8
:1021D0002F5F3F4F2C30310571F781110FC01092E6
:1021E000800082E08093810010928500109284002C
:1021F000B19A80916F00826080936F00888190E037
:10220000FC01EE0FFF1FE80FF91FEB55F94F80811E
:10221000806480838881DF91CF911F910F91FF901F
:10222000EF90DF90089520E639E040E252E00C9410
:102230009510FC01808190E0FC01EE0FFF1FE80F7C
:10224000F91FEB55F94F80818F7B80830895FC0146
:1022500080818C3070F5918128E830E0291B3109AC
:1022600097FD3395220F331F220F331F6217730719
:102270007CF0928128E532E0291B310997FD3395E6
:10228000220F331F220F331F621773070CF49B01B9
:1022900022503109220F331F4FB7F89490E0FC0110
:1022A000EE0FFF1FE80FF91FEB55F94F3283218323
:1022B0004FBF08954F925F926F927F92AF92BF92FD
:1022C000CF92DF92EF92FF920F931F93CF93DF9302
:1022D000EC01603282E078070CF040C077FD06C068
:1022E000653B71052CF064EB70E002C060E070E0CB
:1022F000898128E830E0281B310987FD3395220FBA
:10230000331F220F331F5901CC24B7FCC094DC2C9F
:10231000882777FD8095982F2A8148E552E0421B57
:10232000510927FD5395440F551F440F551F2A018E
:10233000662457FC6094762C7F926F925F924F9246
:1023400014EBE12EF12C00E010E020E030E0A901D8
:102350000E9483330F900F900F900F90CE01DF916A
:10236000CF911F910F91FF90EF90DF90CF90BF9092
:10237000AF907F906F905F904F900C942711FC016D
:10238000808190E0FC01EE0FFF1FE80FF91FEB5575
:10239000F94F808186FB882780F9089508950F936F
:1023A0001F93CF93DF9385E10E943D2B25E0AC0185
:1023B000249FC001259F900D1124BC01882777FD23
:1023C0008095982F0E941B3620E030E040E85AE3C9
:1023D0000E94CF368B01D82FC92F26E636E646E875
:1023E00050E40E94CB36181624F406E616E6D6E82A
:1023F000C0E4B8018D2F9C2FDF91CF911F910F91D9
:1024000008950F931F93CF93DF930E94CF112FEB6B
:1024100036E842ED52E40E94CF362CE73DE04BEA2D
:1024200053E40E9417358B01D82FC92F20E030E0EC
:10243000A9010E947C3587FF04C000E010E0D0E0D5
:10244000C0E0B8018D2F9C2FDF91CF911F910F918C
:1024500008950895CF93DF93EC01862F68837983E5
:102460005B834A8361E00E94832B60E08A81DF9175
:10247000CF910C94832BCF93DF93EC0160E08881A4
:102480000E94BC2B82E090E00E94F82A61E08881E3
:102490000E94BC2B8AE090E00E94F82A60E08881CC
:1024A0000E94BC2B20E43CE940E050E061E08A81DE
:1024B000DF91CF910C94F22B0E943B122AE330E083
:1024C00040E050E00E940B382115310541055105CF
:1024D00021F427EE33E040E050E0CA01B9010E9448
:1024E0001B3608950F931F93CF93DF93EC0100E009
:1024F00010E0488159816A817B81002E04C0769565
:102500006795579547950A94D2F7642F61708C812F
:102510000E94BC2B00000000000061E08D810E9441
:10252000BC2B00000000000060E08D810E94BC2BED
:102530000F5F1F4F0E311105E1F661E08E810E94A1
:10254000BC2B00000000000060E08E81DF91CF9185
:102550001F910F910C94BC2BCF93DF93EC01862F2E
:10256000188219821A821B826C834D832E8361E04C
:102570000E94832B61E08D810E94832B61E08E811C
:102580000E94832B60E08C810E94BC2B60E08D81D7
:102590000E94BC2B60E08E810E94BC2BCE01DF919B
:1025A000CF910C947212FC01408351836283738338
:1025B0000C947212FC0110821182128213820C940C
:1025C000721221E030E0FC01E20FF31F10822F5F56
:1025D0003F4F24323105B9F7FC0115A214A208952A
:1025E00020E230E0FC0137A326A32DE020A716A6A9
:1025F00015A60C94E112AC01455D5F4FBC016A5D0C
:102600007F4F80E090E00C94063AFF920F931F9367
:10261000CF93DF93EC018A012DA53EA52E30310525
:1026200004F585E2F82EF29EC001F39E900D112470
:102630008F9643E250E08C0F9D1F0E94F7392DA525
:102640003EA5F29EC001F39E900D11248C0F9D1F9C
:10265000FC01EE5AFF4F118300832F5F3F4F3EA7CF
:102660002DA7DF91CF911F910F91FF9008958B5C63
:102670009D4FFC017183608308952F923F924F928A
:102680005F926F927F928F929F92AF92BF92CF9202
:10269000DF92EF92FF920F931F93CF93DF9300D0BF
:1026A00000D0CDB7DEB79C838B8311E05C012BE2B9
:1026B000A20EB11C1C0136E2230E311C2C018FEF3F
:1026C000481A580ACB80DC809FE2C90ED11C2B81AE
:1026D0003C812B5C3D4F3A83298382ED96E00E943A
:1026E000772C181619060CF077C0112309F474C062
:1026F00082ED96E00E94902CEB81FC81808390A576
:10270000891344C0AB81BC8195961C921E9294970C
:10271000A501B101C2010E94063A3C01EB81FC8196
:1027200092A781A7009709F457C085A496A47601C3
:1027300000E010E008151905FCF443E250E0B70191
:10274000C3010E94E939F5E2EF0EF11C892B89F4EF
:1027500025E2209FC001219F900D11242B813C81F7
:10276000820F931FFC01EE5AFF4F0190F081E02D84
:1027700007C00F5F1F4FDECFA981BA81ED91FC9199
:1027800009958B819C810E94E11210E0AB81BC8194
:102790000C91802F992787FD90950E94DB39892B1A
:1027A00009F49BCFEB81FC8124A135A1C9010196DD
:1027B00095A384A3E20FF31F0183EB81FC81E80F53
:1027C000F91F118283970CF488CFAB81BC81959659
:1027D0001C921E92949781CF0F900F900F900F90A4
:1027E000DF91CF911F910F91FF90EF90DF90CF90ED
:1027F000BF90AF909F908F907F906F905F904F9021
:102800003F902F900895CF93DF93EC01FC01E055AA
:10281000FF4F6081718140E008960E94FC33FE0109
:10282000EE54FF4F6081718140E0CE01C1960E945D
:10283000FC33FE01EC54FF4F6081718140E0CE011A
:10284000865A9F4F0E94FC33FE01EA54FF4F60817D
:10285000718140E0CE018D579F4FDF91CF910C9455
:10286000FC334F925F926F927F928F929F92AF92C2
:10287000BF92CF92DF92EF92FF920F931F93CF936D
:10288000DF93CDB7DEB73C014B885C88FC01E05597
:10289000FF4F718360833296518340833296318338
:1028A00020833296118300830E940314F301EC51BC
:1028B000FF4F1082E11037C0F301E054FF4F8AE56B
:1028C00090E09183808332969183808332969183C6
:1028D0008083329691838083A201B401C301845521
:1028E0009F4F0E942A12F301E853FF4FA082B1824A
:1028F0003296C082D18261E08A2D0E94832B60E0F3
:102900008C2DDF91CF911F910F91FF90EF90DF9071
:10291000CF90BF90AF909F908F907F906F905F907F
:102920004F900C94832BE12CF12C00E010E0C801B7
:102930000E94353A90E0813891050CF09A95F301A8
:10294000EE0DFF1D908F878B0F5F1F4F89E2E80E02
:10295000F11C0430110559F7AFCFCF93DF93EC0191
:1029600008960E944F34CE01C1960E944F34CE018A
:10297000865A9F4F0E944F34CE018D579F4FDF9153
:10298000CF910C944F340F931F93FC01708F678B82
:10299000E05CFF4F51834083B99631832083B99621
:1029A000118300831F910F910895EF92FF920F936F
:1029B0001F93CF93DF937C0100E010E0C0E0D0E0F4
:1029C000F701E00FF11F6789CE010E943D3A219681
:1029D000075D1F4FC430D10599F7DF91CF911F914B
:1029E0000F91FF90EF9008952F923F924F925F9238
:1029F0006F927F928F929F92AF92BF92CF92DF920F
:102A0000EF92FF920F931F93CF93DF93CDB7DEB773
:102A10002A970FB6F894DEBF0FBECDBF1C016B0125
:102A200049835A830E940314F101EC51FF4F8081C6
:102A3000811110822BE0C216D1040CF4CDC0EE241B
:102A4000D7FCE094FE2CC701B6010E941B3620E0A3
:102A500030E040E251E40E9480352B013C01398195
:102A60003B838A818C83510100E010E0AB81BC8103
:102A70008D919D91BC83AB834501B4ED8B0E911C70
:102A8000F101E00FF11FE054FF4F20813181821BE3
:102A9000930BBC01882777FD8095982F0E941B36E9
:102AA000A30192010E948035F401608371838283C7
:102AB00093830E5F1F4FF4E0AF0EB11C0830110579
:102AC000A9F60E94A12A910124533F4F3C832B83F6
:102AD0006C0D7D1D8E1D9F1DD9016D937D938D9372
:102AE0009C93139744244394512CF101E053FF4FDE
:102AF000FE83ED83245C310938872F830E94A12A4D
:102B0000EB81FC8100811181228133816017710783
:102B10008207930708F076C00E94A12A665F7F4F64
:102B20008F4F9F4FAD81BE816D937D938D939C930D
:102B300013976F80788481011A8619864201AA242E
:102B400097FCA094BA2CE985FA85E20DF31DE054B8
:102B5000FF4F80819181BC01882777FD8095982F58
:102B60000E941B366B017C01C501B4010E941B361B
:102B7000F801EC52FF4F20813181428153810E9444
:102B8000CF369B01AC01C701B6010E9418350E94E7
:102B9000E835C3010E947F34E985FA853296FA87C9
:102BA000E9870C5F1F4FF9E26F0E711C29853A858A
:102BB0002830310541F60E94A12AAD81BE810D91D8
:102BC0001D912D913C91601771078207930798F32F
:102BD000BFEF4B1A5B0A92CFC980DA8000E010E0A9
:102BE0007101F8E0EF0EF11CD6016D917D916D0140
:102BF000C701800F911F0E947F34075D1F4F043A69
:102C0000110591F7E981FA8180E090E021913191FD
:102C1000D101A80FB91FA054BF4F2D933C9302962A
:102C20008830910599F72A960FB6F894DEBF0FBE4B
:102C3000CDBFDF91CF911F910F91FF90EF90DF906B
:102C4000CF90BF90AF909F908F907F906F905F904C
:102C50004F903F902F9008952F923F924F925F9206
:102C60006F927F928F929F92AF92BF92CF92DF929C
:102C7000EF92FF920F931F93CF93DF9300D000D07A
:102C8000CDB7DEB75C01CA012901A70196013C015D
:102C90004B01650188E0C80ED11C780104E010E00A
:102CA0003C2C2D2CF301819191913F01F6019683EB
:102CB0008583F401819191914F01F601948383837F
:102CC000B201C60129833A834B835C830E945E3440
:102CD000F70181919191A191B1917F01F6018187D5
:102CE0009287A387B48701501109F9E2CF0ED11C56
:102CF00029813A814B815C810115110599F60E9469
:102D0000A12A0E9419366B017C01B201882777FD48
:102D10008095982F0E941B3629813A814B815C81D6
:102D20000E94CF36A70196010E9418352B013C0165
:102D300085010F5C1F4F45018AE5880E911CE3E871
:102D4000AE0EB11CA3019201C701B6010E947C35F1
:102D50001816A4F0832D922D0E948634C8010E947B
:102D60008634C4010E948634C5010E9486340E94C4
:102D7000A12A0E9419366B017C01E4CF0F900F90BD
:102D80000F900F90DF91CF911F910F91FF90EF90D7
:102D9000DF90CF90BF90AF909F908F907F906F907B
:102DA0005F904F903F902F9008952F923F924F92B7
:102DB0005F926F927F928F929F92AF92BF92CF92CB
:102DC000DF92EF92FF920F931F93CF93DF93CDB7D4
:102DD000DEB72C970FB6F894DEBF0FBECDBF4C0107
:102DE0007A8369835C834B833E832D83180126019C
:102DF00037010E940314F401EC51FF4F80818111CF
:102E00001082C301B2010E94E8356F8378878987F9
:102E10009A87AF80B8841A141B04A4F12F813885D7
:102E2000B901882777FD8095982F0E941B369B015A
:102E3000AC01C301B2010E9417356B017C01810115
:102E40002D813E814B815C8169817A81C4010E9420
:102E50002C162C960FB6F894DEBF0FBECDBFDF91B7
:102E6000CF911F910F91FF90EF90DF90CF90BF9087
:102E7000AF909F908F907F906F905F904F903F901A
:102E80002F9008951C861B86C12CD12C90E8E92E2A
:102E90009FE3F92E81012D813E814B815C81698107
:102EA0007A81C4010E942C168B859C8501969C8793
:102EB0008B878A159B0541F7B1CFEF92FF920F9355
:102EC0001F93CF93DF93CDB7DEB728970FB6F89453
:102ED000DEBF0FBECDBF8C017C0184EEE80EF11C7D
:102EE000F7018081811117C088E0E2E1F1E0DE01A5
:102EF000119601900D928A95E1F7AE014F5F5F4FF9
:102F000064EF71E0C8010E94F414C8010E94AD147E
:102F100081E0F701808328960FB6F894DEBF0FBEDC
:102F2000CDBFDF91CF911F910F91FF90EF9008954A
:102F30008C519F4FFC01808108958C519F4FFC0163
:102F400060830895EF92FF920F931F93CF93DF93C7
:102F5000CDB7DEB760970FB6F894DEBF0FBECDBF1A
:102F60008C01790188E0EAE1F1E0DE011996019037
:102F70000D928A95E1F7AE01475F5F4FB901C80135
:102F80000E94F41488E0E2E1F1E0DE011196019084
:102F90000D928A95E1F7AE014F5F5F4FB701C8010F
:102FA0000E94F41460960FB6F894DEBF0FBECDBF3A
:102FB000DF91CF911F910F91FF90EF9008958F9225
:102FC0009F92AF92BF92CF92DF92EF92FF920F93B8
:102FD0001F93CF93DF93CDB7DEB7A0970FB6F894CA
:102FE000DEBF0FBECDBF5C016A017B0149019801C4
:102FF00088E0E2E2F1E0DE01599601900D928A95B7
:10300000E1F788E0EAE2F1E0DE01519601900D92ED
:103010008A95E1F78E010F5F1F4F80E1F801119251
:103020008A95E9F746EA4203B001439F700D1124E7
:10303000882777FD8095982F0E941B362BED3FE067
:1030400049E450E40E94CF3620E030E044E353E40A
:103050000E94803569877A878B879C876D877E87FA
:103060008F87988B9401AE014F5E5F4FBE01675E04
:103070007F4FC5010E94D516A0960FB6F894DEBF0B
:103080000FBECDBFDF91CF911F910F91FF90EF90B9
:10309000DF90CF90BF90AF909F908F900895CF9288
:1030A000DF92EF92FF920F931F93CF93DF93CDB7F1
:1030B000DEB7A0970FB6F894DEBF0FBECDBFE8E035
:1030C000FE2EE2E2F1E0DE01599601900D92FA94B3
:1030D000E1F7F8E0FF2EEAE2F1E0DE01519601901F
:1030E0000D92FA94E1F7A0E1FA2EE2E3F1E0DE01BD
:1030F000119601900D92FA94E1F70130110539F41F
:10310000EEE1F0E0FA8FE98FEAE0F0E006C0EAE0F5
:10311000F0E0FA8FE98FEEE1F0E0FC8FEB8F6A01CF
:103120007B018E010F5F1F4FAE014F5E5F4FBE01EF
:10313000675E7F4F0E94D516A0960FB6F894DEBF4B
:103140000FBECDBFDF91CF911F910F91FF90EF90F8
:10315000DF90CF9008958F929F92AF92BF92CF92BF
:10316000DF92EF92FF920F931F93CF93DF93CDB730
:10317000DEB768970FB6F894DEBF0FBECDBF5C0117
:103180004B0188E0E2E4F1E0DE01519601900D92FE
:103190008A95E1F788E0EAE4F1E0DE011996019012
:1031A0000D928A95E1F788E0E2E1F1E0DE01119607
:1031B00001900D928A95E1F72F3F3F4F71F481E91D
:1031C00090E09E8B8D8B88E790E0988F8F8B2BE41F
:1031D00030E03E872D87988B8F8700E010E06A01F2
:1031E000EE24D7FCE094FE2C081519054CF5AE0131
:1031F0004F5E5F4F60E971E0C5010E94F414AE01BB
:10320000475F5F4F60E971E0C5010E94F414C70198
:10321000B6010E941B362DEC3CEC4CE45FE30E94AF
:10322000CF360E94ED350E94D02AAE014F5F5F4F2E
:1032300064EF71E0C5010E94F4140F5F1F4FD4CFFB
:1032400068960FB6F894DEBF0FBECDBFDF91CF9169
:103250001F910F91FF90EF90DF90CF90BF90AF90B4
:103260009F908F9008958F929F92AF92BF92CF922E
:10327000DF92EF92FF920F931F93CF93DF93CDB71F
:10328000DEB7A0970FB6F894DEBF0FBECDBF8C019E
:103290004B0188E0E2E5F1E0DE01599601900D92E4
:1032A0008A95E1F788E0EAE5F1E0DE0151960190C8
:1032B0000D928A95E1F788E0E2E6F1E0DE011996E9
:1032C00001900D928A95E1F788E0E2E1F1E0DE01FC
:1032D000119601900D928A95E1F72F3F3F4FA1F48F
:1032E00081E990E09E8F8D8F8AE790E098A38F8F81
:1032F0002CE330E03E8B2D8B988F8F8B28E730E0CE
:103300003E872D87988B8F876A0188EEC81A83E0E5
:10331000D80A80E9C81681E0D80624F480E9C82ECE
:10332000DD24D3947601F594E794F594E794A12CE9
:10333000B12CA814B904C4F5AE01475E5F4F64EF29
:1033400071E0C8010E94F414AE014F5E5F4F64EF5C
:1033500071E0C8010E94F414AE01475F5F4FB701EE
:10336000C8010E94F414AE014F5E5F4FB701C8015F
:103370000E94F414AE01475F5F4FB701C8010E947D
:10338000F414AE014F5E5F4FB701C8010E94F41400
:10339000AE014F5F5F4F64EF71E0C8010E94F4140B
:1033A0008FEFA81AB80AC5CFB601882777FD809598
:1033B000982F0E94D02AA0960FB6F894DEBF0FBEB9
:1033C000CDBFDF91CF911F910F91FF90EF90DF90D4
:1033D000CF90BF90AF909F908F900895CF92DF9243
:1033E000EF92FF920F931F93CF93DF93CDB7DEB78A
:1033F000A0970FB6F894DEBF0FBECDBF6A017B0168
:10340000E8E0BE01675E7F4FDB014E2F1D924A95BB
:10341000E9F71E8F0D8F18A30F8FAE014F5E5F4F20
:10342000DA011D92EA95E9F71E8B0D8B1195019536
:103430001109188F0F8B10E1EAE6F1E0DE01119619
:1034400001900D921A95E1F78E010F5F1F4F0E94B8
:10345000D516A0960FB6F894DEBF0FBECDBFDF9194
:10346000CF911F910F91FF90EF90DF90CF90089533
:10347000CF92DF92EF92FF920F931F93CF93DF9340
:10348000CDB7DEB7A0970FB6F894DEBF0FBECDBFA5
:103490006A017B01E8E0BE01675E7F4FDB014E2FD2
:1034A0001D924A95E9F71E8F0D8F18A30F8FAE015D
:1034B0004F5E5F4FDA011D92EA95E9F7F80117FDBB
:1034C0003196F595E795FE8BED8B17FF02C00F5FE8
:1034D0001F4F15950795119501951109188F0F8BA1
:1034E0008E010F5F1F4FE0E1D8011D92EA95E9F7C9
:1034F0000E94D516A0960FB6F894DEBF0FBECDBFC2
:10350000DF91CF911F910F91FF90EF90DF90CF90BF
:103510000895CF92DF92EF92FF920F931F93CF9374
:10352000DF93CDB7DEB7A0970FB6F894DEBF0FBE1E
:10353000CDBF6A017B01E8E0BE01675E7F4FDB0122
:103540004E2F1D924A95E9F71E8F0D8F18A30F8FEE
:10355000AE014F5E5F4FDA011D92EA95E9F71E8BCF
:103560000D8B119501951109188F0F8B8E010F5F2F
:103570001F4FE0E1D8011D92EA95E9F70E94D516A8
:10358000A0960FB6F894DEBF0FBECDBFDF91CF91EE
:103590001F910F91FF90EF90DF90CF900895CF9201
:1035A000DF92EF92FF920F931F93CF93DF93CDB7EC
:1035B000DEB7A0970FB6F894DEBF0FBECDBF6A018D
:1035C0007B010A31110514F009E110E0E8E0BE01C9
:1035D000675E7F4FDB014E2F1D924A95E9F71A8FE8
:1035E000098F1C8F0B8FAE014F5E5F4FDA011D926A
:1035F000EA95E9F710E1EAE7F1E0DE0111960190C2
:103600000D921A95E1F78E010F5F1F4F0E94D5169C
:10361000A0960FB6F894DEBF0FBECDBFDF91CF915D
:103620001F910F91FF90EF90DF90CF900895CF9270
:10363000DF92EF92FF920F931F93CF93DF93CDB75B
:10364000DEB7A0970FB6F894DEBF0FBECDBF6A01FC
:103650007B010E30110514F00DE010E01A8F098F78
:103660001C8F0B8F1E8F0D8F18A30F8FAE014F5E17
:103670005F4F68E0FA0111926A95E9F7B8016C5F53
:103680007F4F7E8B6D8B64E070E0601B710B788FD9
:103690006F8B60E1EAE8F1E0DE01119601900D9296
:1036A0006A95E1F78E010F5F1F4FBE01675E7F4F86
:1036B0000E94D516A0960FB6F894DEBF0FBECDBF00
:1036C000DF91CF911F910F91FF90EF90DF90CF90FE
:1036D00008952F923F924F925F926F927F928F92B6
:1036E0009F92AF92BF92CF92DF92EF92FF920F9391
:1036F0001F93CF93DF93CDB7DEB7A2970FB6F894A1
:10370000DEBF0FBECDBF4C011A012B01390188E08D
:103710009E01275E3F4F3AA329A3F901282F11925A
:103720002A95E9F71E8F0D8F18A30F8F5E0131E1E7
:10373000A30EB11CF50111928A95E9F7C80117FD96
:1037400001969595879502969E8B8D8B17FF02C0EB
:103750000F5F1F4F1595079511950195110902509F
:103760001109188F0F8B26EAA70124036001259FFA
:10377000D00C11248E010F5F1F4F80E1F8011192D0
:103780008A95E9F7B601882777FD8095982F0E94E2
:103790001B362BED3FE049E450E40E94CF3620E099
:1037A00030E044E353E40E94803569877A878B8751
:1037B0009C8724ECA7012403B001259F700D1124E0
:1037C0006C0D7D1D882777FD8095982F0E941B36F4
:1037D0002BED3FE049E450E40E94CF3620E030E09A
:1037E00044E353E40E9480356D877E878F87988BF2
:1037F000720161019301A501BE01675E7F4FC401A3
:103800000E94D516A2960FB6F894DEBF0FBECDBFAC
:10381000DF91CF911F910F91FF90EF90DF90CF90AC
:10382000BF90AF909F908F907F906F905F904F90E0
:103830003F902F9008952F923F924F925F926F92F8
:103840007F928F929F92AF92BF92CF92DF92EF9230
:10385000FF920F931F93CF93DF93CDB7DEB7A0975F
:103860000FB6F894DEBF0FBECDBF4C015A016B01FD
:10387000390128E02E0149E1440E511CF201422F8A
:1038800011924A95E9F789E190E09A8F898F9C8F90
:103890008B8F1E8F0D8F18A30F8F1E0151E1250EE8
:1038A000311CF10111922A95E9F7C80117FD019623
:1038B0009595879504969E8B8D8B17FF02C00F5FA1
:1038C0001F4F159507951195019511090450110980
:1038D000188F0F8B8E010F5F1F4F80E1F80111923F
:1038E0008A95E9F780E090E0A4EBB2E489839A83BB
:1038F000AB83BC838D839E83AF83B88724ECA70101
:103900002403B001259F700D1124882777FD809531
:10391000982F0E941B362BED3FE049E450E40E94B3
:10392000CF3620E030E044E353E40E9480356D87D9
:103930007E878F87988B760165019301A101B20183
:10394000C4010E94D516A0960FB6F894DEBF0FBE34
:10395000CDBFDF91CF911F910F91FF90EF90DF903E
:10396000CF90BF90AF909F908F907F906F905F901F
:103970004F903F902F9008952F923F924F925F92D9
:103980006F927F928F929F92AF92BF92CF92DF926F
:10399000EF92FF920F931F93CF93DF93CDB7DEB7D4
:1039A000A0970FB6F894DEBF0FBECDBF4C015A01F1
:1039B0006B01390128E02E0149E1440E511CF2014E
:1039C000422F11924A95E9F78CE090E09A8F898F07
:1039D0009C8F8B8F1E8F0D8F18A30F8F1E0151E1AF
:1039E000250E311CF10111922A95E9F7C8010A97B9
:1039F0009E8B8D8B8AE090E0801B910B988F8F8B34
:103A00008E010F5F1F4F80E1F80111928A95E9F74F
:103A10008BED9FE0A9E4B0E48D839E83AF83B887EC
:103A200026EAA7012403B001259F700D11248827E1
:103A300077FD8095982F0E941B362BED3FE049E4DF
:103A400050E40E94CF3620E030E044E353E40E948B
:103A5000803569877A878B879C878AE58E9DB00140
:103A60008F9D700D1124882777FD8095982F0E94D7
:103A70001B362BED3FE049E450E40E94CF3620E0B6
:103A800030E044E353E40E9480356D877E878F8762
:103A9000988B760165019301A101B201C4010E94D6
:103AA000D516A0960FB6F894DEBF0FBECDBFDF913E
:103AB000CF911F910F91FF90EF90DF90CF90BF902B
:103AC000AF909F908F907F906F905F904F903F90BE
:103AD0002F90089584559F4F0C945C120F931F9361
:103AE000CF93DF93EC01C653DF4F88810E943D2BBB
:103AF00088810E943D2B8C0164E070E080E090E0C2
:103B00000E94D02A88810E943D2B080F191F64E073
:103B100070E080E090E00E94D02AC80117FD019675
:103B200095958795DF91CF911F910F910895CF9231
:103B3000DF92EF92FF920F931F93CF93DF938C014D
:103B4000095F1F4FC8010E940112CAE0D0E0C12CDA
:103B5000D12C7601C8010E9401129B01AC01C70162
:103B6000B6010E9418356B017C0161E070E080E0D5
:103B700090E00E94D02A219769F720E030E040E2EF
:103B800051E4C701B6010E948035DF91CF911F91AA
:103B90000F91FF90EF90DF90CF900895CF93DF9338
:103BA000CDB7DEB7CC57D1090FB6F894DEBF0FBE44
:103BB000CDBF8CE7EAE9F1E0DE01119601900D92AC
:103BC0008A95E1F7660F771F660F771F81E090E017
:103BD0008C0F9D1F680F791FFB01608171818281AD
:103BE0009381C458DF4F0FB6F894DEBF0FBECDBF30
:103BF000DF91CF910895CF93DF93EC01BA010E943A
:103C0000CE1DAB01BC01CE01DF91CF910C94D3123C
:103C1000CF93DF93CDB7DEB7C057D1090FB6F89475
:103C2000DEBF0FBECDBF80E2E6E1F2E0DE01999695
:103C300001900D928A95E1F780E1E6E3F2E0DE0182
:103C4000AF59BF4F01900D928A95E1F788E1E6E404
:103C5000F2E0DE01A75BBF4F01900D928A95E1F77C
:103C600088E2EEE5F2E0DE01119601900D928A9570
:103C7000E1F76130710509F194F4672BB1F5FA01B0
:103C8000EE0FFF1FEE0FFF1F81E090E08C0F9D1FD6
:103C9000E80FF91F60A571A582A593A526C0623023
:103CA000710599F06330710501F5FA01EE0FFF1F00
:103CB000EE0FFF1F81E090E00FC0FA01EE0FFF1F33
:103CC000EE0FFF1F81E690E007C0FA01EE0FFF1F25
:103CD000EE0FFF1F89E490E08C0F9D1FE80FF91F86
:103CE000608171818281938100C0C059DF4F0FB61E
:103CF000F894DEBF0FBECDBFDF91CF910895CF9373
:103D0000DF93EC01CB01BA01A901CE010E94081E8C
:103D1000AB01BC01CE01DF91CF910C94D3122111E4
:103D20000C94FB1D0C94D3120C94DA128F929F9278
:103D3000AF92BF92EF92FF920F931F93CF93DF93B7
:103D4000EC0148015901E114F10419F4EE24E39463
:103D5000F12CCB01BA010E94ED35C853DF4FA5010C
:103D6000940188810E949B30C501B4010E94D02A31
:103D7000B701882777FD8095982FDF91CF911F910C
:103D80000F91FF90EF90BF90AF909F908F900C9409
:103D9000D02A2F923F924F925F926F927F928F9292
:103DA0009F92AF92BF92CF92DF92EF92FF920F93CA
:103DB0001F93CF93DF93CDB7DEB728970FB6F89454
:103DC000DEBF0FBECDBF1C012A013B0109831A8350
:103DD0002B833C83CD82DE82EF82F886CD8CDE8C15
:103DE000C114D10419F4CC24C394D12C29813A8173
:103DF0004B815C81C301B2010E947C3587FF25C0E5
:103E0000C301B2010E94E835882777FD8095982F7D
:103E10000E941B362B013C0129813A814B815C8138
:103E20000E947C3587FF36C0760195018401B3017D
:103E3000A201C1010E94961E2D813E814F815885AD
:103E4000C301B2010E94CF36DDCFC301B2010E948F
:103E5000E835882777FD8095982F0E941B362B0127
:103E60003C0129813A814B815C810E94CB36181636
:103E70008CF4760195018401B301A201C1010E9475
:103E8000961E2D813E814F815885C301B2010E944B
:103E90008035DDCF28960FB6F894DEBF0FBECDBFBC
:103EA000DF91CF911F910F91FF90EF90DF90CF9016
:103EB000BF90AF909F908F907F906F905F904F904A
:103EC0003F902F9008957F928F929F92AF92BF92D2
:103ED000CF92DF92EF92FF920F931F93CF93DF93D6
:103EE000EC016331710508F047C3FB01E759FF4F4F
:103EF0000C942A385EE1E52EF12C02E310E020E07C
:103F000030E044EA50ED64E274E40E94961E69E1F8
:103F1000E62EF12C07E310E020E030E042E550ED22
:103F200064EA74E4CE010E94961E7AE0E72EF12C3A
:103F30000CE310E020E030E040E050E06CED74E491
:103F400026C02EE1E22EF12C02E310E020E030E06A
:103F500044EA50ED64E274E40E94961E39E1E32ED7
:103F6000F12C07E310E020E030E040E050E06CEDA1
:103F700074E4CE010E94961E4AE0E42EF12C02E386
:103F800010E020E030E042E550ED64EA74E4CE0158
:103F90000E94961EF1C21F92B2E07B2E7F9214E126
:103FA000812E912CA12CB12C0AE0C02E07EDD02E31
:103FB00003E8E02E0FE3F02E0CE51FEF23EC34E4D2
:103FC00042E550ED64EA74E40E94C91E6EE170E0BF
:103FD00080E090E00E94D02A1F927F928AE0882E93
:103FE000912CA12CB12C98EBC92E9EE1D92E95E8ED
:103FF000E92E9FE3F92E0FE115ED22E135E442E5CC
:1040000050ED64EA74E4B1C21F928AE08F93FEE13E
:104010008F2E912CA12CB12CACE5CA2EAFE8DA2E54
:10402000A2E8EA2EAFE3FA2E00E010E02CED34E433
:1040300042E550ED64EA74E46DC21F928AE08F930A
:104040007EE1872E912CA12CB12CEAE0CE2EE7ED5B
:10405000DE2EE3E8EE2EEFE3FE2E0FE115ED22E17A
:1040600035E44CE55FEF63EC74E454C254E6E52EAE
:10407000F12C02E310E020E030E042E550ED64EA8C
:1040800074E40E94961E60E5E62EF12C02E310E037
:1040900020E030E04CE55FEF63EC74E4CE010E9479
:1040A000961EE12CF12C0CE211E020E030E04FE113
:1040B00055ED62E175E46BCF1F92772473947F9284
:1040C0009AE0892E912CA12CB12C2CE5C22E2FE840
:1040D000D22E22E8E22E2FE3F22E00E010E626E0B8
:1040E00035E440E050E068E474E4CE010E94C91E6B
:1040F0001F927F9237E0832E912CA12CB12C4AE0A5
:10410000C42E47EDD42E43E8E42E4FE3F42E00E016
:1041100010E028E434E440E050E566E075E425C2B0
:104120001F9283E08F9318E0812E912CA12CB12C4B
:1041300008EBC02E0EE1D02E05E8E02E0FE3F02EA6
:1041400000E010E02AEF34E440E050E06CE574E475
:10415000CE010E94C91E68EC70E080E090E00E94F1
:10416000D02A0F900F9086E1C82ED12CBAE0EB2E0A
:10417000F12C05E010E020E030E048E451EF66E784
:1041800074E4CE010E94961E81E0C81AD10871F72E
:10419000F3C11F9283E08F93E8E08E2E912CA12C27
:1041A000B12CFAE0CF2EF7EDDF2EF3E8EF2EFFE390
:1041B000FF2E00E010E82BE335E440E050E06BEE2A
:1041C00074E4CE010E94C91E68EC70E080E090E0CB
:1041D0000E94D02A0F900F90A0E1CA2ED12C7AE035
:1041E000E72EF12C0AE010E020E030E040E050ED56
:1041F00062E874E4CE010E94961E81E0C81AD108DC
:1042000071F7BAC11F9284E08F9330E1832E912C15
:10421000A12CB12C4AE0C42E47EDD42E43E8E42E65
:104220004FE3F42E00E010E021E634E440E050E0FB
:104230006FE274E4CE010E94C91E1F9287E08F9343
:1042400052E1852E912CA12CB12C6EEAC62E67E48A
:10425000D62E61E8E62E6FE3F62E00E010E822E2AB
:1042600034E440E050EC60E674E47FC11F928AE0E1
:104270008F939AE0892E912CA12CB12C28EBC22E81
:104280002EE1D22E25E8E22E2FE3F22E00E010E000
:104290002AEF33E440E050E068EC72E4CE010E9483
:1042A000C91E64EF71E080E090E00E94D02A1F9266
:1042B00081E08F9300E010E028EC32E440E050E031
:1042C00068EC73E452C11F92B8E07B2E7F9214E138
:1042D000812E912CA12CB12C06E6C02EDC2C06E8F8
:1042E000E02E0FE3F02E00E010E42CE135E440E096
:1042F00050E86BEB74E40E94C91E1F927F9289E123
:10430000882E912CA12CB12C00E010E82BEB34E48A
:1043100040E050E36CE175E428C11F9283E08F9385
:10432000E8E08E2E912CA12CB12CF6E6CF2EDC2CC1
:10433000F6E8EF2EFFE3FF2E00E010E82BEB35E46C
:1043400040E050E06AEF74E4CE010E94C91E62E3CF
:1043500070E080E090E00E94D02A1F9282E08F936C
:10436000ADE08A2E912CA12CB12C00E010E02AEFB8
:1043700034E440E058E76BEB75E4F7C01F9248E087
:10438000742E7F925FE0852E912CA12CB12C66E6D5
:10439000C62EDC2C66E8E62E6FE3F62E00E010E079
:1043A0002AEF34E440E050E86BEB74E40E94C91E4D
:1043B00064E670E080E090E00E94D02A1F927F9235
:1043C0007AE0872E912CA12CB12C00E010E42CE196
:1043D00035E440E050E86DEE74E4C7C01F9288EC0D
:1043E0008F9324E1822E912CA12CB12C3CE5C32E7D
:1043F0003FE8D32E32E8E32E3FE3F32E00E010E453
:1044000027E234E440E050E06CE574E483C01F929E
:1044100082E08F93B8E08B2E912CA12CB12C1AE066
:10442000C12E17EDD12E13E8E12E1FE3F12E00E08F
:1044300010E824ED34E440E050E06AE774E4CE0193
:104440000E94C91E1F9283E08F9308EBC02E0EE1DD
:10445000D02E05E8E02E0FE3F02E00E010E02AEF6A
:1044600033E440E050E664ED74E4CE010E94C91EDE
:104470001F928AE08F9389E0882E912CA12CB12C79
:1044800096E6C92EDC2C96E8E92E9FE3F92E00E093
:1044900010E824ED34E440E050E06AE774E4CE0133
:1044A0000E94C91E0F900F900F900F900F900F90C9
:1044B00063C01F928FE08F93F2E08F2E912CA12C7E
:1044C000B12CACE5CA2EAFE8DA2EA2E8EA2EAFE3B3
:1044D000FA2E00E010E82BE335E440E050E068EC11
:1044E00074E418C01F9284E18F9372E0872E912CA0
:1044F000A12CB12CECE5CE2EEFE8DE2EE2E8EE2E7C
:10450000EFE3FE2E00E010E82BEB35E440E050E056
:104510006AEF74E4CE010E94C91E0F900F902CC068
:104520001F9244E1742E7F9252E0852E912CA12C93
:10453000B12C6CE5C62E6FE8D62E62E8E62E6FE34E
:10454000F62E00E010E02AE735E440E050E068ECA9
:1045500074E40E94C91E1F927F9200E010E82BE3D2
:1045600035E440E050E06AE775E4CE010E94C91EE0
:104570000F900F900F900F90DF91CF911F910F919F
:10458000FF90EF90DF90CF90BF90AF909F908F9073
:104590007F9008952F923F924F925F926F927F92F9
:1045A0008F929F92AF92BF92CF92DF92EF92FF9243
:1045B0000F931F93CF93DF93CDB7DEB7C258D109C6
:1045C0000FB6F894DEBF0FBECDBF3C0188E0E6E831
:1045D000F2E0DE01AF58BF4F01900D928A95E1F7EE
:1045E00088E0EEE8F2E0DE01A759BF4F01900D929E
:1045F0008A95E1F788E0E6E9F2E0DE01AF59BF4FC6
:1046000001900D928A95E1F788E0EEE9F2E0DE0193
:10461000A75ABF4F01900D928A95E1F788E0E6EA2C
:10462000F2E0DE01AF5ABF4F01900D928A95E1F79B
:1046300088E0EEEAF2E0DE01A75BBF4F01900D9249
:104640008A95E1F788E0E6EBF2E0DE01AF5BBF4F71
:1046500001900D928A95E1F788E0EEEBF2E0DE0141
:10466000D99601900D928A95E1F788E0E6ECF2E0A8
:10467000DE01D19601900D928A95E1F788E0EEEC8B
:10468000F2E0DE01999601900D928A95E1F788E0BB
:10469000E6EDF2E0DE01919601900D928A95E1F748
:1046A00088E0EEEDF2E0DE01599601900D928A95D8
:1046B000E1F788E0E6EEF2E0DE01519601900D921E
:1046C0008A95E1F788E0EEEEF2E0DE0119960190BE
:1046D0000D928A95E1F76D30710508F0CEC6FB01A9
:1046E000E458FF4F0C942A3882E090E0EF969FAF99
:1046F0008EAFEF973DC4E4E0F0E0EF96FFAFEEAF92
:10470000EF976BC3FEE1EF2EF12C02E310E020E007
:1047100030E044EA50ED64E274E4C3010E94961E66
:104720004AE050E060E070E0C3010E94FB1D6DE0D4
:1047300070E0C3010E94631F04E110E020E233E057
:1047400040E050E060E87FE3C3010E94381A6DE06A
:1047500070E076C14BE050E060E070E0C3010E9481
:10476000FB1D6BE070E0C3010E94631F4CE050E052
:1047700060E070E0C3010E94FB1D04E110E024EF43
:1047800031E040E050E060E87FE3C3010E94891A15
:104790004BE050E060E070E0C3010E94FB1D6CE064
:1047A00070E0C3010E94631F4CE050E060E070E0E5
:1047B000C3010E94FB1D24EF31E040E050E060E8BF
:1047C0007FE3C3010E94891A04C346E150E060E020
:1047D00070E0C3010E94FB1DAE014F585F4F6CEBB0
:1047E00072E0C3010E94F4141F9268EC562E5F928F
:1047F00074E1872E912CA12CB12CECE5CE2EEFE8A4
:10480000DE2EE2E8EE2EEFE3FE2E00E010E82FE4CD
:1048100034E440E050E06CE574E4C3010E94C91E3A
:1048200048E150E060E070E0C3010E94FB1D1F9270
:104830005F9200E010E825E434E440E050E86FE4E3
:1048400074E4C3010E94C91E47E150E060E070E0DB
:10485000C3010E94FB1D1F925F9200E010E029E35C
:1048600034E440E050E865E474E4C3010E94C91EEA
:1048700048E150E060E070E0C3010E94FB1D1F9220
:104880005F9200E010E02FE234E440E050E069E3A2
:1048900074E4C3010E94C91E47E150E060E070E08B
:1048A000C3010E94FB1D1F925F9200E010E427E20B
:1048B00034E440E050E06FE274E4C3010E94C91E9A
:1048C00046E150E060E070E0C3010E94FB1D64EF30
:1048D00071E080E090E00E94D02AC3010E945D1741
:1048E0006CE271E080E090E00E94D02A07C2AE0145
:1048F00047595F4F6CEB72E0C3010E94F41444E02F
:10490000442E512C5AE0352E2224239420E030E00E
:1049100041E050E060E070E0C3010E947F1E1F9202
:104920003F922AE0822E912CA12CB12C38EBC32E81
:104930003EE1D32E35E8E32E3FE3F32E00E010E016
:1049400028E433E440E050E068EC72E4C3010E94E4
:10495000C91E21E030E041E050E060E070E0C301BA
:104960000E947F1E1F923F9200E010E026E933E490
:1049700040E050E068E473E4C3010E94C91E22E0F5
:1049800030E041E050E060E070E0C3010E947F1E33
:104990001F923F9200E010E02AEF33E440E050E045
:1049A00066E973E4C3010E94C91E64EF71E080E010
:1049B00090E00E94D02A21E030E041E050E060E049
:1049C00070E0C3010E947F1E1F922F9200E010E052
:1049D0002AE733E440E050E068EC73E4C3010E944E
:1049E000C91E20E030E041E050E060E070E0C3012B
:1049F0000E947F1E1F922F9200E010E028EC32E40C
:104A000040E050E06AE773E4C3010E94C91E64EF0E
:104A100071E080E090E00E94D02A91E0491A5108AC
:104A20000FB6F894DEBF0FBECDBF09F06FCF43E1E4
:104A300050E060E070E0C3010E94FB1D69E070E09F
:104A4000C3010E94631FC5C1AE014F595F4F64EFA0
:104A500071E0C3010E94F4146CE271E080E090E028
:104A60000E94D02A43E150E060E070E0C3010E9460
:104A7000FB1D60E170E0C3010E94631F40E150E054
:104A800060E070E0C3010E94FB1D6AEF70E080E00F
:104A900090E00E94D02AAE01475A5F4F64EF71E068
:104AA000C3010E94F4146CE271E080E090E00E9487
:104AB000D02A43E150E060E070E0C3010E94FB1D9A
:104AC00061E170E0C3010E94631F40E150E060E0DB
:104AD00070E0C3010E94FB1D6AEF70E080E090E08F
:104AE0000E94D02AAE014F5A5F4F64EF71E0C301BC
:104AF0000E94F4146CE271E080E090E00E94D02A01
:104B000043E150E060E070E0C3010E94FB1D62E100
:104B100070E0C3010E94631F40E150E060E070E07C
:104B2000C3010E94FB1D6CE271E080E090E00E94F6
:104B3000D02AC3010E945D1764EF71E080E090E02D
:104B400052C3AE01475B5F4F6CE271E0C3010E944C
:104B5000F41444E150E060E070E0C3010E94FB1DEA
:104B60006FE070E0C3010E94631F2DC14DE050E073
:104B700060E070E0C3010E94FB1D69E070E0C301CA
:104B80000E94631FEE24E394F12C0FE010E02CED63
:104B900035E040E050E060E070E4C3010E941B1C7F
:104BA000C3010E945D176DE070E0C3010E94631FA6
:104BB000DBC3AE014F5B5F4F6CE271E0C3010E944B
:104BC000F4144EE150E060E070E0C3010E94FB1D70
:104BD000FEE1EF2EF12C04E610E020E030E040E0B2
:104BE00050E06CE574E4C3010E94961E1F92A4E09D
:104BF0005A2E5F92B7E08B2E912CA12CB12C1CE584
:104C0000C12E1FE8D12E12E8E12E1FE3F12E0FE195
:104C100015ED22E934E440E050E06CE574E4C301B2
:104C20000E94C91E1F92442443944F920AE0802E92
:104C3000912CA12CB12C0CE51FEF23EC34E44FE1B7
:104C400055ED62E974E4C3010E94C91E1F924F92A0
:104C500000E010E02CE534E44CE55FEF63EC74E435
:104C6000C3010E94C91E6FE070E080E090E00E94E6
:104C7000D02A1F925F9284E1882E912CA12CB12C16
:104C800004EA10ED24E234E440E050E06CE574E422
:104C9000C3010E94C91E60E971E080E090E00E94BB
:104CA000D02AAE01475C5F4F68EC70E0C3010E9400
:104CB000F4141F925F920FE115ED22E934E440E015
:104CC00050E06CE574E4C3010E94C91EAE014F5C64
:104CD0005F4F68EC70E0C3010E94F4141F925F9272
:104CE00004EA10ED24E234E440E050E06CE574E4C2
:104CF000C3010E94C91EC3010E945D174BE050E032
:104D000060E070E0C3010E94FB1D0FB6F894DEBFA7
:104D10000FBECDBFB2C34EE150E060E070E0C30112
:104D20000E94FB1D1F9264E0562E5F9274E1872E55
:104D3000912CA12CB12CECE5CE2EEFE8DE2EE2E892
:104D4000EE2EEFE3FE2E0FE115ED22E934E440E014
:104D500050E06CE574E4C3010E94C91E1F925F928B
:104D600004EA10ED24E234E440E050E06CE574E441
:104D7000C3010E94C91E6CE271E080E090E00E94D5
:104D8000D02A43E150E060E070E0C3010E94FB1DC7
:104D90000F900F900F900F9004E010E0AE01475D70
:104DA0005F4F64E670E0C3010E94F414C3010E94E7
:104DB0005D170150110991F74EE150E060E070E09D
:104DC000C3010E94FB1D64EF71E080E090E00E944F
:104DD000D02AC3010E945D17C7C2EB961FAE1EAE5C
:104DE000EB9700E911E0EB962EAD3FADEB9742E07B
:104DF00050E060E070E0C3010E947F1E180194E65D
:104E0000290E311CB801882777FD8095982F0E94C4
:104E10001B36C158DF4F688379838A839B83CF57C2
:104E2000D040B101882777FD8095982F0E941B36CE
:104E30008B019C011F92EAE0EF934AE0842E912CB3
:104E4000A12CB12C58EBC52E5EE1D52E55E8E52EF0
:104E50005FE3F52EC158DF4F488159816A817B811C
:104E6000CF57D040C3010E94C91EEB968EAD9FADB7
:104E7000EB970196EB969FAF8EAFEB970F900F904D
:104E800098EE291693E0390611F08101ACCFC301E9
:104E90000E94DA121F92EAE0EF9300E010E829E89E
:104EA00034E4C158DF4F488159816A817B81CF57F3
:104EB000D040C3010E94C91E0F900F90412C512C6D
:104EC000920142E050E060E070E0C3010E947F1E6A
:104ED000B1016C597F4F882777FD8095982F0E94EC
:104EE0001B36ED966CAF7DAF8EAF9FAFED97B101E6
:104EF000882777FD8095982F0E941B36AB01BC0157
:104F00001F92FAE0FF932AE0822E912CA12CB12C63
:104F100038EBC32E3EE1D32E35E8E32E3FE3F32EEC
:104F2000ED960CAD1DAD2EAD3FADED97C3010E94CA
:104F3000C91E84E6281A31089FEF491A590A0F90B2
:104F40000F90E0E92E16E1E03E0609F0B9CFEF96AA
:104F50008EAD9FADEF970197EF969FAF8EAFEF9716
:104F6000892B09F03ACF6CE271E080E090E03BC120
:104F7000212C312C54EF452E55245394910143E0BC
:104F800050E060E070E0C3010E947F1EB2016C59E6
:104F90007F4F882777FD8095982F0E941B36ED96CE
:104FA0006CAF7DAF8EAF9FAFED97B201882777FDD5
:104FB0008095982F0E941B36AB01BC011F929AE08E
:104FC0009F938AE0882E912CA12CB12C9CE5C92EB0
:104FD0009FE8D92E92E8E92E9FE3F92EED960CADCD
:104FE0001DAD2EAD3FADED97C3010E94C91EE5E694
:104FF0004E0E511CFFEF2F1A3F0A0F900F9086EEB6
:10500000481685E0580609F0B9CF212C312C9101C2
:1050100043E050E060E070E0C3010E947F1EB201F7
:105020006C597F4F882777FD8095982F0E941B36FB
:10503000ED966CAF7DAF8EAF9FAFED97B201882735
:1050400077FD8095982F0E941B36AB01BC011F9203
:105050009AE09F931AE0812E912CA12CB12C0CE5A3
:10506000C02E0FE8D02E02E8E02E0FE3F02EED96D2
:105070000CAD1DAD2EAD3FADED97C3010E94C91E15
:10508000E5E64E0E511CFFEF2F1A3F0A0F900F90CE
:1050900088ED481689E0580609F0B9CF212C312C4B
:1050A000910143E050E060E070E0C3010E947F1E88
:1050B000B20164567109882777FD8095982F0E9468
:1050C0001B36ED966CAF7DAF8EAF9FAFED97B20103
:1050D000882777FD8095982F0E941B36AB01BC0175
:1050E0001F929AE09F93AAE08A2E912CA12CB12CBA
:1050F000BCE5CB2EBFE8DB2EB2E8EB2EBFE3FB2EE8
:10510000ED960CAD1DAD2EAD3FADED97C3010E94E8
:10511000C91EE5E64E1A5108FFEF2F1A3F0A0F90FD
:105120000F9086EE481685E0580609F0B9CF212C7D
:10513000312C910143E050E060E070E0C3010E9437
:105140007F1EB20164567109882777FD8095982FDC
:105150000E941B36ED966CAF7DAF8EAF9FAFED9783
:10516000B201882777FD8095982F0E941B36AB01EE
:10517000BC011F929AE09F93EAE08E2E912CA12C05
:10518000B12CFCE5CF2EFFE8DF2EF2E8EF2EFFE397
:10519000FF2EED960CAD1DAD2EAD3FADED97C301CD
:1051A0000E94C91EE5E64E1A5108FFEF2F1A3F0A6A
:1051B0000F900F9084EF481681E0580609F0B9CFA0
:1051C000EF96EEADFFADEF973197EF96FFAFEEAFF5
:1051D000EF97EF2B09F0CCCEC3010E94DA1264E600
:1051E00070E080E090E00E94D02ABEC04FE050E026
:1051F00060E070E0C3010E94FB1D90E4C92E96E0C0
:10520000D92E2AE5422E512CCE0101961C013AE5F9
:10521000A32EB12C44EB842E912CF10188E0119245
:105220008A95E9F7BA82A982BC82AB825E824D82FE
:10523000C4018419950998878F83A1016AE070E001
:10524000C3010E94F414B601882777FD8095982F3A
:105250000E941B36AB01BC01EE24E394F12C0FE05D
:1052600010E020E030E0C3010E94961E9FEF491A33
:10527000590AE4E1CE0ED11CF6E94F16510469F645
:105280004EE050E060E070E0C3010E94FB1DA0EF23
:10529000AA2EAAE0BA2EB6E9CB2ED12C1AE5412EC1
:1052A000512C04EB802E912CF10188E011928A950B
:1052B000E9F75A8249825C824B82DE82CD82C40148
:1052C0008C199D0998878F83A1016AE070E0C30162
:1052D0000E94F414B501882777FD8095982F0E94CD
:1052E0001B36AB01BC01EE24E394F12C0FE010E07F
:1052F00020E030E0C3010E94961E91E0C91AD10857
:10530000E4E1AE0EB11CFAE5CF16D10469F64BE02C
:1053100050E060E070E0C3010E94FB1D04E110E07A
:1053200024EF31E040E050E060E87FE3C3010E94F9
:10533000891A6CE070E0C3010E94631F4CE050E0EA
:1053400060E070E0C3010E94FB1D24EF31E040E00B
:1053500050E060E87FE3C3010E94891AC3010E9404
:105360005D17C3010E94DA124BE050E060E070E08C
:10537000C3010E94FB1D81C047E150E060E070E086
:10538000C3010E94FB1DAE014F5D5F4F6CE271E0F7
:10539000C3010E94F414EE24E394F12C08EC10E015
:1053A00020E030E040E050E061E674E4C3010E9498
:1053B000961E48E150E060E070E0C3010E94FB1DD2
:1053C000AE01475E5F4F6CE271E0C3010E94F414CE
:1053D00008EC10E020E030E040E050E066E174E4EA
:1053E000C3010E94961E44E150E060E070E0C301FA
:1053F0000E94FB1DAE014F5E5F4F6CE271E0C30186
:105400000E94F41408EC10E020E030E040E050E0AE
:1054100066E973E4C3010E94961EAE01475F5F4FC9
:105420006CE271E0C3010E94F4144AE150E060E0D4
:1054300070E0C3010E94FB1DC3010E94AD1408E986
:1054400018E020E030E040E050E066E173E4C301A2
:105450000E94961E68E572E080E090E00E94D02AEB
:10546000C3010E94DA124BE050E060E070E0C3013B
:105470000E94FB1DC3010E945D17CE57DF4F0FB680
:10548000F894DEBF0FBECDBFDF91CF911F910F917A
:10549000FF90EF90DF90CF90BF90AF909F908F9054
:1054A0007F906F905F904F903F902F9008951F9244
:1054B0000F920FB60F9211242F933F938F939F93C8
:1054C000AF93BF938091CA069091CB06A091CC0672
:1054D000B091CD063091C90623E0230F2D3720F47B
:1054E0000196A11DB11D05C026E8230F0296A11D3E
:1054F000B11D2093C9068093CA069093CB06A09352
:10550000CC06B093CD068091CE069091CF06A091A7
:10551000D006B091D1060196A11DB11D8093CE0693
:105520009093CF06A093D006B093D106BF91AF91D0
:105530009F918F913F912F910F900FBE0F901F90D1
:1055400018952FB7F8946091CA067091CB06809198
:10555000CC069091CD062FBF08953FB7F894809167
:10556000CE069091CF06A091D006B091D10626B577
:10557000A89B05C02F3F19F00196A11DB11D3FBF8B
:105580006627782F892F9A2F620F711D811D911D1B
:1055900042E0660F771F881F991F4A95D1F708953B
:1055A000CF92DF92EF92FF92CF93DF936B017C015A
:1055B0000E94AD2AEB01C114D104E104F10489F089
:1055C0000E9416350E94AD2A6C1B7D0B683E73400D
:1055D00090F381E0C81AD108E108F108C851DC4F06
:1055E000EACFDF91CF91FF90EF90DF90CF900895B9
:1055F000019739F0880F991F880F991F029701971B
:10560000F1F70895789484B5826084BD84B5816093
:1056100084BD85B5826085BD85B5816085BDEEE6BA
:10562000F0E0808181608083E1E8F0E01082808199
:1056300082608083808181608083E0E8F0E0808107
:1056400081608083E1EBF0E0808184608083E0EB27
:10565000F0E0808181608083EAE7F0E0808184600F
:10566000808380818260808380818160808380816B
:10567000806880831092C10008958E3008F08E50AB
:1056800087702091080190E4299F90011124822BBA
:1056900080937C0080917A00806480937A0080916E
:1056A0007A0086FDFCCF809178002091790090E00F
:1056B000922B0895833081F028F4813099F0823064
:1056C000A1F008958730A9F08830B9F08430D1F482
:1056D000809180008F7D03C0809180008F778093C0
:1056E0008000089584B58F7702C084B58F7D84BD16
:1056F00008958091B0008F7703C08091B0008F7DB6
:105700008093B0000895CF93DF9390E0FC01EB56B7
:10571000FE4F2491FC01E755FE4F8491882349F107
:1057200090E0880F991FFC01EF52FE4FA591B491B4
:1057300089539E4FFC01C591D4919FB7611108C058
:10574000F8948C91209582238C93888182230AC0BF
:10575000623051F4F8948C91322F309583238C93DE
:105760008881822B888304C0F8948C91822B8C933F
:105770009FBFDF91CF9108950F931F93CF93DF9336
:105780001F92CDB7DEB7282F30E0F901EF57FE4F5B
:105790008491F901EB56FE4F1491F901E755FE4F44
:1057A00004910023C9F0882321F069830E945A2BB9
:1057B0006981E02FF0E0EE0FFF1FE953FE4FA59146
:1057C000B4919FB7F8948C91611103C01095812317
:1057D00001C0812B8C939FBF0F90DF91CF911F91C0
:1057E0000F910895CF92DF92EF92FF920F931F9344
:1057F000CF93DF9390E0FC01EB56FE4FD491FC0178
:10580000E755FE4F7491611102C0C0E001C0CD2F79
:10581000DA01C901BF70672F70E0660F771F63540C
:105820007E4F00E010E09801FB01E590F490F70155
:1058300040814D234C131EC0680179014FEFC41AFB
:10584000D40AE40AF40A081719072A073B0709F4DF
:1058500042C097018601E8CF68017901FFEFCF1AB6
:10586000DF0AEF0AFF0A081719072A073B0799F111
:1058700097018601FB01E590F490F70140814D23EB
:105880004C13EACF801B910BA20BB30B20E030E04E
:10589000A901FB01E590F490F701F080FD22FC12D4
:1058A0000AC0281739074A075B07A9F02F5F3F4F47
:1058B0004F4F5F4FEECFA8E1B0E00E943038605FFD
:1058C0007F4F8F4F9F4F24E09695879577956795EB
:1058D0002A95D1F703C060E070E0CB01DF91CF9152
:1058E0001F910F91FF90EF90DF90CF900895FC01F2
:1058F000818D228D90E0805C9F4F821B91098F7378
:1059000099270895FC01918D828D981731F0828D31
:10591000E80FF11D858D90E008958FEF9FEF0895BA
:10592000FC01918D828D981761F0828DDF01A80FA7
:10593000B11D5D968C91928D9F5F9F73928F90E0C9
:1059400008958FEF9FEF089584E19EE2892B49F03F
:1059500080E090E0892B29F00E94142E81110C9494
:1059600000000895FC01848DDF01A80FB11DA35A2A
:10597000BF4F2C91848D90E001968F739927848F6F
:10598000A689B7892C93A089B1898C9180648C9366
:10599000938D848D981306C00288F389E02D808151
:1059A0008F7D80830895CF93DF93EC01888D8823CA
:1059B000C9F0EA89FB89808185FD05C0A889B9897C
:1059C0008C9186FD0FC00FB607FCF5CF808185FF57
:1059D000F2CFA889B9898C9185FFEDCFCE010E94C5
:1059E000B22CE7CFDF91CF910895CF92DF92FF9253
:1059F0000F931F93CF93DF931F92CDB7DEB76C0148
:105A0000DC015B969C915B975C968C915C979813FC
:105A100007C05096ED91FC915197808185FD32C071
:105A2000F601038D10E00F5F1F4F0F731127F02E4B
:105A3000F601848DF81211C00FB607FCF9CFD6011C
:105A40005096ED91FC915197808185FFF1CFC60171
:105A500069830E94B22C6981EBCF838DE80FF11D21
:105A6000E35AFF4F6083D6015B960C935B97529687
:105A7000ED91FC91539780818062808381E05896FC
:105A80008C930DC0D6015696ED91FC91579760838B
:105A90005096ED91FC91519780818064808381E0E4
:105AA00090E00F90DF91CF911F910F91FF90DF90C9
:105AB000CF900895BF92CF92DF92EF92FF92CF9353
:105AC000DF93EC016A017B01B22EE889F98982E05B
:105AD0008083411581EE580761057105A1F060E0F2
