:100000000C94B2000C9450020C9477020C949E0253
:100010000C9401030C9464030C94DA000C94152ADC
:100020000C94DA000C94DA000C94DA000C94C60BF1
:100030000C94DA000C94DA000C94DA000C94DA00D8
:100040000C9495210C94DA000C94FA240C942C2531
:100050000C94DA000C94DA000C94DA000C94DA00B8
:100060000C94DA000C94DA00B816DF160917421760
:100070005B1774179A17CE17071840187418A11831
:10008000CB18FC182C1945199719B019CE19C01A9C
:10009000E81A231BB51B621CDF1CF41C171DC91DAD
:1000A000B91AB21A3420FA2005A84CCDB2D44EB9F0
:1000B0003836A9020C50B9918688083CA6AAAA2A0B
:1000C000BE000000803F252500460026260025258D
:1000D000004100262600252500492000262600256F
:1000E0002500422000262600252500452000262642
:1000F00000000102030405060700010203040500D5
:1001000001020304050000000800020100000304CE
:100110000700000000000000000102040810204059
:1001200080010204081020010204081020040404C5
:100130000404040404020202020202030303030390
:100140000300000000230026002900000000002515
:100150000028002B0000000000240027002A0002D5
:100160000D075C2511241FBECFEFD8E0DEBFCDBF49
:1001700013E0A0E0B1E0E8E1F0E602C005900D92E6
:10018000AA34B107D9F727E0AAE4B3E001C01D9271
:10019000AA38B207E1F711E0C4E6D1E004C0229723
:1001A000FE010E94222FC036D107C9F70E94A02568
:1001B0000C940A300C94000081E0809350039091DD
:1001C000510391110BC08093510321E04FE050E0A7
:1001D00060E070E084E593E00C94CD15089581E033
:1001E00080934F039091510391110BC08093510361
:1001F00021E04FE050E060E070E084E593E00C9493
:10020000CD150895A82FAF7787FD05C08EEF8A0F13
:10021000823008F499C0B0E0FD01E75EFE4F249102
:10022000FD01E35DFE4F8491942F9D7F9130B9F4E1
:10023000823031F490919606922B909396060FC0DF
:10024000833031F490918706922B9093870607C0F4
:10025000843029F490917406922B90937406415047
:100260004230B8F4823031F490919506922B9093FD
:1002700095060FC0833031F490918606922B9093AF
:10028000860607C0843029F490917306922B9093D0
:100290007306FD01EF50FF4FA4918230C1F4B0E02E
:1002A000AA0FBB1FA956B94F6D937C93E5E4F1E00B
:1002B000A591B4918C91809394068BE690E09093F5
:1002C000A8068093A70680916800816033C08330C0
:1002D000C1F4B0E0AA0FBB1FA857B94F6D937C9330
:1002E000E7E4F1E0A591B4918C91809385068CE6CA
:1002F00090E09093A8068093A706809168008260A2
:1003000019C08430C9F4B0E0AA0FBB1FAB58B94F75
:100310006D937C93E9E4F1E0A591B4918C91809385
:1003200072068DE690E09093A8068093A7068091D0
:100330006800846080936800A091A706B091A80629
:100340008C91822B8C9316C09FB7F894A230B1F495
:100350007093A4066093A306E898809169008C7F4F
:100360008093690080916900842B80936900E09AF2
:10037000E89A9FBF8FB780688FBF08957093A606D5
:100380006093A506E99880916900837F8093690056
:100390008091690024E0429FA0011124842B809366
:1003A0006900E19AE99AE5CF3FB7F894982F9F77D3
:1003B00087FD05C08EEF890F823008F45EC0892F5B
:1003C00090E0FC01E75EFE4F2491FC01E35DFE4FEF
:1003D00084918230D1F480916B00209582238093A8
:1003E0006B0080916B00811105C0809168008E7F49
:1003F0008093680080919606822380939606809170
:10040000950682238093950641C08330D1F4809174
:100410006C002095822380936C0080916C00811188
:1004200005C0809168008D7F809368008091870669
:100430008223809387068091860682238093860696
:1004400025C0843019F580916D002095822380931A
:100450006D0080916D00811105C0809168008B7FD7
:100460008093680080917406822380937406809143
:10047000730682238093730609C0923049F4E8988A
:10048000809169008C7F80936900E09A3FBF089556
:10049000E99880916900837F80936900E19AF6CFA3
:1004A0001F920F920FB60F9211242F933F934F93E9
:1004B0005F936F937F938F939F93AF93BF93EF93CC
:1004C000FF93E091A306F091A4060995FF91EF91A7
:1004D000BF91AF919F918F917F916F915F914F915C
:1004E0003F912F910F900FBE0F901F9018951F9264
:1004F0000F920FB60F9211242F933F934F935F9358
:100500006F937F938F939F93AF93BF93EF93FF93DB
:10051000E091A506F091A6060995FF91EF91BF9194
:10052000AF919F918F917F916F915F914F913F918B
:100530002F910F900FBE0F901F9018951F920F9242
:100540000FB60F9211242F933F934F935F936F93A6
:100550007F938F939F93AF93BF93CF93EF93FF932B
:1005600093B1C09194062091960630919506892FFB
:10057000809583232923822B20916B00C927C223D6
:10058000C82390939406CC2351F1C0FF05C0E0919D
:100590009706F09198060995C1FF05C0E09199066C
:1005A000F0919A060995C2FF05C0E0919B06F09173
:1005B0009C060995C3FF05C0E0919D06F0919E063B
:1005C0000995C4FF05C0E0919F06F091A00609952A
:1005D000C5FF05C0E091A106F091A2060995FF9123
:1005E000EF91CF91BF91AF919F918F917F916F913B
:1005F0005F914F913F912F910F900FBE0F901F90E1
:1006000018951F920F920FB60F9211242F933F93BC
:100610004F935F936F937F938F939F93AF93BF930A
:10062000CF93EF93FF9396B1C091850620918706F3
:1006300030918606892F809583232923822B209150
:100640006C00C927C223C82390938506CC2351F19F
:10065000C0FF05C0E0918806F09189060995C1FFA9
:1006600005C0E0918A06F0918B060995C2FF05C08E
:10067000E0918C06F0918D060995C3FF05C0E091CD
:100680008E06F0918F060995C4FF05C0E091900693
:10069000F09191060995C5FF05C0E0919206F09191
:1006A00093060995FF91EF91CF91BF91AF919F91E3
:1006B0008F917F916F915F914F913F912F910F900B
:1006C0000FBE0F901F9018951F920F920FB60F92AA
:1006D00011242F933F934F935F936F937F938F9347
:1006E0009F93AF93BF93CF93EF93FF9399B1C09133
:1006F00072062091740630917306892F80958323AA
:100700002923822B20916D00C927C223C8239093EF
:100710007206CC23C1F1C0FF05C0E0917506F091CF
:1007200076060995C1FF05C0E0917706F09178063D
:100730000995C2FF05C0E0917906F0917A06099506
:10074000C3FF05C0E0917B06F0917C060995C4FFCC
:1007500005C0E0917D06F0917E060995C5FF05C0B4
:10076000E0917F06F09180060995C6FF05C0E091F3
:100770008106F09182060995C7FF05C0E0918306C6
:10078000F09184060995FF91EF91CF91BF91AF91C0
:100790009F918F917F916F915F914F913F912F9199
:1007A0000F900FBE0F901F9018958F929F92AF924F
:1007B000BF92CF92DF92EF92FF920F931F93CF934E
:1007C00084E593E00E94D51420E030E044E352E455
:1007D0000E94722C87FF54C0C3E0809151038111A5
:1007E0004FC021E04CE150E060E070E084E593E030
:1007F0000E94CD151F92CF9348E0842E912CA12CFE
:10080000B12C58EBC52E5EE1D52E55E8E52E5FE301
:10081000F52E00E010E02AEF34E440E050E06CE513
:1008200074E484E593E00E9407166EE170E080E0D6
:1008300090E00E940E221F92CF936CE5C62E6FE8C7
:10084000D62E62E8E62E6FE3F62E00E010E02CE5EF
:1008500034E440E050E06AEF74E484E593E00E9401
:10086000071684E593E00E94D21564EF71E080E002
:1008700090E00E940E220F900F900F900F90ADCF3E
:10088000CF911F910F91FF90EF90DF90CF90BF908D
:10089000AF909F908F9008954F925F926F927F924A
:1008A0008F929F92AF92BF92CF92DF92EF92FF9280
:1008B0000F931F93CF93DF93CDB7DEB728970FB673
:1008C000F894DEBF0FBECDBF88E0E0E2F1E0DE01CC
:1008D000119601900D928A95E1F780915103811153
:1008E00009C0AE014F5F5F4F6CEB72E084E593E0AF
:1008F0000E94CC10F4E06F2E712CAAE05A2E4424F2
:100900004394809151038823A1F080915103811178
:10091000C1C021E043E150E060E070E084E593E095
:100920000E94CD1569E070E084E593E00E94A11675
:10093000B1C020E030E041E050E060E070E084E5EC
:1009400093E00E94BD151F925F927AE0872E912C52
:10095000A12CB12CE8EBCE2EEEE1DE2EE5E8EE2E5A
:10096000EFE3FE2E00E010E028E433E440E050E046
:1009700068EC72E484E593E00E94071680915103CD
:100980000F900F908111C1CF21E030E041E050E0A5
:1009900060E070E084E593E00E94BD151F925F92D5
:1009A00000E010E026E933E440E050E068E473E45E
:1009B00084E593E00E940716809151030F900F90F9
:1009C0008111A3CF22E030E041E050E060E070E030
:1009D00084E593E00E94BD151F925F9200E010E055
:1009E0002AEF33E440E050E066E973E484E593E005
:1009F0000E94071664EF71E080E090E00E940E22F2
:100A0000809151030F900F9081117FCF21E030E052
:100A100041E050E060E070E084E593E00E94BD15A5
:100A20001F924F9200E010E02AE733E440E050E0EC
:100A300068EC73E484E593E00E940716809151030B
:100A40000F900F90811161CF20E030E041E050E045
:100A500060E070E084E593E00E94BD151F924F9224
:100A600000E010E028EC32E440E050E06AE773E494
:100A700084E593E00E94071664EF71E080E090E067
:100A80000E940E2281E0681A71080F900F9009F001
:100A900038CF3BCF84E593E00E943513809151031A
:100AA000811109C021E04BE050E060E070E084E596
:100AB00093E00E94CD1528960FB6F894DEBF0FBEC6
:100AC000CDBFDF91CF911F910F91FF90EF90DF90FD
:100AD000CF90BF90AF909F908F907F906F905F90DE
:100AE0004F900895EF92FF920F931F93CF93DF9350
:100AF000CAE0D0E080915103882389F180915103AD
:100B000081115AC081E080934A0364E670E080E07E
:100B100090E00E940E2284E593E00E94A8140E94B7
:100B2000DE2C70931D0160931C0164E670E080E090
:100B300090E00E940E2280911C0190911D010A9765
:100B400090931D0180931C010E94DF2160934B0351
:100B500070934C0380934D0390934E032DC04091AE
:100B600018015091190160911A0170911B0120E048
:100B700084E593E00E94CD15E12CF12C02E310E016
:100B800020E030E040E050E06CE575E484E593E07F
:100B90000E94D41584E593E00E94D21566EB73E0C1
:100BA00080E090E00E940E22809151038111A6CF37
:100BB000219709F09FCFA2CFDF91CF911F910F9185
:100BC000FF90EF9008957F928F929F92AF92BF9285
:100BD000CF92DF92EF92FF920F931F93CF93DF9309
:100BE000CDB7DEB728970FB6F894DEBF0FBECDBFE6
:100BF00088E0E8E2F1E0DE01119601900D928A951D
:100C0000E1F78091510381111BC021E04FE050E0DA
:100C100060E070E084E593E00E94CD1564E670E04A
:100C200080E090E00E940E2269E070E084E593E0AD
:100C30000E94A11664EF71E080E090E00E940E2215
:100C400080915103811147C021E04EE150E060E006
:100C500070E084E593E00E94CD151F92B4E07B2EF6
:100C60007F9214E1812E912CA12CB12C0CE5C02E89
:100C70000FE8D02E02E8E02E0FE3F02E0FE115ED85
:100C800022E934E440E050E06CE574E484E593E06C
:100C90000E9407161F927F9204EA10ED24E234E4CA
:100CA00040E050E06CE574E484E593E00E940716B0
:100CB0006CE271E080E090E00E940E2221E043E1CE
:100CC00050E060E070E084E593E00E94CD150F9065
:100CD0000F900F900F9004E010E080915103882353
:100CE000A1F080915103811121C021E04EE150E03B
:100CF00060E070E084E593E00E94CD1564EF71E060
:100D000080E090E00E940E2211C0AE014F5F5F4F65
:100D100064E670E084E593E00E94CC1084E593E003
:100D20000E94351301501109C1F6DBCF80915103A8
:100D300081110EC04CE051E068EE73E084E593E071
:100D40000E94CC1060E971E080E090E00E940E22E9
:100D50008091510381110AC084E593E00E9435130C
:100D600060E971E080E090E00E940E2280915103E2
:100D700081110EC044E051E068EE73E084E593E039
:100D80000E94CC1060E971E080E090E00E940E22A9
:100D900080915103811119C06CE271E080E090E014
:100DA0000E940E2284E593E00E94351321E04AE080
:100DB00050E060E070E084E593E00E94CD1564E6C9
:100DC00070E080E090E00E940E228091510381113A
:100DD00010C06DE070E084E593E00E94A11660E22F
:100DE00073E080E090E00E940E2284E593E00E9490
:100DF000D21528960FB6F894DEBF0FBECDBFDF9197
:100E0000CF911F910F91FF90EF90DF90CF90BF9007
:100E1000AF909F908F907F900895CF93DF9389E359
:100E200094E00E94F90E2CE04DE06BE084E593E045
:100E30000E94B50E8BE593E00E94D70DCCE5D3E080
:100E4000CE010E94820C188A1F86A99684E0C030C9
:100E5000D807B1F780E094E0DF91CF910C94320E87
:100E60008F929F92AF92BF92CF92DF92EF92FF92BA
:100E70000F931F93CF93DF9388ED96E00E94B523E5
:100E8000181619063CF4809152039091530304976D
:100E900009F0CFC180915103882341F184E593E0AB
:100EA0000E94351364E670E080E090E00E940E221C
:100EB00062E070E084E593E00E94A11668EC70E0C7
:100EC00080E090E00E940E2280915003882309F474
:100ED000C8C180914F038111C4C181E090E090931B
:100EE00053038093520363E070E0F7C18091520393
:100EF000909153038130910591F11CF4892BC1F03D
:100F000091C18230910509F4C0C0049709F08AC1EB
:100F100089E394E0DF91CF911F910F91FF90EF90C3
:100F2000DF90CF90BF90AF909F908F900C94460F22
:100F30000E94DF21C0904B03D0904C03E0904D0302
:100F4000F0904E036C197D098E099F096038784333
:100F50008140910508F4C6C10E944C0458C180919B
:100F60004A0381110EC0DF91CF911F910F91FF9025
:100F7000EF90DF90CF90BF90AF909F908F900C94A8
:100F8000720564E670E080E090E00E940E2284E545
:100F900093E00E94A8146B017C0184E593E00E9419
:100FA000AC14EC0164E670E080E090E00E940E2258
:100FB000C83AD24064F4C701B6010E94DE2C2091E9
:100FC0001C0130911D01621773070CF08BC162E3A5
:100FD00070E080E090E00E940E22C2E08091510318
:100FE000811180C140911401509115016091160149
:100FF0007091170120E084E593E00E94CD151F92C7
:10100000CF9335E0832E912CA12CB12C48EBC42E2C
:101010004EE1D42E45E8E42E4FE3F42E00E010E03C
:101020002CE535E440E050E06CE574E484E593E0C1
:101030000E94071664E170E080E090E00E940E22BA
:101040001F92CF935CE5C52E5FE8D52E52E8E52EC2
:101050005FE3F52E00E010E02CE534E440E050E0E2
:101060006CE575E484E593E00E94071684E593E05F
:101070000E94D2156CE271E080E090E00E940E22A6
:101080000F900F900F900F90A9CF80914A03882363
:1010900009F469CF64E670E080E090E00E940E22DF
:1010A00084E593E00E94A8146B017C0184E593E041
:1010B0000E94AC14EC0164E670E080E090E00E94D5
:1010C0000E22C83AD24004F5C701B6010E94DE2CB8
:1010D00020911C0130911D0162177307ACF00E9432
:1010E000DF21C0904B03D0904C03E0904D03F09073
:1010F0004E036C197D098E099F0960347F4181057B
:10110000910508F4EFC05EC062E370E080E090E01B
:101110000E940E22C2E0809151038111E0CF4091E4
:10112000140150911501609116017091170120E092
:1011300084E593E00E94CD151F92CF9385E0882E21
:10114000912CA12CB12C98EBC92E9EE1D92E95E8BB
:10115000E92E9FE3F92E00E010E02CE535E440E0B5
:1011600050E06CE574E484E593E00E94071664E1C6
:1011700070E080E090E00E940E221F92CF932CE559
:10118000C22E2FE8D22E22E8E22E2FE3F22E00E02C
:1011900010E02CE534E440E050E06CE575E484E5D3
:1011A00093E00E94071684E593E00E94D2156CE25A
:1011B00071E080E090E00E940E220F900F900F905F
:1011C0000F90A9CF0E94E3058091510381111FC0A8
:1011D00064E670E080E090E00E940E2284E593E0F7
:1011E0000E94A8140E94DE2C70931D0160931C01C4
:1011F00064E670E080E090E00E940E2280911C0185
:1012000090911D010A9790931D0180931C010E94EB
:10121000DF2160934B0370934C0380934D039093B5
:101220004E0360C084E090E0909353038093520398
:1012300059C084E090E0909353038093520321E0DF
:101240004BE050E060E070E084E593E00E94CD1553
:1012500086E00E94D40187E00E94D40110925103DD
:1012600019CE80915003811104C080914F038111E8
:101270002CC080915003882321F080914F0381116D
:1012800024C04091520350915303662757FD609547
:10129000762F21E084E593E00E94CD15C8ECD0E0E4
:1012A0006AE070E080E090E00E940E222197C1F792
:1012B00084E593E00E94D2151092510310925003DE
:1012C00010924F0310924A03A2CF82E090E09093D5
:1012D00053038093520364E070E084E593E00E943E
:1012E000A116CFCFDF91CF911F910F91FF90EF907B
:1012F000DF90CF90BF90AF909F908F900895CF9246
:10130000DF92EF92FF920F931F93CF93DF93CDB7AE
:10131000DEB72B970FB6F894DEBF0FBECDBF84E5C6
:1013200093E00E94351319821A821B821C82FE01EF
:10133000359687E0DF011D928A95E9F78E010F5FF0
:101340001F4F65E0E62EF12C6801C7010E94E92FCE
:10135000F80181938F01FFEFEF1AFF0A80E1E81691
:10136000F10499F76EEE70E088ED96E00E94ED25AD
:101370006BEE70E088ED96E00E94ED25B60188EDF9
:1013800096E00E94122668EE70E088ED96E00E94DA
:101390002F2688ED96E00E9411242B960FB6F89424
:1013A000DEBF0FBECDBFDF91CF911F910F91FF9098
:1013B000EF90DF90CF900895CF92DF92EF92FF925F
:1013C00084E593E00E94351384E593E00E94D514F0
:1013D0006B017C0165EE70E088ED96E00E94ED25E2
:1013E00062EE70E088ED96E00E94ED2522E030E0AC
:1013F000B701A60188ED96E00E94CF276FED70E05F
:1014000088ED96E00E942F2688ED96E0FF90EF9001
:10141000DF90CF900C94112484E593E00E94351363
:101420006CED70E088ED96E00E94ED2569ED70E0CE
:1014300088ED96E00E94ED256EE173E088ED96E080
:101440000E94122666ED70E088ED96E00E942F263D
:1014500088ED96E00C9411248F929F92AF92BF92E8
:10146000CF92DF92EF920F931F93CF93DF9326E0FB
:1014700040E052EC61E070E088ED96E00E94982434
:1014800060E086E00E94C12260E087E00E94C12205
:101490001F9289E08F9378E0872E912CEAE0AE2EA0
:1014A000B12CF4E1CF2ED12CEE24E39405E010E032
:1014B00024E030E043E050E062E070E084E593E057
:1014C0000E943A1084E10E947B220E94712A43E02C
:1014D0006CED70E086E00E94020143E06FEE70E088
:1014E00087E00E94020141E55BE064E173E089E38B
:1014F00094E00E940E0F49E55BE066E173E089E34A
:1015000094E00E940E0F4FE759E068E173E089E331
:1015100094E00E940E0F4CED59E06AE173E089E31C
:1015200094E00E940E0F4CE05AE06CE173E089E316
:1015300094E00E940E0F61E57BE089E394E00E9455
:10154000400F60E070E084E593E00E94A11684E51E
:1015500093E00E9435130E947F0962E370E080E00F
:1015600090E00E940E220E940C0A62E370E080E08C
:1015700090E00E940E220E94DC090E94D5030F9089
:101580000F9002E010E0C0E0D0E08091510388238A
:1015900021F001501109B9F713C09E0140E050E05D
:1015A000BA0184E593E00E94BD1566E970E080E031
:1015B00090E00E940E222196C830D10531F7E9CF84
:1015C00080915103811112C060E070E084E593E0E6
:1015D0000E94081A6BE070E084E593E00E94A11677
:1015E00068EC70E080E090E00E940E228091510350
:1015F000811109C021E04BE050E060E070E084E53B
:1016000093E00E94CD150E94DF2160934B037093FD
:101610004C0380934D0390934E03DF91CF911F9124
:101620000F91EF90DF90CF90BF90AF909F908F90F1
:1016300008956EE170E080E090E00E940E2263ED7C
:1016400070E088ED96E00E94ED2561ED70E088ED98
:1016500096E00E94ED256EEC70E088ED96E00E9429
:101660002F2688ED96E00C9411246EE170E080E066
:1016700090E00E940E226BEC70E088ED96E00E94F4
:10168000ED2569EC70E088ED96E00E94ED2566ECB2
:1016900070E088ED96E00E942F2688ED96E00C948D
:1016A00011240E94190B84E593E00E9435130C94D9
:1016B000350BEF92FF920F931F93CF93DF93CDB72C
:1016C000DEB72C970FB6F894DEBF0FBECDBF0E94D9
:1016D000190B84E593E00E94351319821A821B824C
:1016E0001C82FE01359687E0DF011D928A95E9F79D
:1016F00089E394E00E94040F009739F1DC01FE01B8
:1017000031963E2F4F2FCE010C962D91211105C001
:10171000E32EF42E05E010E00AC0E817F907C1F344
:101720002193F3CF0F5F1F4F0031110509F1F7012E
:1017300061917F01C8016C870E94E92F6C85681751
:1017400089F3C8010E94F12FEDCF21E04AE150E07A
:1017500060E070E084E593E00E94CD1560ED77E0F5
:1017600080E090E00E940E2284E593E00E94D21572
:101770002C960FB6F894DEBF0FBECDBFDF91CF9190
:101780001F910F91FF90EF900C94350B1F920F92C9
:101790000FB60F9211242F933F934F935F936F9344
:1017A0007F938F939F93AF93BF93EF93FF9380911A
:1017B000AA0687FF05C010928500109284001AC007
:1017C0002091AA06332727FD30958091A90690E045
:1017D000281739077CF48091AA06992787FD9095F0
:1017E000FC01EE0FFF1FE80FF91FE555F94F80814F
:1017F00086FD15C08091AA068F5F8093AA0620916E
:10180000AA06332727FD30958091A90690E0281776
:101810003907BCF48091AA068C305CF112C080912B
:10182000AA06992787FD9095FC01EE0FFF1FE80F90
:10183000F91FE555F94F808160E08F730E94FA220D
:10184000D9CF8091840090918500049680349C4982
:1018500018F480E49CE905C0809184009091850093
:10186000049690938900809388008FEF8093AA0656
:1018700038C020918400309185008091AA06992774
:1018800087FD9095FC01EE0FFF1FE80FF91FE5554E
:10189000F94F81819281820F931F909389008093E9
:1018A00088008091AA06992787FD9095FC01EE0F8C
:1018B000FF1FE80FF91FE555F94F808186FF11C022
:1018C0008091AA06992787FD9095FC01EE0FFF1FD6
:1018D000E80FF91FE555F94F808161E08F730E9491
:1018E000FA22FF91EF91BF91AF919F918F917F91DC
:1018F0006F915F914F913F912F910F900FBE0F907D
:101900001F9018952091A9062C30A0F431E0320FD9
:101910003093A906FC012083822F90E0FC01EE0F9A
:10192000FF1FE80FF91FE555F94F88EB9BE0928305
:10193000818308952FEFFC0120830895DF92EF92B9
:10194000FF920F931F93CF93DF93EC01D62E7A0172
:10195000890188818C3008F066C061E08D2D0E947D
:10196000C1228881A82FB0E0FD01EE0FFF1FEA0F12
:10197000FB1FE555F94F2D2D2F739081907C922BF5
:10198000908360E272E06E197F0977FF02C06D5F9D
:101990007F4F7595679575956795698340E659E022
:1019A000401B510B57FF02C04D5F5F4F5595479548
:1019B000559547954A836CE00E94BF2E9CE0899F15
:1019C000B001112420E030E0A901460F571FFA01B1
:1019D000EE0FFF1FE40FF51FE555F94F908196FDBF
:1019E00016C02F5F3F4F2C30310571F781110FC0AA
:1019F0001092800082E08093810010928500109206
:101A00008400B19A80916F00826080936F0088811A
:101A100090E0FC01EE0FFF1FE80FF91FE555F94FAD
:101A20008081806480838881DF91CF911F910F91A5
:101A3000FF90EF90DF90089520E639E040E252E019
:101A40000C949E0CFC01808190E0FC01EE0FFF1FC6
:101A5000E80FF91FE555F94F80818F7B808308954A
:101A6000FC0180818C3070F5918128E830E0291BE1
:101A7000310997FD3395220F331F220F331F621751
:101A800073077CF0928128E532E0291B310997FD2C
:101A90003395220F331F220F331F621773070CF485
:101AA0009B0122503109220F331F4FB7F89490E069
:101AB000FC01EE0FFF1FE80FF91FE555F94F3283C8
:101AC00021834FBF08954F925F926F927F92AF92A2
:101AD000BF92CF92DF92EF92FF920F931F93CF931B
:101AE000DF93EC01603282E078070CF040C077FDB4
:101AF00006C0653B71052CF064EB70E002C060E04D
:101B000070E0898128E830E0281B310987FD339592
:101B1000220F331F220F331F5901CC24B7FCC0946E
:101B2000DC2C882777FD8095982F2A8148E552E0A4
:101B3000421B510927FD5395440F551F440F551F54
:101B40002A01662457FC6094762C7F926F925F92F4
:101B50004F9214EBE12EF12C00E010E020E030E099
:101B6000A9010E94792A0F900F900F900F90CE013B
:101B7000DF91CF911F910F91FF90EF90DF90CF9069
:101B8000BF90AF907F906F905F904F900C94300D0E
:101B9000FC01808190E0FC01EE0FFF1FE80FF91FB0
:101BA000E555F94F808186FB882780F908950895CF
:101BB0000F931F93CF93DF9385E10E947B2225E053
:101BC000AC01249FC001259F900D1124BC018827E2
:101BD00077FD8095982F0E94112D20E030E040E89D
:101BE0005AE30E94C52D8B01D82FC92F26E636E671
:101BF00046E850E40E94C12D181624F406E616E6C5
:101C0000D6E8C0E4B8018D2F9C2FDF91CF911F91B2
:101C10000F9108950F931F93CF93DF930E94D80DD8
:101C20002FEB36E842ED52E40E94C52D2CE73DE053
:101C30004BEA53E40E940D2C8B01D82FC92F20E0D2
:101C400030E0A9010E94722C87FF04C000E010E080
:101C5000D0E0C0E0B8018D2F9C2FDF91CF911F9174
:101C60000F9108950895CF93DF93EC01862F688339
:101C700079835B834A8361E00E94C12260E08A81AC
:101C8000DF91CF910C94C122CF93DF93EC0160E000
:101C900088810E94FA2282E090E00E94362261E070
:101CA00088810E94FA228AE090E00E94362260E059
:101CB00088810E94FA2220E43CE940E050E061E0A3
:101CC0008A81DF91CF910C9430230E94440E2AE345
:101CD00030E040E050E00E94012F21153105410520
:101CE000510521F427EE33E040E050E0CA01B9018C
:101CF0000E94112D08950F931F93CF93DF93EC0152
:101D000000E010E0488159816A817B81002E04C087
:101D100076956795579547950A94D2F7642F617029
:101D20008C810E94FA2200000000000061E08D8199
:101D30000E94FA2200000000000060E08D810E94F5
:101D4000FA220F5F1F4F0E311105E1F661E08E811F
:101D50000E94FA2200000000000060E08E81DF9106
:101D6000CF911F910F910C94FA22CF93DF93EC0146
:101D7000862F188219821A821B826C834D832E83D0
:101D800061E00E94C12261E08D810E94C12261E078
:101D90008E810E94C12260E08C810E94FA2260E064
:101DA0008D810E94FA2260E08E810E94FA22CE018B
:101DB000DF91CF910C947B0EFC01408351836283B1
:101DC00073830C947B0EFC011082118212821382A9
:101DD0000C947B0E21E030E0FC01E20FF31F108237
:101DE0002F5F3F4F24323105B9F7FC0115A214A231
:101DF000089520E230E0FC0137A326A32DE020A7C0
:101E000016A615A60C94EA0EAC01455D5F4FBC0109
:101E10006A5D7F4F80E090E00C94C22FFF920F9399
:101E20001F93CF93DF93EC018A012DA53EA52E30A1
:101E3000310504F585E2F82EF29EC001F39E900D67
:101E400011248F9643E250E08C0F9D1F0E94B32F08
:101E50002DA53EA5F29EC001F39E900D11248C0F7E
:101E60009D1FFC01EE5AFF4F118300832F5F3F4FF0
:101E70003EA72DA7DF91CF911F910F91FF9008955D
:101E80008B5C9D4FFC017183608308952F923F927C
:101E90004F925F926F927F928F929F92AF92BF927A
:101EA000CF92DF92EF92FF920F931F93CF93DF9326
:101EB00000D000D0CDB7DEB79C838B8311E05C01EE
:101EC0002BE2A20EB11C1C0136E2230E311C2C01A8
:101ED0008FEF481A580ACB80DC809FE2C90ED11CD4
:101EE0002B813C812B5C3D4F3A83298388ED96E022
:101EF0000E94B523181619060CF077C0112309F4B7
:101F000074C088ED96E00E94CE23EB81FC81808333
:101F100090A5891344C0AB81BC8195961C921E92FA
:101F20009497A501B101C2010E94C22F3C01EB812F
:101F3000FC8192A781A7009709F457C085A496A4B5
:101F4000760100E010E008151905FCF443E250E0CA
:101F5000B701C3010E94A52FF5E2EF0EF11C892BFA
:101F600089F425E2209FC001219F900D11242B812F
:101F70003C81820F931FFC01EE5AFF4F0190F081CC
:101F8000E02D07C00F5F1F4FDECFA981BA81ED9111
:101F9000FC9109958B819C810E94EA0E10E0AB8137
:101FA000BC810C91802F992787FD90950E949F2FCF
:101FB000892B09F49BCFEB81FC8124A135A1C901B8
:101FC000019695A384A3E20FF31F0183EB81FC81AB
:101FD000E80FF91F118283970CF488CFAB81BC8185
:101FE00095961C921E92949781CF0F900F900F9010
:101FF0000F90DF91CF911F910F91FF90EF90DF90A5
:10200000CF90BF90AF909F908F907F906F905F9098
:102010004F903F902F900895CF93DF93EC01FC01F8
:10202000E055FF4F6081718140E008960E94F22ADE
:10203000FE01EE54FF4F6081718140E0CE01C196F8
:102040000E94F22AFE01EC54FF4F6081718140E052
:10205000CE01865A9F4F0E94F22AFE01EA54FF4F9A
:102060006081718140E0CE018D579F4FDF91CF910C
:102070000C94F22A4F925F926F927F928F929F926E
:10208000AF92BF92CF92DF92EF92FF920F931F9386
:10209000CF93DF93CDB7DEB73C014B885C88FC0162
:1020A000E055FF4F718360833296518340833296AF
:1020B000318320833296118300830E940C10F30138
:1020C000EC51FF4F1082E11037C0F301E054FF4F95
:1020D0008AE590E091838083329691838083329663
:1020E00091838083329691838083A201B401C301DE
:1020F00084559F4F0E94330EF301E853FF4FA08297
:10210000B1823296C082D18261E08A2D0E94C122C2
:1021100060E08C2DDF91CF911F910F91FF90EF9098
:10212000DF90CF90BF90AF909F908F907F906F90F7
:102130005F904F900C94C122E12CF12C00E010E054
:10214000C8010E94E92F90E0813891050CF09A9522
:10215000F301EE0DFF1D908F878B0F5F1F4F89E2FC
:10216000E80EF11C0430110559F7AFCFCF93DF9380
:10217000EC0108960E94452BCE01C1960E94452B8A
:10218000CE01865A9F4F0E94452BCE018D579F4FFF
:10219000DF91CF910C94452B2F923F924F925F92FB
:1021A0006F927F928F929F92AF92BF92CF92DF9267
:1021B000EF92FF920F931F93CF93DF93CDB7DEB7CC
:1021C0002A970FB6F894DEBF0FBECDBF1C016B017E
:1021D00049835A830E940C10F101EC51FF4F80811A
:1021E000811110822BE0C216D1040CF4CDC0EE2474
:1021F000D7FCE094FE2CC701B6010E94112D20E00F
:1022000030E040E251E40E94762C2B013C01398100
:102210003B838A818C83510100E010E0AB81BC815B
:102220008D919D91BC83AB834501B4ED8B0E911CC8
:10223000F101E00FF11FE054FF4F20813181821B3B
:10224000930BBC01882777FD8095982F0E94112D54
:10225000A30192010E94762CF40160837183828332
:1022600093830E5F1F4FF4E0AF0EB11C08301105D1
:10227000A9F60E94DF21910124533F4F3C832B8319
:102280006C0D7D1D8E1D9F1DD9016D937D938D93CA
:102290009C93139744244394512CF101E053FF4F36
:1022A000FE83ED83245C310938872F830E94DF2170
:1022B000EB81FC81008111812281338160177107DC
:1022C0008207930708F076C00E94DF21665F7F4F88
:1022D0008F4F9F4FAD81BE816D937D938D939C9366
:1022E00013976F80788481011A8619864201AA2487
:1022F00097FCA094BA2CE985FA85E20DF31DE05411
:10230000FF4F80819181BC01882777FD8095982FB0
:102310000E94112D6B017C01C501B4010E94112D99
:10232000F801EC52FF4F20813181428153810E949C
:10233000C52D9B01AC01C701B6010E940E2C0E9465
:10234000DE2CC3010E94752BE985FA853296FA8747
:10235000E9870C5F1F4FF9E26F0E711C29853A85E2
:102360002830310541F60E94DF21AD81BE810D91FB
:102370001D912D913C91601771078207930798F387
:10238000BFEF4B1A5B0A92CFC980DA8000E010E001
:102390007101F8E0EF0EF11CD6016D917D916D0198
:1023A000C701800F911F0E94752B075D1F4F043AD4
:1023B000110591F7E981FA8180E090E02191319156
:1023C000D101A80FB91FA054BF4F2D933C93029683
:1023D0008830910599F72A960FB6F894DEBF0FBEA4
:1023E000CDBFDF91CF911F910F91FF90EF90DF90C4
:1023F000CF90BF90AF909F908F907F906F905F90A5
:102400004F903F902F9008952F923F924F925F925E
:102410006F927F928F929F92AF92BF92CF92DF92F4
:10242000EF92FF920F931F93CF93DF9300D000D0D2
:10243000CDB7DEB75C01CA012901A70196013C01B5
:102440004B01650188E0C80ED11C780104E010E062
:102450003C2C2D2CF301819191913F01F601968343
:102460008583F401819191914F01F60194838383D7
:10247000B201C60129833A834B835C830E94542BAB
:10248000F70181919191A191B1917F01F60181872D
:102490009287A387B48701501109F9E2CF0ED11CAE
:1024A00029813A814B815C810115110599F60E94C1
:1024B000DF210E940F2D6B017C01B201882777FD7F
:1024C0008095982F0E94112D29813A814B815C8142
:1024D0000E94C52DA70196010E940E2C2B013C01E4
:1024E00085010F5C1F4F45018AE5880E911CE3E8CA
:1024F000AE0EB11CA3019201C701B6010E94722C5D
:102500001816A4F0832D922D0E947C2BC8010E94E6
:102510007C2BC4010E947C2BC5010E947C2B0E9455
:10252000DF210E940F2D6B017C01E4CF0F900F90F3
:102530000F900F90DF91CF911F910F91FF90EF902F
:10254000DF90CF90BF90AF909F908F907F906F90D3
:102550005F904F903F902F9008952F923F924F920F
:102560005F926F927F928F929F92AF92BF92CF9223
:10257000DF92EF92FF920F931F93CF93DF93CDB72C
:10258000DEB72C970FB6F894DEBF0FBECDBF4C015F
:102590007A8369835C834B833E832D8318012601F4
:1025A00037010E940C10F401EC51FF4F8081811122
:1025B0001082C301B2010E94DE2C6F837887898765
:1025C0009A87AF80B8841A141B04A4F12F81388530
:1025D000B901882777FD8095982F0E94112D9B01C6
:1025E000AC01C301B2010E940D2C6B017C01810181
:1025F0002D813E814B815C8169817A81C4010E9479
:1026000004122C960FB6F894DEBF0FBECDBFDF913B
:10261000CF911F910F91FF90EF90DF90CF90BF90DF
:10262000AF909F908F907F906F905F904F903F9072
:102630002F9008951C861B86C12CD12C90E8E92E82
:102640009FE3F92E81012D813E814B815C8169815F
:102650007A81C4010E9404128B859C8501969C8717
:102660008B878A159B0541F7B1CFEF92FF920F93AD
:102670001F93CF93DF93CDB7DEB728970FB6F894AB
:10268000DEBF0FBECDBF8C017C0184EEE80EF11CD5
:10269000F7018081811117C088E0E0E3F1E0DE01FD
:1026A000119601900D928A95E1F7AE014F5F5F4F51
:1026B00064EF71E0C8010E94CC10C8010E94B610FE
:1026C00081E0F701808328960FB6F894DEBF0FBE35
:1026D000CDBFDF91CF911F910F91FF90EF900895A3
:1026E000CF92DF92EF92FF920F931F93CF93DF93DE
:1026F000CDB7DEB7A0970FB6F894DEBF0FBECDBF43
:102700006A017B01E8E0BE01675E7F4FDB014E2F6F
:102710001D924A95E9F71E8F0D8F18A30F8FAE01FA
:102720004F5E5F4FDA011D92EA95E9F7F80117FD58
:102730003196F595E795FE8BED8B17FF02C00F5F85
:102740001F4F15950795119501951109188F0F8B3E
:102750008E010F5F1F4FE0E1D8011D92EA95E9F766
:102760000E94AD12A0960FB6F894DEBF0FBECDBF8B
:10277000DF91CF911F910F91FF90EF90DF90CF905D
:102780000895CF92DF92EF92FF920F931F93CF9312
:10279000DF93CDB7DEB7A0970FB6F894DEBF0FBEBC
:1027A000CDBF6A017B01E8E0BE01675E7F4FDB01C0
:1027B0004E2F1D924A95E9F71E8F0D8F18A30F8F8C
:1027C000AE014F5E5F4FDA011D92EA95E9F71E8B6D
:1027D0000D8B119501951109188F0F8B8E010F5FCD
:1027E0001F4FE0E1D8011D92EA95E9F70E94AD1272
:1027F000A0960FB6F894DEBF0FBECDBFDF91CF918C
:102800001F910F91FF90EF90DF90CF9008952F923E
:102810003F924F925F926F927F928F929F92AF9270
:10282000BF92CF92DF92EF92FF920F931F93CF93BD
:10283000DF93CDB7DEB7A0970FB6F894DEBF0FBE1B
:10284000CDBF4C015A016B01390128E02E0149E14D
:10285000440E511CF201422F11924A95E9F789E189
:1028600090E09A8F898F9C8F8B8F1E8F0D8F18A36E
:102870000F8F1E0151E1250E311CF10111922A9595
:10288000E9F7C80117FD01969595879504969E8BEB
:102890008D8B17FF02C00F5F1F4F15950795119580
:1028A0000195110904501109188F0F8B8E010F5FCC
:1028B0001F4F80E1F80111928A95E9F780E090E0DE
:1028C000A4EBB2E489839A83AB83BC838D839E831C
:1028D000AF83B88724ECA7012403B001259F700DB6
:1028E0001124882777FD8095982F0E94112D2BEDBC
:1028F0003FE049E450E40E94C52D20E030E044E38D
:1029000053E40E94762C6D877E878F87988B7601A3
:1029100065019301A101B201C4010E94AD12A0960C
:102920000FB6F894DEBF0FBECDBFDF91CF911F91E0
:102930000F91FF90EF90DF90CF90BF90AF909F905E
:102940008F907F906F905F904F903F902F90089561
:1029500084559F4F0C94650E0F931F93CF93DF9375
:10296000EC01C653DF4F88810E947B2288810E9440
:102970007B228C0164E070E080E090E00E940E22F7
:1029800088810E947B22080F191F64E070E080E0BC
:1029900090E00E940E22C80117FD0196959587953B
:1029A000DF91CF911F910F910895CF92DF92EF9217
:1029B000FF920F931F93CF93DF938C01095F1F4FFB
:1029C000C8010E940A0ECAE0D0E0C12CD12C7601C9
:1029D000C8010E940A0E9B01AC01C701B6010E940A
:1029E0000E2C6B017C0161E070E080E090E00E94C1
:1029F0000E22219769F720E030E040E251E4C70160
:102A0000B6010E94762CDF91CF911F910F91FF901C
:102A1000EF90DF90CF900895CF93DF93CDB7DEB7DF
:102A2000CC57D1090FB6F894DEBF0FBECDBF8CE7EF
:102A3000E8EBF1E0DE01119601900D928A95E1F745
:102A4000660F771F660F771F81E090E08C0F9D1F48
:102A5000680F791FFB016081718182819381C45865
:102A6000DF4F0FB6F894DEBF0FBECDBFDF91CF9121
:102A70000895CF93DF93EC01BA010E940C15AB01CE
:102A8000BC01CE01DF91CF910C94DC0ECF93DF938C
:102A9000CDB7DEB7C057D1090FB6F894DEBF0FBE71
:102AA000CDBF80E2E4E3F2E0DE01999601900D9261
:102AB0008A95E1F780E1E4E5F2E0DE01AF59BF4F2E
:102AC00001900D928A95E1F788E1E4E6F2E0DE01FB
:102AD000A75BBF4F01900D928A95E1F788E2ECE782
:102AE000F2E0DE01119601900D928A95E1F76130D6
:102AF000710509F194F4672BB1F5FA01EE0FFF1F90
:102B0000EE0FFF1F81E090E08C0F9D1FE80FF91F73
:102B100060A571A582A593A526C06230710599F0C4
:102B20006330710501F5FA01EE0FFF1FEE0FFF1F75
:102B300081E090E00FC0FA01EE0FFF1FEE0FFF1FC4
:102B400081E690E007C0FA01EE0FFF1FEE0FFF1FB6
:102B500089E490E08C0F9D1FE80FF91F608171815F
:102B60008281938100C0C059DF4F0FB6F894DEBF59
:102B70000FBECDBFDF91CF910895CF93DF93EC01CE
:102B8000CB01BA01A901CE010E944615AB01BC01DF
:102B9000CE01DF91CF910C94DC0E21110C943915EC
:102BA0000C94DC0E0C94E30E8F929F92AF92BF9226
:102BB000EF92FF920F931F93CF93DF93EC014801A5
:102BC0005901E114F10419F4EE24E394F12CCB0142
:102BD000BA010E94E32CC853DF4FA50194018881FC
:102BE0000E94D127C501B4010E940E22B701882797
:102BF00077FD8095982FDF91CF911F910F91FF90D6
:102C0000EF90BF90AF909F908F900C940E222F92D8
:102C10003F924F925F926F927F928F929F92AF926C
:102C2000BF92CF92DF92EF92FF920F931F93CF93B9
:102C3000DF93CDB7DEB728970FB6F894DEBF0FBE8F
:102C4000CDBF1C012A013B0109831A832B833C83DE
:102C5000CD82DE82EF82F886CD8CDE8CC114D10469
:102C600019F4CC24C394D12C29813A814B815C8105
:102C7000C301B2010E94722C87FF25C0C301B201BB
:102C80000E94DE2C882777FD8095982F0E94112DB9
:102C90002B013C0129813A814B815C810E94722C7D
:102CA00087FF36C0760195018401B301A201C101FD
:102CB0000E94D4152D813E814F815885C301B201F8
:102CC0000E94C52DDDCFC301B2010E94DE2C8827F2
:102CD00077FD8095982F0E94112D2B013C012981B1
:102CE0003A814B815C810E94C12D18168CF47601CB
:102CF00095018401B301A201C1010E94D4152D8167
:102D00003E814F815885C301B2010E94762CDDCFF0
:102D100028960FB6F894DEBF0FBECDBFDF91CF91DE
:102D20001F910F91FF90EF90DF90CF90BF90AF90E9
:102D30009F908F907F906F905F904F903F902F90DB
:102D400008957F928F929F92AF92BF92CF92DF921F
:102D5000EF92FF920F931F93CF93DF93EC016331B8
:102D6000710508F047C3FB01EC5CFF4F0C94202F6A
:102D70005EE1E52EF12C02E310E020E030E044EAD1
:102D800050ED64E274E40E94D41569E1E62EF12C62
:102D900007E310E020E030E042E550ED64EA74E43F
:102DA000CE010E94D4157AE0E72EF12C0CE310E05E
:102DB00020E030E040E050E06CED74E426C02EE10D
:102DC000E22EF12C02E310E020E030E044EA50ED86
:102DD00064E274E40E94D41539E1E32EF12C07E398
:102DE00010E020E030E040E050E06CED74E4CE0113
:102DF0000E94D4154AE0E42EF12C02E310E020E01A
:102E000030E042E550ED64EA74E4CE010E94D4154E
:102E1000F1C21F92B2E07B2E7F9214E1812E912CA1
:102E2000A12CB12C0AE0C02E07EDD02E03E8E02E35
:102E30000FE3F02E0CE51FEF23EC34E442E550EDF8
:102E400064EA74E40E9407166EE170E080E090E0AE
:102E50000E940E221F927F928AE0882E912CA12C34
:102E6000B12C98EBC92E9EE1D92E95E8E92E9FE36F
:102E7000F92E0FE115ED22E135E442E550ED64EA6B
:102E800074E4B1C21F928AE08F93FEE18F2E912CE1
:102E9000A12CB12CACE5CA2EAFE8DA2EA2E8EA2EBE
:102EA000AFE3FA2E00E010E02CED34E442E550ED03
:102EB00064EA74E46DC21F928AE08F937EE1872EEC
:102EC000912CA12CB12CEAE0CE2EE7EDDE2EE3E82A
:102ED000EE2EEFE3FE2E0FE115ED22E135E44CE599
:102EE0005FEF63EC74E454C254E6E52EF12C02E388
:102EF00010E020E030E042E550ED64EA74E40E9426
:102F0000D41560E5E62EF12C02E310E020E030E07D
:102F10004CE55FEF63EC74E4CE010E94D415E12C24
:102F2000F12C0CE211E020E030E04FE155ED62E1E0
:102F300075E46BCF1F92772473947F929AE0892E69
:102F4000912CA12CB12C2CE5C22E2FE8D22E22E8F8
:102F5000E22E2FE3F22E00E010E626E035E440E01A
:102F600050E068E474E4CE010E9407161F927F923D
:102F700037E0832E912CA12CB12C4AE0C42E47EDD2
:102F8000D42E43E8E42E4FE3F42E00E010E028E4D2
:102F900034E440E050E566E075E425C21F9283E02A
:102FA0008F9318E0812E912CA12CB12C08EBC02E10
:102FB0000EE1D02E05E8E02E0FE3F02E00E010E049
:102FC0002AEF34E440E050E06CE574E4CE010E9466
:102FD000071668EC70E080E090E00E940E220F90EF
:102FE0000F9086E1C82ED12CBAE0EB2EF12C05E033
:102FF00010E020E030E048E451EF66E774E4CE01F1
:103000000E94D41581E0C81AD10871F7F3C11F924C
:1030100083E08F93E8E08E2E912CA12CB12CFAE066
:10302000CF2EF7EDDF2EF3E8EF2EFFE3FF2E00E0CB
:1030300010E82BE335E440E050E06BEE74E4CE01A1
:103040000E94071668EC70E080E090E00E940E227B
:103050000F900F90A0E1CA2ED12C7AE0E72EF12C30
:103060000AE010E020E030E040E050ED62E874E477
:10307000CE010E94D41581E0C81AD10871F7BAC1F7
:103080001F9284E08F9330E1832E912CA12CB12CE0
:103090004AE0C42E47EDD42E43E8E42E4FE3F42E4D
:1030A00000E010E021E634E440E050E06FE274E438
:1030B000CE010E9407161F9287E08F9352E1852E62
:1030C000912CA12CB12C6EEAC62E67E4D62E61E8B5
:1030D000E62E6FE3F62E00E010E822E234E440E052
:1030E00050EC60E674E47FC11F928AE08F939AE00F
:1030F000892E912CA12CB12C28EBC22E2EE1D22EA0
:1031000025E8E22E2FE3F22E00E010E02AEF33E470
:1031100040E050E068EC72E4CE010E94071664EFD4
:1031200071E080E090E00E940E221F9281E08F9378
:1031300000E010E028EC32E440E050E068EC73E49A
:1031400052C11F92B8E07B2E7F9214E1812E912C08
:10315000A12CB12C06E6C02EDC2C06E8E02E0FE3F5
:10316000F02E00E010E42CE135E440E050E86BEB99
:1031700074E40E9407161F927F9289E1882E912C99
:10318000A12CB12C00E010E82BEB34E440E050E33C
:103190006CE175E428C11F9283E08F93E8E08E2EE6
:1031A000912CA12CB12CF6E6CF2EDC2CF6E8EF2EDC
:1031B000FFE3FF2E00E010E82BEB35E440E050E0A9
:1031C0006AEF74E4CE010E94071662E370E080E0CB
:1031D00090E00E940E221F9282E08F93ADE08A2E33
:1031E000912CA12CB12C00E010E02AEF34E440E057
:1031F00058E76BEB75E4F7C01F9248E0742E7F929E
:103200005FE0852E912CA12CB12C66E6C62EDC2C1D
:1032100066E8E62E6FE3F62E00E010E02AEF34E4D5
:1032200040E050E86BEB74E40E94071664E670E03F
:1032300080E090E00E940E221F927F927AE0872E1B
:10324000912CA12CB12C00E010E42CE135E440E0FD
:1032500050E86DEE74E4C7C01F9288EC8F9324E1B0
:10326000822E912CA12CB12C3CE5C32E3FE8D32E0D
:1032700032E8E32E3FE3F32E00E010E427E234E4EB
:1032800040E050E06CE574E483C01F9282E08F93CD
:10329000B8E08B2E912CA12CB12C1AE0C12E17ED89
:1032A000D12E13E8E12E1FE3F12E00E010E824ED0B
:1032B00034E440E050E06AE774E4CE010E9407166F
:1032C0001F9283E08F9308EBC02E0EE1D02E05E80D
:1032D000E02E0FE3F02E00E010E02AEF33E440E0B0
:1032E00050E664ED74E4CE010E9407161F928AE056
:1032F0008F9389E0882E912CA12CB12C96E6C92EB3
:10330000DC2C96E8E92E9FE3F92E00E010E824ED8E
:1033100034E440E050E06AE774E4CE010E9407160E
:103320000F900F900F900F900F900F9063C01F920F
:103330008FE08F93F2E08F2E912CA12CB12CACE575
:10334000CA2EAFE8DA2EA2E8EA2EAFE3FA2E00E0AA
:1033500010E82BE335E440E050E068EC74E418C07A
:103360001F9284E18F9372E0872E912CA12CB12CB7
:10337000ECE5CE2EEFE8DE2EE2E8EE2EEFE3FE2EB9
:1033800000E010E82BEB35E440E050E06AEF74E435
:10339000CE010E9407160F900F902CC01F9244E19F
:1033A000742E7F9252E0852E912CA12CB12C6CE5CD
:1033B000C62E6FE8D62E62E8E62E6FE3F62E00E00A
:1033C00010E02AE735E440E050E068EC74E40E9445
:1033D00007161F927F9200E010E82BE335E440E0EF
:1033E00050E06AE775E4CE010E9407160F900F9037
:1033F0000F900F90DF91CF911F910F91FF90EF9061
:10340000DF90CF90BF90AF909F908F907F90089566
:103410002F923F924F925F926F927F928F929F92E4
:10342000AF92BF92CF92DF92EF92FF920F931F93D2
:10343000CF93DF93CDB7DEB7C258D1090FB6F8945A
:10344000DEBF0FBECDBF3C0188E0E4EAF2E0DE0162
:10345000AF58BF4F01900D928A95E1F788E0ECEAF2
:10346000F2E0DE01A759BF4F01900D928A95E1F776
:1034700088E0E4EBF2E0DE01AF59BF4F01900D921E
:103480008A95E1F788E0ECEBF2E0DE01A75ABF4F46
:1034900001900D928A95E1F788E0E4ECF2E0DE011C
:1034A000AF5ABF4F01900D928A95E1F788E0ECEC9E
:1034B000F2E0DE01A75BBF4F01900D928A95E1F724
:1034C00088E0E4EDF2E0DE01AF5BBF4F01900D92CA
:1034D0008A95E1F788E0ECEDF2E0DE01D996019003
:1034E0000D928A95E1F788E0E4EEF2E0DE01D196F4
:1034F00001900D928A95E1F788E0ECEEF2E0DE01B2
:10350000999601900D928A95E1F788E0E4EFF2E058
:10351000DE01919601900D928A95E1F788E0ECEF3B
:10352000F2E0DE01599601900D928A95E1F788E06C
:10353000E4E0F3E0DE01519601900D928A95E1F707
:1035400088E0ECE0F3E0DE01199601900D928A9597
:10355000E1F76D30710508F0CEC6FB01E95BFF4F66
:103560000C94202F82E090E0EF969FAF8EAFEF9704
:103570003DC4E4E0F0E0EF96FFAFEEAFEF976BC332
:10358000FEE1EF2EF12C02E310E020E030E044EA0F
:1035900050ED64E274E4C3010E94D4154AE050E0A7
:1035A00060E070E0C3010E9439156DE070E0C30176
:1035B0000E94A11604E110E020E233E040E050E078
:1035C00060E87FE3C3010E9470136DE070E076C194
:1035D0004BE050E060E070E0C3010E9439156BE001
:1035E00070E0C3010E94A1164CE050E060E070E082
:1035F000C3010E94391504E110E024EF31E040E0FE
:1036000050E060E87FE3C3010E94C1134BE050E04B
:1036100060E070E0C3010E9439156CE070E0C30106
:103620000E94A1164CE050E060E070E0C3010E94EF
:10363000391524EF31E040E050E060E87FE3C3015A
:103640000E94C11304C346E150E060E070E0C30192
:103650000E943915AE014F585F4F6CEB72E0C30109
:103660000E94CC101F9268EC562E5F9274E1872E58
:10367000912CA12CB12CECE5CE2EEFE8DE2EE2E869
:10368000EE2EEFE3FE2E00E010E82FE434E440E0FD
:1036900050E06CE574E4C3010E94071648E150E075
:1036A00060E070E0C3010E9439151F925F9200E054
:1036B00010E825E434E440E050E86FE474E4C3012A
:1036C0000E94071647E150E060E070E0C3010E94ED
:1036D00039151F925F9200E010E029E334E440E0E6
:1036E00050E865E474E4C3010E94071648E150E025
:1036F00060E070E0C3010E9439151F925F9200E004
:1037000010E02FE234E440E050E069E374E4C301E8
:103710000E94071647E150E060E070E0C3010E949C
:1037200039151F925F9200E010E427E234E440E094
:1037300050E06FE274E4C3010E94071646E150E0D6
:1037400060E070E0C3010E94391564EF71E080E031
:1037500090E00E940E22C3010E9435136CE271E0DA
:1037600080E090E00E940E2207C2AE0147595F4FF1
:103770006CEB72E0C3010E94CC1044E0442E512C4B
:103780005AE0352E2224239420E030E041E050E03E
:1037900060E070E0C3010E94BD151F923F922AE0D5
:1037A000822E912CA12CB12C38EBC32E3EE1D32ECE
:1037B00035E8E32E3FE3F32E00E010E028E433E4A5
:1037C00040E050E068EC72E4C3010E94071621E07B
:1037D00030E041E050E060E070E0C3010E94BD15C0
:1037E0001F923F9200E010E026E933E440E050E011
:1037F00068E473E4C3010E94071622E030E041E070
:1038000050E060E070E0C3010E94BD151F923F923E
:1038100000E010E02AEF33E440E050E066E973E4B2
:10382000C3010E94071664EF71E080E090E00E94FF
:103830000E2221E030E041E050E060E070E0C301A2
:103840000E94BD151F922F9200E010E02AE733E49A
:1038500040E050E068EC73E4C3010E94071620E0EA
:1038600030E041E050E060E070E0C3010E94BD152F
:103870001F922F9200E010E028EC32E440E050E08C
:103880006AE773E4C3010E94071664EF71E080E009
:1038900090E00E940E2291E0491A51080FB6F89468
:1038A000DEBF0FBECDBF09F06FCF43E150E060E057
:1038B00070E0C3010E94391569E070E0C3010E9405
:1038C000A116C5C1AE014F595F4F64EF71E0C3014E
:1038D0000E94CC106CE271E080E090E00E940E2229
:1038E00043E150E060E070E0C3010E94391560E1FF
:1038F00070E0C3010E94A11640E150E060E070E07A
:10390000C3010E9439156AEF70E080E090E00E94E8
:103910000E22AE01475A5F4F64EF71E0C3010E946F
:10392000CC106CE271E080E090E00E940E2243E156
:1039300050E060E070E0C3010E94391561E170E081
:10394000C3010E94A11640E150E060E070E0C301B5
:103950000E9439156AEF70E080E090E00E940E222C
:10396000AE014F5A5F4F64EF71E0C3010E94CC106B
:103970006CE271E080E090E00E940E2243E150E0B2
:1039800060E070E0C3010E94391562E170E0C3019C
:103990000E94A11640E150E060E070E0C3010E9487
:1039A00039156CE271E080E090E00E940E22C301C4
:1039B0000E94351364EF71E080E090E052C3AE01E5
:1039C000475B5F4F6CE271E0C3010E94CC1044E1A1
:1039D00050E060E070E0C3010E9439156FE070E0D4
:1039E000C3010E94A1162DC14DE050E060E070E0DF
:1039F000C3010E94391569E070E0C3010E94A1165D
:103A0000EE24E394F12C0FE010E02CED35E040E0E3
:103A100050E060E070E4C3010E940714C3010E94FB
:103A200035136DE070E0C3010E94A116DBC3AE0147
:103A30004F5B5F4F6CE271E0C3010E94CC104EE11E
:103A400050E060E070E0C3010E943915FEE1EF2E06
:103A5000F12C04E610E020E030E040E050E06CE5BE
:103A600074E4C3010E94D4151F92A4E05A2E5F9201
:103A7000B7E08B2E912CA12CB12C1CE5C12E1FE898
:103A8000D12E12E8E12E1FE3F12E0FE115ED22E910
:103A900034E440E050E06CE574E4C3010E94071692
:103AA0001F92442443944F920AE0802E912CA12C23
:103AB000B12C0CE51FEF23EC34E44FE155ED62E946
:103AC00074E4C3010E9407161F924F9200E010E0B9
:103AD0002CE534E44CE55FEF63EC74E4C3010E9431
:103AE00007166FE070E080E090E00E940E221F92C7
:103AF0005F9284E1882E912CA12CB12C04EA10ED68
:103B000024E234E440E050E06CE574E4C3010E9438
:103B1000071660E971E080E090E00E940E22AE019D
:103B2000475C5F4F68EC70E0C3010E94CC101F92AD
:103B30005F920FE115ED22E934E440E050E06CE5DE
:103B400074E4C3010E940716AE014F5C5F4F68EC3E
:103B500070E0C3010E94CC101F925F9204EA10ED46
:103B600024E234E440E050E06CE574E4C3010E94D8
:103B70000716C3010E9435134BE050E060E070E08F
:103B8000C3010E9439150FB6F894DEBF0FBECDBF3A
:103B9000B2C34EE150E060E070E0C3010E9439150D
:103BA0001F9264E0562E5F9274E1872E912CA12C17
:103BB000B12CECE5CE2EEFE8DE2EE2E8EE2EEFE3C0
:103BC000FE2E0FE115ED22E934E440E050E06CE513
:103BD00074E4C3010E9407161F925F9204EA10ED7D
:103BE00024E234E440E050E06CE574E4C3010E9458
:103BF00007166CE271E080E090E00E940E2243E143
:103C000050E060E070E0C3010E9439150F900F9002
:103C10000F900F9004E010E0AE01475D5F4F64E647
:103C200070E0C3010E94CC10C3010E943513015003
:103C3000110991F74EE150E060E070E0C3010E948D
:103C4000391564EF71E080E090E00E940E22C3011C
:103C50000E943513C7C2EB961FAE1EAEEB9700E96C
:103C600011E0EB962EAD3FADEB9742E050E060E007
:103C700070E0C3010E94BD15180194E6290E311CA5
:103C8000B801882777FD8095982F0E94112DC15883
:103C9000DF4F688379838A839B83CF57D040B101FC
:103CA000882777FD8095982F0E94112D8B019C010C
:103CB0001F92EAE0EF934AE0842E912CA12CB12CC4
:103CC00058EBC52E5EE1D52E55E8E52E5FE3F52EC7
:103CD000C158DF4F488159816A817B81CF57D040DD
:103CE000C3010E940716EB968EAD9FADEB97019630
:103CF000EB969FAF8EAFEB970F900F9098EE291633
:103D000093E0390611F08101ACCFC3010E94E30EAC
:103D10001F92EAE0EF9300E010E829E834E4C1588C
:103D2000DF4F488159816A817B81CF57D040C301E1
:103D30000E9407160F900F90412C512C920142E0E7
:103D400050E060E070E0C3010E94BD15B1016C5904
:103D50007F4F882777FD8095982F0E94112DED9633
:103D60006CAF7DAF8EAF9FAFED97B101882777FD28
:103D70008095982F0E94112DAB01BC011F92FAE093
:103D8000FF932AE0822E912CA12CB12C38EBC32E6C
:103D90003EE1D32E35E8E32E3FE3F32EED960CAD56
:103DA0001DAD2EAD3FADED97C3010E94071684E611
:103DB000281A31089FEF491A590A0F900F90E0E92D
:103DC0002E16E1E03E0609F0B9CFEF968EAD9FAD1D
:103DD000EF970197EF969FAF8EAFEF97892B09F082
:103DE0003ACF6CE271E080E090E03BC1212C312CB5
:103DF00054EF452E55245394910143E050E060E088
:103E000070E0C3010E94BD15B2016C597F4F882735
:103E100077FD8095982F0E94112DED966CAF7DAFA8
:103E20008EAF9FAFED97B201882777FD8095982FD1
:103E30000E94112DAB01BC011F929AE09F938AE072
:103E4000882E912CA12CB12C9CE5C92E9FE8D92E4F
:103E500092E8E92E9FE3F92EED960CAD1DAD2EAD47
:103E60003FADED97C3010E940716E5E64E0E511CCB
:103E7000FFEF2F1A3F0A0F900F9086EE481685E04D
:103E8000580609F0B9CF212C312C910143E050E0C4
:103E900060E070E0C3010E94BD15B2016C597F4F14
:103EA000882777FD8095982F0E94112DED966CAF95
:103EB0007DAF8EAF9FAFED97B201882777FD8095DC
:103EC000982F0E94112DAB01BC011F929AE09F9385
:103ED0001AE0812E912CA12CB12C0CE5C02E0FE8FC
:103EE000D02E02E8E02E0FE3F02EED960CAD1DADC6
:103EF0002EAD3FADED97C3010E940716E5E64E0ECD
:103F0000511CFFEF2F1A3F0A0F900F9088ED4816B3
:103F100089E0580609F0B9CF212C312C910143E0FA
:103F200050E060E070E0C3010E94BD15B20164562C
:103F30007109882777FD8095982F0E94112DED96A5
:103F40006CAF7DAF8EAF9FAFED97B201882777FD45
:103F50008095982F0E94112DAB01BC011F929AE011
:103F60009F93AAE08A2E912CA12CB12CBCE5CB2EDC
:103F7000BFE8DB2EB2E8EB2EBFE3FB2EED960CADD7
:103F80001DAD2EAD3FADED97C3010E940716E5E6CE
:103F90004E1A5108FFEF2F1A3F0A0F900F9086EE2E
:103FA000481685E0580609F0B9CF212C312C910133
:103FB00043E050E060E070E0C3010E94BD15B20133
:103FC00064567109882777FD8095982F0E94112DDE
:103FD000ED966CAF7DAF8EAF9FAFED97B2018827A6
:103FE00077FD8095982F0E94112DAB01BC011F9287
:103FF0009AE09F93EAE08E2E912CA12CB12CFCE547
:10400000CF2EFFE8DF2EF2E8EF2EFFE3FF2EED9636
:104010000CAD1DAD2EAD3FADED97C3010E9407164F
:10402000E5E64E1A5108FFEF2F1A3F0A0F900F9046
:1040300084EF481681E0580609F0B9CFEF96EEAD4F
:10404000FFADEF973197EF96FFAFEEAFEF97EF2B06
:1040500009F0CCCEC3010E94E30E64E670E080E07C
:1040600090E00E940E22BEC04FE050E060E070E0A1
:10407000C3010E94391590E4C92E96E0D92E2AE595
:10408000422E512CCE0101961C013AE5A32EB12CF3
:1040900044EB842E912CF10188E011928A95E9F786
:1040A000BA82A982BC82AB825E824D82C40184192D
:1040B000950998878F83A1016AE070E0C3010E948F
:1040C000CC10B601882777FD8095982F0E94112D7E
:1040D000AB01BC01EE24E394F12C0FE010E020E0F2
:1040E00030E0C3010E94D4159FEF491A590AE4E158
:1040F000CE0ED11CF6E94F16510469F64EE050E0A1
:1041000060E070E0C3010E943915A0EFAA2EAAE07A
:10411000BA2EB6E9CB2ED12C1AE5412E512C04EB48
:10412000802E912CF10188E011928A95E9F75A824C
:1041300049825C824B82DE82CD82C4018C199D094A
:1041400098878F83A1016AE070E0C3010E94CC10C0
:10415000B501882777FD8095982F0E94112DAB011E
:10416000BC01EE24E394F12C0FE010E020E030E0FD
:10417000C3010E94D41591E0C91AD108E4E1AE0E42
:10418000B11CFAE5CF16D10469F64BE050E060E0CF
:1041900070E0C3010E94391504E110E024EF31E022
:1041A00040E050E060E87FE3C3010E94C1136CE08F
:1041B00070E0C3010E94A1164CE050E060E070E0A6
:1041C000C3010E94391524EF31E040E050E060E87F
:1041D0007FE3C3010E94C113C3010E943513C301D1
:1041E0000E94E30E4BE050E060E070E0C3010E94EB
:1041F000391581C047E150E060E070E0C3010E94E2
:104200003915AE014F5D5F4F6CE271E0C3010E9452
:10421000CC10EE24E394F12C08EC10E020E030E028
:1042200040E050E061E674E4C3010E94D41548E127
:1042300050E060E070E0C3010E943915AE01475EB6
:104240005F4F6CE271E0C3010E94CC1008EC10E0FB
:1042500020E030E040E050E066E174E4C3010E94F9
:10426000D41544E150E060E070E0C3010E943915CC
:10427000AE014F5E5F4F6CE271E0C3010E94CC1053
:1042800008EC10E020E030E040E050E066E973E444
:10429000C3010E94D415AE01475F5F4F6CE271E02D
:1042A000C3010E94CC104AE150E060E070E0C3011D
:1042B0000E943915C3010E94B61008E918E020E0F9
:1042C00030E040E050E066E173E4C3010E94D415A1
:1042D00068E572E080E090E00E940E22C3010E9437
:1042E000E30E4BE050E060E070E0C3010E9439153E
:1042F000C3010E943513CE57DF4F0FB6F894DEBFCF
:104300000FBECDBFDF91CF911F910F91FF90EF9026
:10431000DF90CF90BF90AF909F908F907F906F90E5
:104320005F904F903F902F9008951F920F920FB67D
:104330000F9211242F933F938F939F93AF93BF932B
:104340008091D0069091D106A091D206B091D3066B
:104350003091CF0623E0230F2D3720F40196A11DC5
:10436000B11D05C026E8230F0296A11DB11D2093A3
:10437000CF068093D0069093D106A093D206B09337
:10438000D3068091D4069091D506A091D606B0911F
:10439000D7060196A11DB11D8093D4069093D50632
:1043A000A093D606B093D706BF91AF919F918F91FE
:1043B0003F912F910F900FBE0F901F9018952FB720
:1043C000F8946091D0067091D1068091D2069091B8
:1043D000D3062FBF08953FB7F8948091D4069091EB
:1043E000D506A091D606B091D70626B5A89B05C0E4
:1043F0002F3F19F00196A11DB11D3FBF6627782FF1
:10440000892F9A2F620F711D811D911D42E0660F49
:10441000771F881F991F4A95D1F70895CF92DF9291
:10442000EF92FF92CF93DF936B017C010E94EB210F
:10443000EB01C114D104E104F10489F00E940C2CB9
:104440000E94EB216C1B7D0B683E734090F381E072
:10445000C81AD108E108F108C851DC4FEACFDF9152
:10446000CF91FF90EF90DF90CF900895019739F0B2
:10447000880F991F880F991F02970197F1F70895E8
:10448000789484B5826084BD84B5816084BD85B52F
:10449000826085BD85B5816085BDEEE6F0E08081F6
:1044A00081608083E1E8F0E0108280818260808317
:1044B000808181608083E0E8F0E08081816080839A
:1044C000E1EBF0E0808184608083E0EBF0E08081CC
:1044D00081608083EAE7F0E080818460808380816E
:1044E0008260808380818160808380818068808316
:1044F0001092C10008958E3008F08E508770209180
:104500001E0190E4299F90011124822B80937C004E
:1045100080917A00806480937A0080917A0086FD91
:10452000FCCF809178002091790090E0922B089543
:10453000833081F028F4813099F08230A1F0089521
:104540008730A9F08830B9F08430D1F480918000B0
:104550008F7D03C0809180008F77809380000895C5
:1045600084B58F7702C084B58F7D84BD0895809116
:10457000B0008F7703C08091B0008F7D8093B00032
:104580000895CF93DF9390E0FC01E75EFE4F249106
:10459000FC01E35DFE4F8491882349F190E0880F90
:1045A000991FFC01EB5AFE4FA591B491855B9E4F7C
:1045B000FC01C591D4919FB7611108C0F8948C910A
:1045C000209582238C93888182230AC0623051F423
:1045D000F8948C91322F309583238C938881822B91
:1045E000888304C0F8948C91822B8C939FBFDF91B9
:1045F000CF9108950F931F93CF93DF931F92CDB761
:10460000DEB7282F30E0F901EB5FFE4F8491F9010E
:10461000E75EFE4F1491F901E35DFE4F0491002324
:10462000C9F0882321F069830E9498226981E02FD4
:10463000F0E0EE0FFF1FE55BFE4FA591B4919FB731
:10464000F8948C91611103C01095812301C0812BD6
:104650008C939FBF0F90DF91CF911F910F91089581
:10466000CF92DF92EF92FF920F931F93CF93DF933E
:1046700090E0FC01E75EFE4FD491FC01E35DFE4F4C
:104680007491611102C0C0E001C0CD2FDA01C901EF
:10469000BF70672F70E0660F771F6F5B7E4F00E083
:1046A00010E09801FB01E590F490F70140814D2363
:1046B0004C131EC0680179014FEFC41AD40AE40AF2
:1046C000F40A081719072A073B0709F442C09701A3
:1046D0008601E8CF68017901FFEFCF1ADF0AEF0A00
:1046E000FF0A081719072A073B0799F19701860166
:1046F000FB01E590F490F70140814D234C13EACF84
:10470000801B910BA20BB30B20E030E0A901FB0151
:10471000E590F490F701F080FD22FC120AC0281702
:1047200039074A075B07A9F02F5F3F4F4F4F5F4F95
:10473000EECFA8E1B0E00E94262F605F7F4F8F4F41
:104740009F4F24E096958795779567952A95D1F7A1
:1047500003C060E070E0CB01DF91CF911F910F911A
:10476000FF90EF90DF90CF900895FC01818D228D16
:1047700090E0805C9F4F821B91098F739927089569
:10478000FC01918D828D981731F0828DE80FF11D1B
:10479000858D90E008958FEF9FEF0895FC01918D36
:1047A000828D981761F0828DDF01A80FB11D5D9693
:1047B0008C91928D9F5F9F73928F90E008958FEF01
:1047C0009FEF089582E595E2892B49F080E090E023
:1047D000892B29F00E94522581110C940000089524
:1047E000FC01848DDF01A80FB11DA35ABF4F2C918E
:1047F000848D90E001968F739927848FA689B7895D
:104800002C93A089B1898C9180648C93938D848D35
:10481000981306C00288F389E02D80818F7D808304
:104820000895CF93DF93EC01888D8823C9F0EA893E
:10483000FB89808185FD05C0A889B9898C9186FD99
:104840000FC00FB607FCF5CF808185FFF2CFA88996
:10485000B9898C9185FFEDCFCE010E94F023E7CF7F
:10486000DF91CF910895CF92DF92FF920F931F9324
:10487000CF93DF931F92CDB7DEB76C01DC015B965F
:104880009C915B975C968C915C97981307C05096AF
:10489000ED91FC915197808185FD32C0F601038D29
:1048A00010E00F5F1F4F0F731127F02EF601848D5C
:1048B000F81211C00FB607FCF9CFD6015096ED9152
:1048C000FC915197808185FFF1CFC60169830E94D9
:1048D000F0236981EBCF838DE80FF11DE35AFF4F81
:1048E0006083D6015B960C935B975296ED91FC9199
:1048F000539780818062808381E058968C930DC0AD
:10490000D6015696ED91FC91579760835096ED91A4
:10491000FC91519780818064808381E090E00F90CA
:10492000DF91CF911F910F91FF90DF90CF9008956D
:10493000BF92CF92DF92EF92FF92CF93DF93EC0181
:104940006A017B01B22EE889F98982E080834115F2
:1049500081EE580761057105A1F060E079E08DE313
:1049600090E0A70196010E94DF2E215031094109F4
:1049700051095695479537952795211580E13807B8
:1049800098F0E889F989108260E874E88EE190E097
:10499000A70196010E94DF2E2150310941095109DA
:1049A0005695479537952795EC85FD853083EE859F
:1049B000FF852083188EEC89FD89B082EA89FB8906
:1049C000808180618083EA89FB898081886080831F
:1049D000EA89FB89808180688083EA89FB898081FC
:1049E0008F7D8083DF91CF91FF90EF90DF90CF900C
:1049F000BF9008951F920F920FB60F9211242F931C
:104A00008F939F93EF93FF93E091E806F091E9066F
:104A10008081E091EE06F091EF0682FD12C0908158
:104A20008091F1068F5F8F732091F206821751F00B
:104A3000E091F106F0E0E852F94F958F8093F1068E
:104A400001C08081FF91EF919F918F912F910F90E5
:104A50000FBE0F901F9018951F920F920FB60F92D6
:104A600011242F933F934F935F936F937F938F9373
:104A70009F93AF93BF93EF93FF9388ED96E00E94CF
:104A8000F023FF91EF91BF91AF919F918F917F9113
:104A90006F915F914F913F912F910F900FBE0F90AB
:104AA0001F90189588ED96E00E94B52321E0892B90
:104AB00009F420E0822F08951092DB061092DA06A6
:104AC00088EE93E0A0E0B0E08093DC069093DD06F2
:104AD000A093DE06B093DF0680E393E09093D906BF
:104AE0008093D80685EC90E09093E5068093E406E9
:104AF00084EC90E09093E7068093E60680EC90E0EB
:104B00009093E9068093E80681EC90E09093EB06A1
:104B10008093EA0682EC90E09093ED068093EC0699
:104B200086EC90E09093EF068093EE061092F106EB
:104B30001092F2061092F3061092F406089508956A
:104B40000E9440220E949F250E942C0AC2EED3E2BE
:104B50000E9430072097E1F30E94E223F9CFCF9221
:104B6000DF92EF92FF920F931F93CF93DF936C012D
:104B70007A01EB01E60EF71E00E010E0CE15DF052E
:104B800061F06991D601ED91FC910190F081E02DE9
:104B9000C6010995080F191FF1CFC801DF91CF9108
:104BA0001F910F91FF90EF90DF90CF9008956115C6
:104BB000710581F0DB010D900020E9F7AD01415056
:104BC0005109461B570BDC01ED91FC910280F381EA
:104BD000E02D099480E090E00895EF92FF920F930A
:104BE0001F93CF93DF938C01FB01C0E0D0E0649171
:104BF0007F018FEFE81AF80A662361F0D801ED9182
:104C0000FC910190F081E02DC8010995C80FD91FD2
:104C1000F701EDCFCE01DF91CF911F910F91FF9062
:104C2000EF9008950C94D725DC01ED91FC91019053
:104C3000F081E02D09940F931F93CF93DF93EC0144
:104C40006DE00E9414268C016AE0CE010E941426B9
:104C5000800F911FDF91CF911F910F9108950F93B6
:104C60001F93CF93DF93EC010E94ED258C01CE01C1
:104C70000E941B26800F911FDF91CF911F910F91F2
:104C800008958F929F92AF92BF92CF92DF92EF9250
:104C9000FF920F931F93CF93DF93CDB7DEB7A1970A
:104CA0000FB6F894DEBF0FBECDBF7C01C42EE52F3A
:104CB000CB01D22E19A221E02D1510F02AE0D22E20
:104CC0008E010F5D1F4F8D2C912CA12CB12C6C2DC2
:104CD0007E2FA50194010E94DF2E8C2DD29E80197B
:104CE0001124015011098A3014F4805D01C0895CDF
:104CF000F8018083211531054105510521F0C22EAF
:104D0000E32FCA01E4CFB801C7010E94D725A196BD
:104D10000FB6F894DEBF0FBECDBFDF91CF911F91CC
:104D20000F91FF90EF90DF90CF90BF90AF909F904A
:104D30008F900895CF92DF92EF92FF920F931F937F
:104D4000CF93DF93EC016A017B012115310579F4E2
:104D5000E881F9810190F081E02D642FDF91CF91FE
:104D60001F910F91FF90EF90DF90CF9009942A3020
:104D70003105E9F477FF1AC06DE20E9414268C0118
:104D800044275527BA014C195D096E097F092AE0AD
:104D9000CE010E944126800F911FDF91CF911F917C
:104DA0000F91FF90EF90DF90CF9008952AE0B70128
:104DB000A601CE01DF91CF911F910F91FF90EF904F
:104DC000DF90CF900C9441264F925F926F927F922A
:104DD0008F929F92AF92BF92CF92DF92EF92FF920B
:104DE0000F931F93CF93DF93EC016A017B01B22EE7
:104DF0009A01AB01C701B6010E942E2E882319F03B
:104E00006CE373E027C026013701E89477F82FEFB1
:104E10003FEF4FE75FE7C301B2010E942E2E8111E1
:104E20000DC02FEF3FEF4FE75FE7C301B2010E94D4
:104E3000722C18161CF460E473E00CC02FEF3FEFE7
:104E40004FE75FE4C701B6010E94C12D1816ACF40C
:104E500064E473E0CE01DF91CF911F910F91FF9039
:104E6000EF90DF90CF90BF90AF909F908F907F900A
:104E70006F905F904F900C94D7252FEF3FEF4FE747
:104E80005FECC701B6010E94722C87FDE1CF20E0E4
:104E900030E0A901C701B6010E94722C87FF0AC049
:104EA0006DE2CE010E9414268C01F7FAF094F7F817
:104EB000F09402C000E010E0A12C60E070E080E01F
:104EC0009FE3AB1441F020E030E040E251E40E9467
:104ED000762CA394F6CF9B01AC01C701B6010E94CA
:104EE0000E2C6B017C010E94E32C2B013C010E94E3
:104EF0000F2D9B01AC01C701B6010E940D2C6B0167
:104F00007C012AE0B301A201CE010E944126080FD4
:104F1000191FBB2039F068E473E0CE010E94D72549
:104F2000080F191F7B2C772041F120E030E040E290
:104F300051E4C701B6010E94C52D6B017C010E949E
:104F4000DE2C4B01AA2497FCA094BA2C2AE030E076
:104F5000B501A401CE010E949A26080F191FC501B0
:104F6000B4010E94112D9B01AC01C701B6010E9442
:104F70000D2C6B017C017A94D6CFC801DF91CF91C3
:104F80001F910F91FF90EF90DF90CF90BF90AF9067
:104F90009F908F907F906F905F904F9008950C94AA
:104FA000E4263F924F925F926F927F928F929F92F0
:104FB000AF92BF92CF92DF92EF92FF920F931F9327
:104FC000CF93DF9300D000D0CDB7DEB78B0129019E
:104FD0003A0190911F01981721F09F3F09F0DAC123
:104FE00004C0EFE5F1E0349081C080931F01EFE54C
:104FF000F1E0E491EF3F09F4CDC1E13031F1E2306D
:1050000009F44BC0E11171C014BC15BC94B5926099
:1050100094BD95B5916095BD282F30E0F901E35D11
:10502000FE4FE491F0E0EE0FFF1FE55BFE4F459170
:1050300054915093850740938407F901E75EFE4F32
:10504000249120938307312C53C01092800010923A
:1050500081009091810098609093810090918100EF
:10506000916090938100282F30E0F901E35DFE4FBD
:10507000E491F0E0EE0FFF1FE55BFE4F4591549188
:1050800050937E0740937D07F901E75EFE4F249120
:1050900020937C07332433942BC01092B0001092DD
:1050A000B1009091B00092609093B0009091B100E7
:1050B00091609093B100282F30E0F901E35DFE4F3D
:1050C000E491F0E0EE0FFF1FE55BFE4F4591549138
:1050D0005093770740937607F901E75EFE4F2491DE
:1050E0002093750752E0352E03C03E2E37FC52C187
:1050F00061E00E94C1224801A12CB12C832D8D7F3B
:1051000009F0C7C060E072E18AE790E0A501940170
:105110000E94012F29833A834B835C8369017A01C2
:1051200081E0C81AD108E108F1089FEFC916D1043F
:10513000E104F10409F008F49AC060E472E48FE03D
:1051400090E0A50194010E94012F69017A01E1E03C
:10515000CE1AD108E108F108F2E03F1219C08FEF32
:10516000C816D104E104F10409F008F48AC060E92A
:1051700070ED83E090E0A50194010E94012F690188
:105180007A0191E0C91AD108E108F10883E001C071
:1051900082E0EFEFCE16D104E104F10409F008F447
:1051A00067C068E478EE81E090E0A50194010E9478
:1051B000012F69017A01F1E0CF1AD108E108F10865
:1051C0003320E1F082E038121BC09FEFC916D104F2
:1051D000E104F10409F008F4DBC064E274EF80E05C
:1051E00090E0A50194010E94012F69017A01E1E09C
:1051F000CE1AD108E108F10885E003C083E001C0C0
:1052000084E0FFEFCF16D104E104F10489F180F1CD
:1052100062E17AE780E090E0A50194010E94012F0D
:1052200069017A0181E0C81AD108E108F10831105A
:1052300002C084E001C086E09FEFC916D104E104FA
:10524000F104B1F0A8F0C980DA80EB80FC809AE02C
:10525000F594E794D794C7949A95D1F7E1E0CE1AE4
:10526000D108E108F108332031F087E00BC081E07C
:10527000332011F007C085E095B5987F982B95BD38
:1052800038C082E09091B100987F982B9093B10044
:1052900030C060E072E18AE790E0A50194010E94CD
:1052A000012F69017A01F1E0CF1AD108E108F10874
:1052B000C114D10481E0E806F10488F068E478EED6
:1052C00081E090E0A50194010E94012F69017A011B
:1052D00091E0C91AD108E108F10893E001C091E01A
:1052E000E1E03E1206C080918100887F892B809387
:1052F0008100411451046104710471F0D801AA0FB6
:10530000BB1FA30192010E94262F28EE33E040E04C
:1053100050E00E94DF2E03C02FEF3FEFA901F1E024
:105320003F16A1F082E0381619F1311033C0C7BC26
:105330002093860730938707409388075093890707
:1053400080916E00826080936E0024C0D0928900AC
:10535000C092880020937F07309380074093810795
:105360005093820780916F00826080936F0012C01B
:10537000C092B300209378073093790740937A075F
:1053800050937B078091700082608093700002C010
:1053900084E078CF0F900F900F900F90DF91CF9116
:1053A0001F910F91FF90EF90DF90CF90BF90AF9043
:1053B0009F908F907F906F905F904F903F90089557
:1053C000813039F018F0823051F0089510926E005B
:1053D000089580916F008D7F80936F000895809174
:1053E00070008D7F8093700081E08093B000809189
:1053F000B100887F84608093B1001092B30008955B
:10540000CF93C82F80911F018C1307C0EFE5F1E007
:1054100084919FEF90931F0101C08FEF0E94E029BC
:1054200060E08C2FCF910C94FA221F920F920FB64E
:105430000F9211242F933F934F935F936F937F931A
:105440008F939F93AF93BF93EF93FF9380917807D0
:1054500090917907A0917A07B0917B07892B8A2BCD
:105460008B2B51F190917507E0917607F0917707BA
:105470008081892780838091780790917907A09116
:105480007A07B0917B07181619061A061B06C4F492
:105490008091780790917907A0917A07B0917B0766
:1054A0000197A109B1098093780790937907A09398
:1054B0007A07B0937B0704C080911F010E94002AE5
:1054C000FF91EF91BF91AF919F918F917F916F91DC
:1054D0005F914F913F912F910F900FBE0F901F90B2
:1054E0001895009729F0BC0180E090E00C94942F6F
:1054F00008954F925F926F927F92AF92BF92CF9238
:10550000DF92EF92FF920F931F93CF93DF93CDB76C
:10551000DEB729013A01621B730B840B950B2989B5
:105520003A894B895C892A193B094C095D09298B09
:105530003A8B4B8B5C8B9B01AC0169897A898B8997
:105540009C890E94AF2EE418F50806091709A801E6
:1055500097010E94012F2A0D3B1D4C1D5D1DCA01A4
:10556000B901DF91CF911F910F91FF90EF90DF90E4
:10557000CF90BF90AF907F906F905F904F900895C5
:10558000CF92DF92EF92FF920F931F93CF93DF930F
:10559000EC010E94DF216BA37CA38DA39EA30F8D42
:1055A00018A129A13AA16B017C01C01AD10AE20A13
:1055B000F30A0D8D1E8D20E030E00C151D052E0523
:1055C0003F0534F46F8F78A389A39AA381E001C0CB
:1055D00080E0DF91CF911F910F91FF90EF90DF90CE
:1055E000CF900895CF92DF92FF920F931F93CF93A6
:1055F000DF9300D0CDB7DEB76C01F42E69837A83D8
:105600000E94C80D69817A81811135C0C6010E944E
:105610001C0D6AE570E0C6010E94630D8EE190E00A
:10562000F601968F858F80ED97E09087878300E065
:1056300010E024E832E4018F128F238F348F0AE1C7
:1056400018EF22EC3DE3058B168B278B308F178EDE
:1056500010A211A212A28DE290E094838383118A9A
:10566000128A138A148A1186128613861486168269
:10567000158217A2F0A60F900F90DF91CF911F9186
:105680000F91FF90DF90CF900895CF93DF93EC01BF
:105690000E94C80D882329F0CE01DF91CF910C9490
:1056A000220DDF91CF910895CF93DF93EC01CB01D1
:1056B00078876F836D8D7E8D0E94CB2E80E090E089
:1056C0000E940F2D9B01AC01698F7A8F8B8F9C8F6D
:1056D0006BED7FE089EC90E40E94762C6D8B7E8BE5
:1056E0008F8B988FDF91CF910895FC0127853089AA
:1056F000620F731F0C94630DCF92DF92EF92FF92B3
:105700000F931F93CF93DF9300D000D0CDB7DEB7B8
:105710008C010E94C02A882309F471C0F80187A176
:1057200081115DC0218532854385548561897289E7
:10573000838994890E940E2C0E94282E9B01AC0123
:10574000F8016381748180E090E029833A834B8380
:105750005C830E940F2D29813A814B815C810E94DC
:10576000C52D6B017C01F8016581768180E090E0B8
:105770000E940F2D9B01AC01C701B6010E940E2CA7
:105780006B017C0120E030E0A9010E94C12D20E0E6
:1057900030E040E05FE387FD05C0C701B6010E942D
:1057A0000E2C04C0C701B6010E940D2C0E94DE2CF5
:1057B000F8017687658780A5882329F07195619522
:1057C000710976876587F80165857685665A7F4F0A
:1057D00087859089680F791FC8010E94630DF801C1
:1057E000258936894789508D618972898389948991
:1057F0000E940E2CF801618B728B838B948B0F901F
:105800000F900F900F90DF91CF911F910F91FF900C
:10581000EF90DF90CF90089508955058BB27AA27A6
:105820000ED075C166D130F06BD120F031F49F3FBE
:1058300011F41EF45BC10EF4E095E7FB51C1E92FB2
:1058400077D180F3BA17620773078407950718F0BA
:1058500071F49EF58FC10EF4E0950B2EBA2FA02D9A
:105860000B01B90190010C01CA01A0011124FF270D
:10587000591B99F0593F50F4503E68F11A16F04008
:10588000A22F232F342F4427585FF3CF4695379507
:105890002795A795F0405395C9F77EF41F16BA0BCC
:1058A000620B730B840BBAF09150A1F0FF0FBB1F7A
:1058B000661F771F881FC2F70EC0BA0F621F731FC3
:1058C000841F48F4879577956795B795F7959E3F20
:1058D00008F0B3CF9395880F08F09927EE0F9795AE
:1058E00087950895D9D008F481E008950CD00FC1B0
:1058F00007D140F0FED030F021F45F3F19F0F0C046
:10590000511139C1F3C014D198F39923C9F3552328
:10591000B1F3951B550BBB27AA27621773078407A2
:1059200038F09F5F5F4F220F331F441FAA1FA9F358
:1059300033D00E2E3AF0E0E830D091505040E6954A
:10594000001CCAF729D0FE2F27D0660F771F881FAB
:10595000BB1F261737074807AB07B0E809F0BB0B9A
:10596000802DBF01FF2793585F4F2AF09E3F5105BE
:1059700068F0B6C000C15F3FECF3983EDCF386955B
:1059800077956795B795F7959F5FC9F7880F911D34
:105990009695879597F90895E1E0660F771F881F20
:1059A000BB1F621773078407BA0720F0621B730BD3
:1059B000840BBA0BEE1F88F7E095089504D0689425
:1059C000B111D9C00895BCD088F09F5790F0B92F7D
:1059D0009927B751A0F0D1F0660F771F881F991F44
:1059E0001AF0BA95C9F712C0B13081F0C3D0B1E056
:1059F0000895C0C0672F782F8827B85F39F0B93F66
:105A0000CCF3869577956795B395D9F73EF4909545
:105A10008095709561957F4F8F4F9F4F0895E894C3
:105A200009C097FB3EF490958095709561957F4FE6
:105A30008F4F9F4F9923A9F0F92F96E9BB27939594
:105A4000F695879577956795B795F111F8CFFAF4A4
:105A5000BB0F11F460FF1BC06F5F7F4F8F4F9F4FD5
:105A600016C0882311F096E911C0772321F09EE833
:105A7000872F762F05C0662371F096E8862F70E099
:105A800060E02AF09A95660F771F881FDAF7880F73
:105A90009695879597F90895990F0008550FAA0BC9
:105AA000E0E8FEEF16161706E807F907C0F0121631
:105AB0001306E407F50798F0621B730B840B950B34
:105AC00039F40A2661F0232B242B252B21F4089589
:105AD0000A2609F4A140A6958FEF811D811D089526
