:100000000C94B2000C9450020C9477020C949E0253
:100010000C9401030C9464030C94DA000C94352ABC
:100020000C94DA000C94DA000C94DA000C94B00C06
:100030000C94DA000C94DA000C94DA000C94DA00D8
:100040000C9444220C94DA000C941A250C944C2540
:100050000C94DA000C94DA000C94DA000C94DA00B8
:100060000C94DA000C94DA0067178E17B817F117A2
:100070000A18231849187D18B618EF1823195019B3
:100080007A19AB19DB19F419461A5F1A7D1A6F1B1E
:10009000971BD21B641C111D8E1DA31DC61D781E2F
:1000A000681B611BE320A92105A84CCDB2D44EB931
:1000B0003836A9020C50B9918688083CA6AAAA2A0B
:1000C000BE000000803F252500460026260025258D
:1000D000004100262600252500492000262600256F
:1000E0002500422000262600252500452000262642
:1000F00000000102030405060700010203040500D5
:1001000001020304050000000800020100000304CE
:100110000700000000000000000102040810204059
:1001200080010204081020010204081020040404C5
:100130000404040404020202020202030303030390
:100140000300000000230026002900000000002515
:100150000028002B0000000000240027002A0002D5
:10016000B4067C2511241FBECFEFD8E0DEBFCDBF83
:1001700013E0A0E0B1E0E8EDF0E602C005900D92DA
:10018000A035B107D9F727E0A0E5B3E001C01D9283
:10019000AF38B207E1F711E0C4E6D1E004C022971E
:1001A000FE010E94822FC036D107C9F70E94C025E8
:1001B0000C946A300C94000081E080935503909178
:1001C000560391110BC08093560321E04FE050E09D
:1001D00060E070E089E593E00C947C16089581E07E
:1001E000809354039091560391110BC08093560352
:1001F00021E04FE050E060E070E089E593E00C948E
:100200007C160895A82FAF7787FD05C08EEF8A0F63
:10021000823008F499C0B0E0FD01E75EFE4F249102
:10022000FD01E35DFE4F8491942F9D7F9130B9F4E1
:10023000823031F490919B06922B90939B060FC0D5
:10024000833031F490918C06922B90938C0607C0EA
:10025000843029F490917906922B9093790641503D
:100260004230B8F4823031F490919A06922B9093F8
:100270009A060FC0833031F490918B06922B9093A5
:100280008B0607C0843029F490917806922B9093C6
:100290007806FD01EF50FF4FA4918230C1F4B0E029
:1002A000AA0FBB1FA456B94F6D937C93E5E4F1E010
:1002B000A591B4918C91809399068BE690E09093F0
:1002C000AD068093AC0680916800816033C08330B6
:1002D000C1F4B0E0AA0FBB1FA357B94F6D937C9335
:1002E000E7E4F1E0A591B4918C9180938A068CE6C5
:1002F00090E09093AD068093AC0680916800826098
:1003000019C08430C9F4B0E0AA0FBB1FA658B94F7A
:100310006D937C93E9E4F1E0A591B4918C91809385
:1003200077068DE690E09093AD068093AC068091C1
:100330006800846080936800A091AC06B091AD061F
:100340008C91822B8C9316C09FB7F894A230B1F495
:100350007093A9066093A806E898809169008C7F45
:100360008093690080916900842B80936900E09AF2
:10037000E89A9FBF8FB780688FBF08957093AB06D0
:100380006093AA06E99880916900837F8093690051
:100390008091690024E0429FA0011124842B809366
:1003A0006900E19AE99AE5CF3FB7F894982F9F77D3
:1003B00087FD05C08EEF890F823008F45EC0892F5B
:1003C00090E0FC01E75EFE4F2491FC01E35DFE4FEF
:1003D00084918230D1F480916B00209582238093A8
:1003E0006B0080916B00811105C0809168008E7F49
:1003F0008093680080919B06822380939B06809166
:100400009A06822380939A0641C08330D1F480916A
:100410006C002095822380936C0080916C00811188
:1004200005C0809168008D7F8093680080918C0664
:10043000822380938C0680918B06822380938B0687
:1004400025C0843019F580916D002095822380931A
:100450006D0080916D00811105C0809168008B7FD7
:100460008093680080917906822380937906809139
:10047000780682238093780609C0923049F4E89880
:10048000809169008C7F80936900E09A3FBF089556
:10049000E99880916900837F80936900E19AF6CFA3
:1004A0001F920F920FB60F9211242F933F934F93E9
:1004B0005F936F937F938F939F93AF93BF93EF93CC
:1004C000FF93E091A806F091A9060995FF91EF919D
:1004D000BF91AF919F918F917F916F915F914F915C
:1004E0003F912F910F900FBE0F901F9018951F9264
:1004F0000F920FB60F9211242F933F934F935F9358
:100500006F937F938F939F93AF93BF93EF93FF93DB
:10051000E091AA06F091AB060995FF91EF91BF918A
:10052000AF919F918F917F916F915F914F913F918B
:100530002F910F900FBE0F901F9018951F920F9242
:100540000FB60F9211242F933F934F935F936F93A6
:100550007F938F939F93AF93BF93CF93EF93FF932B
:1005600093B1C091990620919B0630919A06892FEC
:10057000809583232923822B20916B00C927C223D6
:10058000C82390939906CC2351F1C0FF05C0E09198
:100590009C06F0919D060995C1FF05C0E0919E065D
:1005A000F0919F060995C2FF05C0E091A006F09169
:1005B000A1060995C3FF05C0E091A206F091A3062C
:1005C0000995C4FF05C0E091A406F091A506099520
:1005D000C5FF05C0E091A606F091A7060995FF9119
:1005E000EF91CF91BF91AF919F918F917F916F913B
:1005F0005F914F913F912F910F900FBE0F901F90E1
:1006000018951F920F920FB60F9211242F933F93BC
:100610004F935F936F937F938F939F93AF93BF930A
:10062000CF93EF93FF9396B1C0918A0620918C06E9
:1006300030918B06892F809583232923822B20914B
:100640006C00C927C223C82390938A06CC2351F19A
:10065000C0FF05C0E0918D06F0918E060995C1FF9F
:1006600005C0E0918F06F09190060995C2FF05C084
:10067000E0919106F09192060995C3FF05C0E091C3
:100680009306F09194060995C4FF05C0E091950684
:10069000F09196060995C5FF05C0E0919706F09187
:1006A00098060995FF91EF91CF91BF91AF919F91DE
:1006B0008F917F916F915F914F913F912F910F900B
:1006C0000FBE0F901F9018951F920F920FB60F92AA
:1006D00011242F933F934F935F936F937F938F9347
:1006E0009F93AF93BF93CF93EF93FF9399B1C09133
:1006F00077062091790630917806892F809583239B
:100700002923822B20916D00C927C223C8239093EF
:100710007706CC23C1F1C0FF05C0E0917A06F091C5
:100720007B060995C1FF05C0E0917C06F0917D062E
:100730000995C2FF05C0E0917E06F0917F060995FC
:10074000C3FF05C0E0918006F09181060995C4FFC2
:1007500005C0E0918206F09183060995C5FF05C0AA
:10076000E0918406F09185060995C6FF05C0E091E9
:100770008606F09187060995C7FF05C0E0918806B7
:10078000F09189060995FF91EF91CF91BF91AF91BB
:100790009F918F917F916F915F914F913F912F9199
:1007A0000F900FBE0F901F9018952F923F924F926F
:1007B0005F926F927F928F929F92AF92BF92CF92F1
:1007C000DF92EF92FF920F931F93CF93DF9300D0AE
:1007D00000D000D0CDB7DEB79C838B831A821982FC
:1007E00029813A818B819C81281739070CF0DBC065
:1007F000809156038111D7C0612C712C00E911E062
:1008000080915603811143C0930142E050E060E0C3
:1008100070E089E593E00E946C1698012C593F4FD7
:100820003E832D83B901882777FD8095982F0E94FC
:10083000712D1B012C01B801882777FD8095982F19
:100840000E94712DAB01BC011F923AE03F931AE068
:10085000812E912CA12CB12C08EBC02E0EE1D02EB4
:1008600005E8E02E0FE3F02E9201810189E593E087
:100870000E94B6168FEF681A780A0F900F90ED81DC
:10088000FE81E83E23E0F20721F08F01B9CF1E83FD
:100890000D8380915603811134C089E593E00E9455
:1008A00081166D817E816C597F4F882777FD8095F9
:1008B000982F0E94712D2B013C016D817E81645621
:1008C0007109882777FD8095982F0E94712DAB01C3
:1008D000BC011F923AE03F93AAE08A2E912CA12CF2
:1008E000B12CB8EBCB2EBEE1DB2EB5E8EB2EBFE38F
:1008F000FB2E9301820189E593E00E94B6160F90CA
:100900000F90612C712C80915603811146C0930188
:1009100042E050E060E070E089E593E00E946C16F0
:100920006D817E816C597F4F882777FD8095982F48
:100930000E94712D1B012C01ED81FE81BF018827D2
:1009400077FD8095982F0E94712DAB01BC011F92FD
:10095000FAE0FF93EAE08E2E912CA12CB12CF8EB5B
:10096000CF2EFEE1DF2EF5E8EF2EFFE3FF2E920102
:10097000810189E593E00E94B6162D813E812456BF
:1009800031093E832D833FEF631A730A0F900F9056
:1009900086E06816710409F0B6CFE981FA813196D4
:1009A000FA83E9831DCF80915603811127C06CE241
:1009B00071E080E090E00E94BD2221E04BE050E039
:1009C00060E070E089E593E026960FB6F894DEBF0C
:1009D0000FBECDBFDF91CF911F910F91FF90EF9090
:1009E000DF90CF90BF90AF909F908F907F906F904F
:1009F0005F904F903F902F900C947C1626960FB6E8
:100A0000F894DEBF0FBECDBFDF91CF911F910F9144
:100A1000FF90EF90DF90CF90BF90AF909F908F901E
:100A20007F906F905F904F903F902F9008958F929E
:100A30009F92AF92BF92CF92DF92EF92FF920F936D
:100A40001F93CF9389E593E00E94841520E030E066
:100A500044E352E40E94D22C87FF54C0C3E080914B
:100A6000560381114FC021E04CE150E060E070E09E
:100A700089E593E00E947C161F92CF9388E0882E30
:100A8000912CA12CB12C98EBC92E9EE1D92E95E882
:100A9000E92E9FE3F92E00E010E02AEF34E440E075
:100AA00050E06CE574E489E593E00E94B6166EE1CF
:100AB00070E080E090E00E94BD221F92CF932CE571
:100AC000C22E2FE8D22E22E8E22E2FE3F22E00E0F3
:100AD00010E02CE534E440E050E06AEF74E489E58E
:100AE00093E00E94B61689E593E00E94811664EFB8
:100AF00071E080E090E00E94BD220F900F900F9077
:100B00000F90ADCFCF911F910F91FF90EF90DF909D
:100B1000CF90BF90AF909F908F9008954F925F922B
:100B20006F927F928F929F92AF92BF92CF92DF92FD
:100B3000EF92FF920F931F93CF93DF93CDB7DEB762
:100B400028970FB6F894DEBF0FBECDBF88E0EAE26B
:100B5000F1E0DE01119601900D928A95E1F7809106
:100B60005603811109C0AE014F5F5F4F6CEB72E01D
:100B700089E593E00E947F1154E0652E712C6AE0B4
:100B8000562E44244394809156038823A1F08091EB
:100B900056038111C1C021E043E150E060E070E004
:100BA00089E593E00E947C1669E070E089E593E0B6
:100BB0000E945017B1C020E030E041E050E060E01A
:100BC00070E089E593E00E946C161F925F923AE014
:100BD000832E912CA12CB12C48EBC42E4EE1D42EA7
:100BE00045E8E42E4FE3F42E00E010E028E433E47F
:100BF00040E050E068EC72E489E593E00E94B616AC
:100C0000809156030F900F908111C1CF21E030E009
:100C100041E050E060E070E089E593E00E946C16EE
:100C20001F925F9200E010E026E933E440E050E0DC
:100C300068E473E489E593E00E94B6168091560358
:100C40000F900F908111A3CF22E030E041E050E0FF
:100C500060E070E089E593E00E946C161F925F925D
:100C600000E010E02AEF33E440E050E066E973E48E
:100C700089E593E00E94B61664EF71E080E090E0B1
:100C80000E94BD22809156030F900F9081117FCF5B
:100C900021E030E041E050E060E070E089E593E081
:100CA0000E946C161F924F9200E010E02AE733E496
:100CB00040E050E068EC73E489E593E00E94B616EA
:100CC000809156030F900F90811161CF20E030E0AA
:100CD00041E050E060E070E089E593E00E946C162E
:100CE0001F924F9200E010E028EC32E440E050E028
:100CF0006AE773E489E593E00E94B61664EF71E059
:100D000080E090E00E94BD2281E0681A71080F9097
:100D10000F9009F038CF3BCF89E593E00E94E813AC
:100D200080915603811109C021E04BE050E060E062
:100D300070E089E593E00E947C1628960FB6F8943F
:100D4000DEBF0FBECDBFDF91CF911F910F91FF90FE
:100D5000EF90DF90CF90BF90AF909F908F907F905B
:100D60006F905F904F900895CF93DF938EE394E060
:100D70000E94AC0F2CE04DE06BE089E593E00E940F
:100D8000680F80E693E00E94C10EC1E6D3E0CE0179
:100D90000E946C0D188A1F86A99684E0C530D8077A
:100DA000B1F785E094E0DF91CF910C941C0F8F9206
:100DB0009F92AF92BF92CF92DF92EF92FF920F93EA
:100DC0001F93CF93DF938DED96E00E94D5231816E5
:100DD00019063CF48091570390915803049709F049
:100DE000FAC280915603882341F189E593E00E947D
:100DF000E81364E670E080E090E00E94BD2262E0CB
:100E000070E089E593E00E94501768EC70E080E0A4
:100E100090E00E94BD2280915503882309F4F3C21B
:100E2000809154038111EFC281E090E090935803C8
:100E30008093570363E070E03AC380915703909129
:100E400058038230910509F4C8C12CF40097D1F001
:100E50000197C9F1B9C28330910509F433C20497EF
:100E600009F0B2C28EE394E0DF91CF911F910F9110
:100E7000FF90EF90DF90CF90BF90AF909F908F90BA
:100E80000C94F90F0E948E22C0905003D090510311
:100E9000E0905203F09053036C197D098E099F096D
:100EA000603878438140910508F406C30E948E059E
:100EB0000E948E22609350037093510380935203DB
:100EC00090935303F9C262E370E080E090E00E94E7
:100ED000BD2289E593E00E945B15883A92400CF4AC
:100EE000EBC262E370E080E090E00E94BD2282E00D
:100EF00090E00E94D50323E030E040E050E061E064
:100F000070E080E090E00E94BD2A8091560361303D
:100F10007105B9F5811118C00EE1E02EF12C02E344
:100F200010E020E030E044EA50ED64E274E489E54A
:100F300093E00E94831621E049E150E060E070E018
:100F400089E593E00E947C16809156038111F3C0DD
:100F50006BE070E089E593E00E94501704E110E037
:100F600020E233E040E050E060E87FE389E593E091
:100F70000E9423146CE070E089E593E00E94501712
:100F8000DAC0811111C044E151E06CE271E089E501
:100F900093E00E947F1121E04AE150E060E070E0C0
:100FA00089E593E00E947C1680915603811159C017
:100FB000BEE1EB2EF12C04E610E020E030E040E052
:100FC00050E06CE574E489E593E00E9483161F927B
:100FD00084E08F93C7E08C2E912CA12CB12CDCE502
:100FE000CD2EDFE8DD2ED2E8ED2EDFE3FD2E0FE182
:100FF00015ED22E934E440E050E06CE574E489E565
:1010000093E00E94B6161F92C1E0CF931AE0812EA2
:10101000912CA12CB12C0CE51FEF23EC34E44FE113
:1010200055ED62E974E489E593E00E94B6161F92DB
:10103000CF9300E010E02CE534E44CE55FEF63EC87
:1010400074E489E593E00E94B6166FE070E080E0FA
:1010500090E00E94BD220F900F900F900F900F9084
:101060000F908091560381112CC01F9284E08F93C2
:10107000F4E18F2E912CA12CB12CACE5CA2EAFE857
:10108000DA2EA2E8EA2EAFE3FA2E04EA10ED24E20B
:1010900034E440E050E06CE574E489E593E00E94BC
:1010A000B61660E971E080E090E00E94BD224CE05D
:1010B00051E068EC70E089E593E00E947F110F90A9
:1010C0000F9080915603811136C01F92C4E0CF93D8
:1010D00074E1872E912CA12CB12CECE5CE2EEFE8FB
:1010E000DE2EE2E8EE2EEFE3FE2E0FE115ED22E913
:1010F00034E440E050E06CE574E489E593E00E945C
:10110000B61644E051E068EC70E089E593E00E9497
:101110007F111F92CF9304EA10ED24E234E440E003
:1011200050E06CE574E489E593E00E94B6160F90F8
:101130000F900F900F9089E593E00E94E813809143
:101140005603811106C060ED77E080E090E00E94D8
:10115000BD228091560381110AC089E593E00E9467
:10116000811664EF71E080E090E00E94BD228091E2
:10117000560381110FC021E04BE150E060E070E0C8
:1011800089E593E00E947C166DE070E089E593E0CC
:101190000E9450178091560381118EC189E593E01A
:1011A0000E94811668EC70E080E090E00E94BD2211
:1011B00021E04BE150E060E070E089E593E0DF91F1
:1011C000CF911F910F91FF90EF90DF90CF90BF9044
:1011D000AF909F908F900C947C1662E370E080E05B
:1011E00090E00E94BD2289E593E00E945B15883A59
:1011F00092400CF461C162E370E080E090E00E94F4
:10120000BD2281E090E00E94D50327E030E040E07D
:1012100050E061E070E080E090E00E94BD2A6B0148
:101220002091560321111EC0AB01662757FD609522
:10123000762F21E089E593E00E947C1681E0C816B4
:10124000D10419F46EE070E009C026E0C216D104A2
:1012500019F46CE070E002C060E070E089E593E0B2
:101260000E945017C4E0D0E0EE24D7FCE094FE2C9E
:101270008091560381110AC089E593E00E9481168E
:1012800068EC70E080E090E00E94BD2280915603FF
:1012900081110DC021E0B701A60189E593E00E940C
:1012A0007C1668EC70E080E090E00E94BD222197FF
:1012B000F9F68091560381117AC06CEF78E080E0F6
:1012C00090E073C062E370E080E090E00E94BD2295
:1012D00089E593E00E945B15883A92400CF4ECC0DB
:1012E00062E370E080E090E00E94BD2223E030E005
:1012F00040E050E060E070E0CB010E94BD2A613028
:10130000710581059105F1F0623071058105910546
:1013100069F1672B682B692B09F03FC08091560358
:1013200081113BC04091240150912501609126011B
:101330007091270120E089E593E00E947C1660E12E
:1013400070E027C080915603811127C04091200191
:1013500050912101609122017091230120E089E5E3
:1013600093E00E947C1668E070E013C08091560301
:10137000811113C040911C0150911D0160911E010B
:1013800070911F0120E089E593E00E947C1669E0DE
:1013900070E089E593E00E94501780915603811117
:1013A00006C064EC79E080E090E00E94BD2280916C
:1013B00056038111DCCE89E593E00E94811664E634
:1013C00070E080E090E0D1CE84E090E0909358030C
:1013D0008093570371C084E090E09093580380930A
:1013E000570321E04BE050E060E070E089E593E0D6
:1013F0000E947C1686E00E94D40187E00E94D401FE
:1014000010925603EECC8091550381110DC080914E
:101410005403882349F082E090E09093580380932E
:10142000570364E070E043C080915503882321F0A6
:1014300080915403811133C0409157035091580358
:10144000662757FD6095762F21E089E593E00E949D
:101450007C16C8ECD0E06AE070E080E090E00E948A
:10146000BD222197C1F721E04BE150E060E070E040
:1014700089E593E00E947C166DE070E089E593E0D9
:101480000E94501768EC70E080E090E00E94BD225E
:101490001092560310925503109254030DC083E02E
:1014A00090E0909358038093570365E070E089E5DE
:1014B00093E00E945017C0CFDF91CF911F910F9101
:1014C000FF90EF90DF90CF90BF90AF909F908F9064
:1014D0000895CF92DF92EF92FF920F931F93CF93D5
:1014E000DF93CDB7DEB72B970FB6F894DEBF0FBEF4
:1014F000CDBF89E593E00E94E81319821A821B820E
:101500001C82FE01359687E0DF011D928A95E9F77E
:101510008E010F5F1F4F85E0E82EF12C6801C70197
:101520000E944930F80181938F01FFEFEF1AFF0A03
:1015300080E1E816F10499F76EEE70E08DED96E02B
:101540000E940D266BEE70E08DED96E00E940D2658
:10155000B6018DED96E00E94322668EE70E08DEDCA
:1015600096E00E944F268DED96E00E9431242B9646
:101570000FB6F894DEBF0FBECDBFDF91CF911F91A4
:101580000F91FF90EF90DF90CF900895CF92DF9270
:10159000EF92FF9289E593E00E94E81389E593E0DA
:1015A0000E9484156B017C0165EE70E08DED96E084
:1015B0000E940D2662EE70E08DED96E00E940D26F1
:1015C00022E030E0B701A6018DED96E00E94EF2702
:1015D0006FED70E08DED96E00E944F268DED96E068
:1015E000FF90EF90DF90CF900C94312489E593E049
:1015F0000E94E8136CED70E08DED96E00E940D26E0
:1016000069ED70E08DED96E00E940D2660E273E0DA
:101610008DED96E00E94322666ED70E08DED96E04D
:101620000E944F268DED96E00C9431248F929F926C
:10163000AF92BF92CF92DF92EF920F931F93CF930F
:10164000DF9326E040E052EC61E070E08DED96E043
:101650000E94B82460E086E00E94662360E087E094
:101660000E9466231F9289E08F9398E0892E912C27
:101670002AE0A22EB12C34E1C32ED12CEE24E39427
:1016800005E010E024E030E043E050E062E070E08C
:1016900089E593E00E94ED1084E10E9420230E94DE
:1016A000912A43E06CED70E086E00E94020143E085
:1016B0006FEE70E087E00E9402014BE35CE066E1C0
:1016C00073E08EE394E00E94C10F43E45CE068E1C4
:1016D00073E08EE394E00E94C10F49E65AE06AE1AC
:1016E00073E08EE394E00E94C10F46EC5AE06CE197
:1016F00073E08EE394E00E94C10F46EF5AE06EE182
:1017000073E08EE394E00E94C10F6BE37CE08EE314
:1017100094E00E94F30F60E070E089E593E00E949E
:10172000501789E593E00E94E8130E94690A62E37A
:1017300070E080E090E00E94BD220E94F60A62E321
:1017400070E080E090E00E94BD220E94C60A0E94E4
:1017500017050F900F9002E010E0C0E0D0E08091FC
:101760005603882321F001501109B9F713C09E01D7
:1017700040E050E0BA0189E593E00E946C1666E90A
:1017800070E080E090E00E94BD222196C830D10533
:1017900031F7E9CF80915603811112C060E070E00B
:1017A00089E593E00E94B71A6BE070E089E593E069
:1017B0000E94501768EC70E080E090E00E94BD222B
:1017C00080915603811109C021E04BE050E060E0B8
:1017D00070E089E593E00E947C160E948E2260935F
:1017E0005003709351038093520390935303DF91FE
:1017F000CF911F910F91EF90DF90CF90BF90AF905E
:101800009F908F9008956EE170E080E090E00E94DC
:10181000BD2263ED70E08DED96E00E940D2661ED36
:1018200070E08DED96E00E940D266EEC70E08DED7F
:1018300096E00E944F268DED96E00C9431246EE1E7
:1018400070E080E090E00E94BD226BEC70E08DEDD6
:1018500096E00E940D2669EC70E08DED96E00E9406
:101860000D2666EC70E08DED96E00E944F268DED22
:1018700096E00C9431240E94030C89E593E00E94C9
:10188000E8130C941F0CEF92FF920F931F93CF93CA
:10189000DF93CDB7DEB72C970FB6F894DEBF0FBE3F
:1018A000CDBF0E94030C89E593E00E94E8131982E2
:1018B0001A821B821C82FE01359687E0DF011D9291
:1018C0008A95E9F78EE394E00E94B70F009739F10B
:1018D000DC01FE0131963E2F4F2FCE010C962D914B
:1018E000211105C0E32EF42E05E010E00AC0E81730
:1018F000F907C1F32193F3CF0F5F1F4F003111059B
:1019000009F1F70161917F01C8016C870E9449309C
:101910006C85681789F3C8010E945130EDCF21E032
:101920004AE150E060E070E089E593E00E947C16B7
:1019300060ED77E080E090E00E94BD2289E593E0D1
:101940000E9481162C960FB6F894DEBF0FBECDBF55
:10195000DF91CF911F910F91FF90EF900C941F0C8E
:101960001F920F920FB60F9211242F933F934F9314
:101970005F936F937F938F939F93AF93BF93EF93F7
:10198000FF938091AF0687FF05C0109285001092EB
:1019900084001AC02091AF06332727FD309580912F
:1019A000AE0690E0281739077CF48091AF0699279E
:1019B00087FD9095FC01EE0FFF1FE80FF91FE05522
:1019C000F94F808186FD15C08091AF068F5F8093AF
:1019D000AF062091AF06332727FD30958091AE06E4
:1019E00090E028173907BCF48091AF068C305CF189
:1019F00012C08091AF06992787FD9095FC01EE0FEC
:101A0000FF1FE80FF91FE055F94F808160E08F73E9
:101A10000E949F23D9CF80918400909185000496E5
:101A200080349C4918F480E49CE905C080918400CE
:101A300090918500049690938900809388008FEFA1
:101A40008093AF0638C0209184003091850080914A
:101A5000AF06992787FD9095FC01EE0FFF1FE80F59
:101A6000F91FE055F94F81819281820F931F909366
:101A70008900809388008091AF06992787FD909513
:101A8000FC01EE0FFF1FE80FF91FE055F94F8081B1
:101A900086FF11C08091AF06992787FD9095FC01C4
:101AA000EE0FFF1FE80FF91FE055F94F808161E04D
:101AB0008F730E949F23FF91EF91BF91AF919F91F0
:101AC0008F917F916F915F914F913F912F910F90E7
:101AD0000FBE0F901F9018952091AE062C30A0F4E9
:101AE00031E0320F3093AE06FC012083822F90E06C
:101AF000FC01EE0FFF1FE80FF91FE055F94F88EBCF
:101B00009BE09283818308952FEFFC012083089549
:101B1000DF92EF92FF920F931F93CF93DF93EC012D
:101B2000D62E7A01890188818C3008F066C061E088
:101B30008D2D0E9466238881A82FB0E0FD01EE0F55
:101B4000FF1FEA0FFB1FE055F94F2D2D2F739081DA
:101B5000907C922B908360E272E06E197F0977FF90
:101B600002C06D5F7F4F7595679575956795698321
:101B700040E659E0401B510B57FF02C04D5F5F4FDD
:101B800055954795559547954A836CE00E941F2FC0
:101B90009CE0899FB001112420E030E0A901460FAC
:101BA000571FFA01EE0FFF1FE40FF51FE055F94F25
:101BB000908196FD16C02F5F3F4F2C30310571F795
:101BC00081110FC01092800082E0809381001092FA
:101BD000850010928400B19A80916F00826080939A
:101BE0006F00888190E0FC01EE0FFF1FE80FF91FE6
:101BF000E055F94F8081806480838881DF91CF91A7
:101C00001F910F91FF90EF90DF90089520E639E04B
:101C100040E252E00C94880DFC01808190E0FC01D0
:101C2000EE0FFF1FE80FF91FE055F94F80818F7B02
:101C300080830895FC0180818C3070F5918128E8C3
:101C400030E0291B310997FD3395220F331F220FF6
:101C5000331F621773077CF0928128E532E0291B5D
:101C6000310997FD3395220F331F220F331F62175F
:101C700073070CF49B0122503109220F331F4FB719
:101C8000F89490E0FC01EE0FFF1FE80FF91FE055FC
:101C9000F94F328321834FBF08954F925F926F9225
:101CA0007F92AF92BF92CF92DF92EF92FF920F930B
:101CB0001F93CF93DF93EC01603282E078070CF042
:101CC00040C077FD06C0653B71052CF064EB70E009
:101CD00002C060E070E0898128E830E0281B31090B
:101CE00087FD3395220F331F220F331F5901CC2458
:101CF000B7FCC094DC2C882777FD8095982F2A812B
:101D000048E552E0421B510927FD5395440F551FEA
:101D1000440F551F2A01662457FC6094762C7F924D
:101D20006F925F924F9214EBE12EF12C00E010E0E5
:101D300020E030E0A9010E94D92A0F900F900F9067
:101D40000F90CE01DF91CF911F910F91FF90EF90F7
:101D5000DF90CF90BF90AF907F906F905F904F904B
:101D60000C941A0EFC01808190E0FC01EE0FFF1F25
:101D7000E80FF91FE055F94F808186FB882780F92D
:101D8000089508950F931F93CF93DF9385E10E94E9
:101D9000202325E0AC01249FC001259F900D112434
:101DA000BC01882777FD8095982F0E94712D20E037
:101DB00030E040E85AE30E94252E8B01D82FC92F2E
:101DC00026E636E646E850E40E94212E181624F452
:101DD00006E616E6D6E8C0E4B8018D2F9C2FDF9109
:101DE000CF911F910F9108950F931F93CF93DF937E
:101DF0000E94C20E2FEB36E842ED52E40E94252EDF
:101E00002CE73DE04BEA53E40E946D2C8B01D82F68
:101E1000C92F20E030E0A9010E94D22C87FF04C026
:101E200000E010E0D0E0C0E0B8018D2F9C2FDF91E2
:101E3000CF911F910F9108950895CF93DF93EC01F7
:101E4000862F688379835B834A8361E00E946623DF
:101E500060E08A81DF91CF910C9466230F931F93EA
:101E6000CF93DF93EC0100E010E0488159816A8153
:101E70007B81002E04C076956795579547950A9407
:101E8000D2F7642F61708C810E949F2300000000B4
:101E9000000061E08D810E949F230000000000008F
:101EA00060E08D810E949F230F5F1F4F0E3111054F
:101EB000E1F661E08E810E949F2300000000000097
:101EC00060E08E81DF91CF911F910F910C949F2341
:101ED000CF93DF93EC01862F188219821A821B821E
:101EE0006C834D832E8361E00E94662361E08D81C7
:101EF0000E94662361E08E810E94662360E08C81EF
:101F00000E949F2360E08D810E949F2360E08E816C
:101F10000E949F23CE01DF91CF910C942E0FFC01E4
:101F200040835183628373830C942E0FFC011082D3
:101F30001182128213820C942E0F21E030E0FC01FA
:101F4000E20FF31F10822F5F3F4F24323105B9F7A4
:101F5000FC0115A214A2089520E230E0FC0137A391
:101F600026A32DE020A716A615A60C949D0FAC0164
:101F7000455D5F4FBC016A5D7F4F80E090E00C944F
:101F80002230FF920F931F93CF93DF93EC018A01CE
:101F90002DA53EA52E30310504F585E2F82EF29EE2
:101FA000C001F39E900D11248F9643E250E08C0FF8
:101FB0009D1F0E9413302DA53EA5F29EC001F39EE9
:101FC000900D11248C0F9D1FFC01EE5AFF4F1183C1
:101FD00000832F5F3F4F3EA72DA7DF91CF911F9129
:101FE0000F91FF9008958B5C9D4FFC01718360837E
:101FF00008952F923F924F925F926F927F928F92AD
:102000009F92AF92BF92CF92DF92EF92FF920F9387
:102010001F93CF93DF9300D000D0CDB7DEB79C8362
:102020008B8311E05C012BE2A20EB11C1C0136E295
:10203000230E311C2C018FEF481A580ACB80DC800C
:102040009FE2C90ED11C2B813C812B5C3D4F3A8312
:1020500029838DED96E00E94D523181619060CF001
:1020600077C0112309F474C08DED96E00E94EE2331
:10207000EB81FC81808390A5891344C0AB81BC8136
:1020800095961C921E929497A501B101C2010E94DF
:1020900022303C01EB81FC8192A781A7009709F4D3
:1020A00057C085A496A4760100E010E00815190534
:1020B000FCF443E250E0B701C3010E940530F5E2B1
:1020C000EF0EF11C892B89F425E2209FC001219F8E
:1020D000900D11242B813C81820F931FFC01EE5A3D
:1020E000FF4F0190F081E02D07C00F5F1F4FDECF43
:1020F000A981BA81ED91FC9109958B819C810E9407
:102100009D0F10E0AB81BC810C91802F992787FD3A
:1021100090950E94FF2F892B09F49BCFEB81FC81C6
:1021200024A135A1C901019695A384A3E20FF31F51
:102130000183EB81FC81E80FF91F118283970CF476
:1021400088CFAB81BC8195961C921E92949781CFCB
:102150000F900F900F900F90DF91CF911F910F91E3
:10216000FF90EF90DF90CF90BF90AF909F908F90B7
:102170007F906F905F904F903F902F900895CF93F6
:10218000DF93EC01FC01E055FF4F6081718140E07D
:1021900008960E94522BFE01EE54FF4F6081718120
:1021A00040E0CE01C1960E94522BFE01EC54FF4F3D
:1021B0006081718140E0CE01865A9F4F0E94522B70
:1021C000FE01EA54FF4F6081718140E0CE018D57DE
:1021D0009F4FDF91CF910C94522B4F925F926F9251
:1021E0007F928F929F92AF92BF92CF92DF92EF92A7
:1021F000FF920F931F93CF93DF93CDB7DEB73C01D0
:102200004B885C88FC01E055FF4F718360833296F8
:102210005183408332963183208332961183008329
:102220000E94BF10F301EC51FF4F1082E11037C044
:10223000F301E054FF4F8AE590E09183808332966A
:1022400091838083329691838083329691838083B9
:10225000A201B401C30184559F4F0E941D0FF301D9
:10226000E853FF4FA082B1823296C082D18261E0F2
:102270008A2D0E94662360E08C2DDF91CF911F9103
:102280000F91FF90EF90DF90CF90BF90AF909F9015
:102290008F907F906F905F904F900C946623E12C0D
:1022A000F12C00E010E0C8010E94493090E0813834
:1022B00091050CF09A95F301EE0DFF1D908F878B21
:1022C0000F5F1F4F89E2E80EF11C0430110559F72A
:1022D000AFCFCF93DF93EC0108960E94A52BCE01E0
:1022E000C1960E94A52BCE01865A9F4F0E94A52B16
:1022F000CE018D579F4FDF91CF910C94A52B2F923C
:102300003F924F925F926F927F928F929F92AF9285
:10231000BF92CF92DF92EF92FF920F931F93CF93D2
:10232000DF93CDB7DEB72A970FB6F894DEBF0FBEA6
:10233000CDBF1C016B0149835A830E94BF10F1017C
:10234000EC51FF4F8081811110822BE0C216D10425
:102350000CF4CDC0EE24D7FCE094FE2CC701B601EE
:102360000E94712D20E030E040E251E40E94D62C22
:102370002B013C0139813B838A818C83510100E030
:1023800010E0AB81BC818D919D91BC83AB834501F5
:10239000B4ED8B0E911CF101E00FF11FE054FF4FE3
:1023A00020813181821B930BBC01882777FD8095AA
:1023B000982F0E94712DA30192010E94D62CF40146
:1023C00060837183828393830E5F1F4FF4E0AF0EAF
:1023D000B11C08301105A9F60E948E2291012453E8
:1023E0003F4F3C832B836C0D7D1D8E1D9F1DD9019E
:1023F0006D937D938D939C93139744244394512C18
:10240000F101E053FF4FFE83ED83245C31093887EF
:102410002F830E948E22EB81FC8100811181228119
:102420003381601771078207930708F076C00E9416
:102430008E22665F7F4F8F4F9F4FAD81BE816D9320
:102440007D938D939C9313976F80788481011A8676
:1024500019864201AA2497FCA094BA2CE985FA8532
:10246000E20DF31DE054FF4F80819181BC0188276C
:1024700077FD8095982F0E94712D6B017C01C5011D
:10248000B4010E94712DF801EC52FF4F208131817F
:10249000428153810E94252E9B01AC01C701B601E8
:1024A0000E946E2C0E943E2DC3010E94D52BE9850F
:1024B000FA853296FA87E9870C5F1F4FF9E26F0EB3
:1024C000711C29853A852830310541F60E948E22FB
:1024D000AD81BE810D911D912D913C9160177107C9
:1024E0008207930798F3BFEF4B1A5B0A92CFC9801C
:1024F000DA8000E010E07101F8E0EF0EF11CD60187
:102500006D917D916D01C701800F911F0E94D52BA8
:10251000075D1F4F043A110591F7E981FA8180E0C8
:1025200090E021913191D101A80FB91FA054BF4F64
:102530002D933C9302968830910599F72A960FB611
:10254000F894DEBF0FBECDBFDF91CF911F910F91E9
:10255000FF90EF90DF90CF90BF90AF909F908F90C3
:102560007F906F905F904F903F902F9008952F92A3
:102570003F924F925F926F927F928F929F92AF9213
:10258000BF92CF92DF92EF92FF920F931F93CF9360
:10259000DF9300D000D0CDB7DEB75C01CA012901BE
:1025A000A70196013C014B01650188E0C80ED11CD2
:1025B000780104E010E03C2C2D2CF30181919191E5
:1025C0003F01F60196838583F401819191914F013A
:1025D000F60194838383B201C60129833A834B8336
:1025E0005C830E94B42BF70181919191A191B191EB
:1025F0007F01F60181879287A387B4870150110973
:10260000F9E2CF0ED11C29813A814B815C81011501
:10261000110599F60E948E220E946F2D6B017C019C
:10262000B201882777FD8095982F0E94712D29810E
:102630003A814B815C810E94252EA70196010E9460
:102640006E2C2B013C0185010F5C1F4F45018AE573
:10265000880E911CE3E8AE0EB11CA3019201C701E4
:10266000B6010E94D22C1816A4F0832D922D0E9440
:10267000DC2BC8010E94DC2BC4010E94DC2BC501AD
:102680000E94DC2B0E948E220E946F2D6B017C0128
:10269000E4CF0F900F900F900F90DF91CF911F918B
:1026A0000F91FF90EF90DF90CF90BF90AF909F90F1
:1026B0008F907F906F905F904F903F902F900895F4
:1026C0002F923F924F925F926F927F928F929F9242
:1026D000AF92BF92CF92DF92EF92FF920F931F9330
:1026E000CF93DF93CDB7DEB72C970FB6F894DEBF4C
:1026F0000FBECDBF4C017A8369835C834B833E83DD
:102700002D831801260137010E94BF10F401EC51FE
:10271000FF4F808181111082C301B2010E943E2DC2
:102720006F83788789879A87AF80B8841A141B04CF
:10273000A4F12F813885B901882777FD8095982FDE
:102740000E94712D9B01AC01C301B2010E946D2C4E
:102750006B017C0181012D813E814B815C8169810E
:102760007A81C4010E94B7122C960FB6F894DEBF8E
:102770000FBECDBFDF91CF911F910F91FF90EF90D2
:10278000DF90CF90BF90AF909F908F907F906F9091
:102790005F904F903F902F9008951C861B86C12C10
:1027A000D12C90E8E92E9FE3F92E81012D813E8105
:1027B0004B815C8169817A81C4010E94B7128B854B
:1027C0009C8501969C878B878A159B0541F7B1CF25
:1027D000EF92FF920F931F93CF93DF93CDB7DEB7A6
:1027E00028970FB6F894DEBF0FBECDBF8C017C01D9
:1027F00084EEE80EF11CF7018081811117C088E09A
:10280000E2E3F1E0DE01119601900D928A95E1F785
:10281000AE014F5F5F4F64EF71E0C8010E947F110E
:10282000C8010E94691181E0F701808328960FB6E4
:10283000F894DEBF0FBECDBFDF91CF911F910F91F6
:10284000FF90EF900895CF92DF92EF92FF920F9357
:102850001F93CF93DF93CDB7DEB7A0970FB6F89451
:10286000DEBF0FBECDBF6A017B01E8E0BE01675E3F
:102870007F4FDB014E2F1D924A95E9F71E8F0D8F7A
:1028800018A30F8FAE014F5E5F4FDA011D92EA95DC
:10289000E9F7F80117FD3196F595E795FE8BED8B7D
:1028A00017FF02C00F5F1F4F1595079511950195F2
:1028B0001109188F0F8B8E010F5F1F4FE0E1D801B8
:1028C0001D92EA95E9F70E946013A0960FB6F8945E
:1028D000DEBF0FBECDBFDF91CF911F910F91FF9053
:1028E000EF90DF90CF900895CF92DF92EF92FF921A
:1028F0000F931F93CF93DF93CDB7DEB7A0970FB69B
:10290000F894DEBF0FBECDBF6A017B01E8E0BE01D7
:10291000675E7F4FDB014E2F1D924A95E9F71E8FB0
:102920000D8F18A30F8FAE014F5E5F4FDA011D921E
:10293000EA95E9F71E8B0D8B119501951109188FFA
:102940000F8B8E010F5F1F4FE0E1D8011D92EA95BA
:10295000E9F70E946013A0960FB6F894DEBF0FBE91
:10296000CDBFDF91CF911F910F91FF90EF90DF903E
:10297000CF9008952F923F924F925F926F927F92E5
:102980008F929F92AF92BF92CF92DF92EF92FF927F
:102990000F931F93CF93DF93CDB7DEB7A0970FB6FA
:1029A000F894DEBF0FBECDBF4C015A016B01390157
:1029B00028E02E0149E1440E511CF201422F1192F0
:1029C0004A95E9F789E190E09A8F898F9C8F8B8FE8
:1029D0001E8F0D8F18A30F8F1E0151E1250E311C84
:1029E000F10111922A95E9F7C80117FD0196959515
:1029F000879504969E8B8D8B17FF02C00F5F1F4F2C
:102A00001595079511950195110904501109188F15
:102A10000F8B8E010F5F1F4F80E1F80111928A9595
:102A2000E9F780E090E0A4EBB2E489839A83AB837A
:102A3000BC838D839E83AF83B88724ECA7012403D6
:102A4000B001259F700D1124882777FD8095982F60
:102A50000E94712D2BED3FE049E450E40E94252EA9
:102A600020E030E044E353E40E94D62C6D877E875B
:102A70008F87988B760165019301A101B201C40192
:102A80000E946013A0960FB6F894DEBF0FBECDBFB4
:102A9000DF91CF911F910F91FF90EF90DF90CF903A
:102AA000BF90AF909F908F907F906F905F904F906E
:102AB0003F902F9008950F931F93CF93DF93EC01D6
:102AC000C653DF4F88810E94202388810E942023E3
:102AD0008C0164E070E080E090E00E94BD2288817B
:102AE0000E942023080F191F64E070E080E090E04E
:102AF0000E94BD22C80117FD019695958795DF912B
:102B0000CF911F910F910895CF92DF92EF92FF9294
:102B10000F931F93CF93DF938C01095F1F4FC80161
:102B20000E94F40ECAE0D0E0C12CD12C7601C8017D
:102B30000E94F40E9B01AC01C701B6010E946E2CED
:102B40006B017C0161E070E080E090E00E94BD22BA
:102B5000219769F720E030E040E251E4C701B60177
:102B60000E94D62CDF91CF911F910F91FF90EF9093
:102B7000DF90CF900895CF93DF93CDB7DEB7CC57DA
:102B8000D1090FB6F894DEBF0FBECDBF8CE7EAEBDC
:102B9000F1E0DE01119601900D928A95E1F7660F42
:102BA000771F660F771F81E090E08C0F9D1F680FE5
:102BB000791FFB016081718182819381C458DF4F4D
:102BC0000FB6F894DEBF0FBECDBFDF91CF91089551
:102BD000CF93DF93EC01BA010E94BB15AB01BC019E
:102BE000CE01DF91CF910C948F0FCF93DF93CDB7B0
:102BF000DEB7C057D1090FB6F894DEBF0FBECDBF08
:102C000080E2E6E3F2E0DE01999601900D928A956A
:102C1000E1F780E1E6E5F2E0DE01AF59BF4F019058
:102C20000D928A95E1F788E1E6E6F2E0DE01A75B26
:102C3000BF4F01900D928A95E1F788E2EEE7F2E04E
:102C4000DE01119601900D928A95E1F761307105D0
:102C500009F194F4672BB1F5FA01EE0FFF1FEE0FA7
:102C6000FF1F81E090E08C0F9D1FE80FF91F60A50A
:102C700071A582A593A526C06230710599F06330D5
:102C8000710501F5FA01EE0FFF1FEE0FFF1F81E046
:102C900090E00FC0FA01EE0FFF1FEE0FFF1F81E65D
:102CA00090E007C0FA01EE0FFF1FEE0FFF1F89E44F
:102CB00090E08C0F9D1FE80FF91F60817181828168
:102CC000938100C0C059DF4F0FB6F894DEBF0FBE2E
:102CD000CDBFDF91CF910895CF93DF93EC01CB016E
:102CE000BA01A901CE010E94F515AB01BC01CE01CC
:102CF000DF91CF910C948F0F21110C94E8150C9457
:102D00008F0F0C94960F8F929F92AF92BF92EF927B
:102D1000FF920F931F93CF93DF93EC01480159016A
:102D2000E114F10419F4EE24E394F12CCB01BA017F
:102D30000E94432DC853DF4FA501940188810E9452
:102D4000F127C501B4010E94BD22B701882777FD94
:102D50008095982FDF91CF911F910F91FF90EF9069
:102D6000BF90AF909F908F900C94BD222F923F9276
:102D70004F925F926F927F928F929F92AF92BF928B
:102D8000CF92DF92EF92FF920F931F93CF93DF9337
:102D9000CDB7DEB728970FB6F894DEBF0FBECDBF14
:102DA0001C012A013B0109831A832B833C83CD82BA
:102DB000DE82EF82F886CD8CDE8CC114D10419F44A
:102DC000CC24C394D12C29813A814B815C81C301ED
:102DD000B2010E94D22C87FF25C0C301B2010E941C
:102DE0003E2D882777FD8095982F0E94712D2B010D
:102DF0003C0129813A814B815C810E94D22C87FF62
:102E000036C0760195018401B301A201C1010E947F
:102E100083162D813E814F815885C301B2010E94E6
:102E2000252EDDCFC301B2010E943E2D882777FDFC
:102E30008095982F0E94712D2B013C0129813A81A8
:102E40004B815C810E94212E18168CF4760195012D
:102E50008401B301A201C1010E9483162D813E812C
:102E60004F815885C301B2010E94D62CDDCF289630
:102E70000FB6F894DEBF0FBECDBFDF91CF911F918B
:102E80000F91FF90EF90DF90CF90BF90AF909F9009
:102E90008F907F906F905F904F903F902F9008950C
:102EA0007F928F929F92AF92BF92CF92DF92EF92DA
:102EB000FF920F931F93CF93DF93EC016331710562
:102EC00008F047C3FB01EC5CFF4F0C94802F5EE1E0
:102ED000E52EF12C02E310E020E030E044EA50ED72
:102EE00064E274E40E94831669E1E62EF12C07E3A4
:102EF00010E020E030E042E550ED64EA74E4CE01F9
:102F00000E9483167AE0E72EF12C0CE310E020E01B
:102F100030E040E050E06CED74E426C02EE1E22E9B
:102F2000F12C02E310E020E030E044EA50ED64E2EE
:102F300074E40E94831639E1E32EF12C07E310E0DC
:102F400020E030E040E050E06CED74E4CE010E94FF
:102F500083164AE0E42EF12C02E310E020E030E09A
:102F600042E550ED64EA74E4CE010E948316F1C29A
:102F70001F92B2E07B2E7F9214E1812E912CA12C26
:102F8000B12C0AE0C02E07EDD02E03E8E02E0FE3AF
:102F9000F02E0CE51FEF23EC34E442E550ED64EA3B
:102FA00074E40E94B6166EE170E080E090E00E944A
:102FB000BD221F927F928AE0882E912CA12CB12CE9
:102FC00098EBC92E9EE1D92E95E8E92E9FE3F92EC4
:102FD0000FE115ED22E135E442E550ED64EA74E4D9
:102FE000B1C21F928AE08F93FEE18F2E912CA12C0B
:102FF000B12CACE5CA2EAFE8DA2EA2E8EA2EAFE398
:10300000FA2E00E010E02CED34E442E550ED64EAE5
:1030100074E46DC21F928AE08F937EE1872E912C1B
:10302000A12CB12CEAE0CE2EE7EDDE2EE3E8EE2E69
:10303000EFE3FE2E0FE115ED22E135E44CE55FEF05
:1030400063EC74E454C254E6E52EF12C02E310E084
:1030500020E030E042E550ED64EA74E40E9483161B
:1030600060E5E62EF12C02E310E020E030E04CE5D4
:103070005FEF63EC74E4CE010E948316E12CF12C27
:103080000CE211E020E030E04FE155ED62E175E443
:103090006BCF1F92772473947F929AE0892E912CA4
:1030A000A12CB12C2CE5C22E2FE8D22E22E8E22E44
:1030B0002FE3F22E00E010E626E035E440E050E099
:1030C00068E474E4CE010E94B6161F927F9237E046
:1030D000832E912CA12CB12C4AE0C42E47EDD42E86
:1030E00043E8E42E4FE3F42E00E010E028E434E45B
:1030F00040E050E566E075E425C21F9283E08F93BF
:1031000018E0812E912CA12CB12C08EBC02E0EE1E1
:10311000D02E05E8E02E0FE3F02E00E010E02AEFBD
:1031200034E440E050E06CE574E4CE010E94B61651
:1031300068EC70E080E090E00E94BD220F900F905C
:1031400086E1C82ED12CBAE0EB2EF12C05E010E080
:1031500020E030E048E451EF66E774E4CE010E94DD
:10316000831681E0C81AD10871F7F3C11F9283E07A
:103170008F93E8E08E2E912CA12CB12CFAE0CF2E6B
:10318000F7EDDF2EF3E8EF2EFFE3FF2E00E010E86F
:103190002BE335E440E050E06BEE74E4CE010E9496
:1031A000B61668EC70E080E090E00E94BD220F90BF
:1031B0000F90A0E1CA2ED12C7AE0E72EF12C0AE084
:1031C00010E020E030E040E050ED62E874E4CE0131
:1031D0000E94831681E0C81AD10871F7BAC11F9204
:1031E00084E08F9330E1832E912CA12CB12C4AE006
:1031F000C42E47EDD42E43E8E42E4FE3F42E00E036
:1032000010E021E634E440E050E06FE274E4CE01E7
:103210000E94B6161F9287E08F9352E1852E912C63
:10322000A12CB12C6EEAC62E67E4D62E61E8E62EFC
:103230006FE3F62E00E010E822E234E440E050ECC8
:1032400060E674E47FC11F928AE08F939AE0892E32
:10325000912CA12CB12C28EBC22E2EE1D22E25E8E8
:10326000E22E2FE3F22E00E010E02AEF33E440E0FC
:1032700050E068EC72E4CE010E94B61664EF71E093
:1032800080E090E00E94BD221F9281E08F9300E0D9
:1032900010E028EC32E440E050E068EC73E452C106
:1032A0001F92B8E07B2E7F9214E1812E912CA12CED
:1032B000B12C06E6C02EDC2C06E8E02E0FE3F02E43
:1032C00000E010E42CE135E440E050E86BEB74E4FE
:1032D0000E94B6161F927F9289E1882E912CA12C14
:1032E000B12C00E010E82BEB34E440E050E36CE15B
:1032F00075E428C11F9283E08F93E8E08E2E912C15
:10330000A12CB12CF6E6CF2EDC2CF6E8EF2EFFE355
:10331000FF2E00E010E82BEB35E440E050E06AEFD0
:1033200074E4CE010E94B61662E370E080E090E0A3
:103330000E94BD221F9282E08F93ADE08A2E912CD5
:10334000A12CB12C00E010E02AEF34E440E058E773
:103350006BEB75E4F7C01F9248E0742E7F925FE03C
:10336000852E912CA12CB12C66E6C62EDC2C66E8AD
:10337000E62E6FE3F62E00E010E02AEF34E440E0A2
:1033800050E86BEB74E40E94B61664E670E080E0EF
:1033900090E00E94BD221F927F927AE0872E912CAE
:1033A000A12CB12C00E010E42CE135E440E050E821
:1033B0006DEE74E4C7C01F9288EC8F9324E1822ED7
:1033C000912CA12CB12C3CE5C32E3FE8D32E32E842
:1033D000E32E3FE3F32E00E010E427E234E440E084
:1033E00050E06CE574E483C01F9282E08F93B8E0F4
:1033F0008B2E912CA12CB12C1AE0C12E17EDD12EC1
:1034000013E8E12E1FE3F12E00E010E824ED34E490
:1034100040E050E06AE774E4CE010E94B6161F92C5
:1034200083E08F9308EBC02E0EE1D02E05E8E02E4E
:103430000FE3F02E00E010E02AEF33E440E050E626
:1034400064ED74E4CE010E94B6161F928AE08F9359
:1034500089E0882E912CA12CB12C96E6C92EDC2C6B
:1034600096E8E92E9FE3F92E00E010E824ED34E41D
:1034700040E050E06AE774E4CE010E94B6160F9077
:103480000F900F900F900F900F9063C01F928FE0DE
:103490008F93F2E08F2E912CA12CB12CACE5CA2E8B
:1034A000AFE8DA2EA2E8EA2EAFE3FA2E00E010E849
:1034B0002BE335E440E050E068EC74E418C01F9260
:1034C00084E18F9372E0872E912CA12CB12CECE536
:1034D000CE2EEFE8DE2EE2E8EE2EEFE3FE2E00E049
:1034E00010E82BEB35E440E050E06AEF74E4CE01E5
:1034F0000E94B6160F900F902CC01F9244E1742EBC
:103500007F9252E0852E912CA12CB12C6CE5C62E19
:103510006FE8D62E62E8E62E6FE3F62E00E010E0AC
:103520002AE735E440E050E068EC74E40E94B61607
:103530001F927F9200E010E82BE335E440E050E07A
:103540006AE775E4CE010E94B6160F900F900F90B7
:103550000F90DF91CF911F910F91FF90EF90DF902F
:10356000CF90BF90AF909F908F907F9008952F92B3
:103570003F924F925F926F927F928F929F92AF9203
:10358000BF92CF92DF92EF92FF920F931F93CF9350
:10359000DF93CDB7DEB7C258D1090FB6F894DEBFBE
:1035A0000FBECDBF3C0188E0E6EAF2E0DE01AF5895
:1035B000BF4F01900D928A95E1F788E0EEEAF2E0C4
:1035C000DE01A759BF4F01900D928A95E1F788E07F
:1035D000E6EBF2E0DE01AF59BF4F01900D928A9504
:1035E000E1F788E0EEEBF2E0DE01A75ABF4F019071
:1035F0000D928A95E1F788E0E6ECF2E0DE01AF5A41
:10360000BF4F01900D928A95E1F788E0EEECF2E071
:10361000DE01A75BBF4F01900D928A95E1F788E02C
:10362000E6EDF2E0DE01AF5BBF4F01900D928A95AF
:10363000E1F788E0EEEDF2E0DE01D99601900D921F
:103640008A95E1F788E0E6EEF2E0DE01D19601909E
:103650000D928A95E1F788E0EEEEF2E0DE019996B0
:1036600001900D928A95E1F788E0E6EFF2E0DE0145
:10367000919601900D928A95E1F788E0EEEFF2E0E5
:10368000DE01599601900D928A95E1F788E0E6E017
:10369000F3E0DE01519601900D928A95E1F788E002
:1036A000EEE0F3E0DE01199601900D928A95E1F7C4
:1036B0006D30710508F0CEC6FB01E95BFF4F0C943D
:1036C000802F82E090E0EF969FAF8EAFEF973DC4E2
:1036D000E4E0F0E0EF96FFAFEEAFEF976BC3FEE1F3
:1036E000EF2EF12C02E310E020E030E044EA50ED50
:1036F00064E274E4C3010E9483164AE050E060E093
:1037000070E0C3010E94E8156DE070E0C3010E9403
:10371000501704E110E020E233E040E050E060E8C0
:103720007FE3C3010E9423146DE070E076C14BE09B
:1037300050E060E070E0C3010E94E8156BE070E0CB
:10374000C3010E9450174CE050E060E070E0C301FC
:103750000E94E81504E110E024EF31E040E050E081
:1037600060E87FE3C3010E9474144BE050E060E026
:1037700070E0C3010E94E8156CE070E0C3010E9494
:1037800050174CE050E060E070E0C3010E94E81583
:1037900024EF31E040E050E060E87FE3C3010E94A5
:1037A000741404C346E150E060E070E0C3010E947D
:1037B000E815AE014F585F4F6CEB72E0C3010E94F9
:1037C0007F111F9268EC562E5F9274E1872E912C28
:1037D000A12CB12CECE5CE2EEFE8DE2EE2E8EE2EA9
:1037E000EFE3FE2E00E010E82FE434E440E050E088
:1037F0006CE574E4C3010E94B61648E150E060E055
:1038000070E0C3010E94E8151F925F9200E010E88B
:1038100025E434E440E050E86FE474E4C3010E941E
:10382000B61647E150E060E070E0C3010E94E81581
:103830001F925F9200E010E029E334E440E050E89A
:1038400065E474E4C3010E94B61648E150E060E00C
:1038500070E0C3010E94E8151F925F9200E010E043
:103860002FE234E440E050E069E374E4C3010E94D5
:10387000B61647E150E060E070E0C3010E94E81531
:103880001F925F9200E010E427E234E440E050E051
:103890006FE274E4C3010E94B61646E150E060E0B6
:1038A00070E0C3010E94E81564EF71E080E090E0F1
:1038B0000E94BD22C3010E94E8136CE271E080E027
:1038C00090E00E94BD2207C2AE0147595F4F6CEBEA
:1038D00072E0C3010E947F1144E0442E512C5AE053
:1038E000352E2224239420E030E041E050E060E0D7
:1038F00070E0C3010E946C161F923F922AE0822E54
:10390000912CA12CB12C38EBC32E3EE1D32E35E8FF
:10391000E32E3FE3F32E00E010E028E433E440E040
:1039200050E068EC72E4C3010E94B61621E030E07A
:1039300041E050E060E070E0C3010E946C161F920D
:103940003F9200E010E026E933E440E050E068E414
:1039500073E4C3010E94B61622E030E041E050E07B
:1039600060E070E0C3010E946C161F923F9200E07D
:1039700010E02AEF33E440E050E066E973E4C3016D
:103980000E94B61664EF71E080E090E00E94BD22D4
:1039900021E030E041E050E060E070E0C3010E94CF
:1039A0006C161F922F9200E010E02AE733E440E00B
:1039B00050E068EC73E4C3010E94B61620E030E0EA
:1039C00041E050E060E070E0C3010E946C161F927D
:1039D0002F9200E010E028EC32E440E050E06AE78B
:1039E00073E4C3010E94B61664EF71E080E090E0DA
:1039F0000E94BD2291E0491A51080FB6F894DEBF2B
:103A00000FBECDBF09F06FCF43E150E060E070E042
:103A1000C3010E94E81569E070E0C3010E945017DD
:103A2000C5C1AE014F595F4F64EF71E0C3010E9401
:103A30007F116CE271E080E090E00E94BD2243E1E2
:103A400050E060E070E0C3010E94E81560E170E0C2
:103A5000C3010E94501740E150E060E070E0C301F4
:103A60000E94E8156AEF70E080E090E00E94BD22BD
:103A7000AE01475A5F4F64EF71E0C3010E947F11AE
:103A80006CE271E080E090E00E94BD2243E150E0F2
:103A900060E070E0C3010E94E81561E170E0C301DD
:103AA0000E94501740E150E060E070E0C3010E94C6
:103AB000E8156AEF70E080E090E00E94BD22AE0160
:103AC0004F5A5F4F64EF71E0C3010E947F116CE2B7
:103AD00071E080E090E00E94BD2243E150E060E0B0
:103AE00070E0C3010E94E81562E170E0C3010E942A
:103AF000501740E150E060E070E0C3010E94E8151B
:103B00006CE271E080E090E00E94BD22C3010E945F
:103B1000E81364EF71E080E090E052C3AE01475BD0
:103B20005F4F6CE271E0C3010E947F1144E150E0FD
:103B300060E070E0C3010E94E8156FE070E0C3012F
:103B40000E9450172DC14DE050E060E070E0C301CD
:103B50000E94E81569E070E0C3010E945017EE244E
:103B6000E394F12C0FE010E02CED35E040E050E064
:103B700060E070E4C3010E94BA14C3010E94E8131C
:103B80006DE070E0C3010E945017DBC3AE014F5BD4
:103B90005F4F6CE271E0C3010E947F114EE150E083
:103BA00060E070E0C3010E94E815FEE1EF2EF12C09
:103BB00004E610E020E030E040E050E06CE574E422
:103BC000C3010E9483161F92A4E05A2E5F92B7E0B1
:103BD0008B2E912CA12CB12C1CE5C12E1FE8D12ECF
:103BE00012E8E12E1FE3F12E0FE115ED22E934E496
:103BF00040E050E06CE574E4C3010E94B6161F92E9
:103C0000442443944F920AE0802E912CA12CB12C95
:103C10000CE51FEF23EC34E44FE155ED62E974E469
:103C2000C3010E94B6161F924F9200E010E02CE5EF
:103C300034E44CE55FEF63EC74E4C3010E94B61614
:103C40006FE070E080E090E00E94BD221F925F92E2
:103C500084E1882E912CA12CB12C04EA10ED24E2F1
:103C600034E440E050E06CE574E4C3010E94B61611
:103C700060E971E080E090E00E94BD22AE01475C07
:103C80005F4F68EC70E0C3010E947F111F925F924A
:103C90000FE115ED22E934E440E050E06CE574E416
:103CA000C3010E94B616AE014F5C5F4F68EC70E036
:103CB000C3010E947F111F925F9204EA10ED24E27B
:103CC00034E440E050E06CE574E4C3010E94B616B1
:103CD000C3010E94E8134BE050E060E070E0C301D4
:103CE0000E94E8150FB6F894DEBF0FBECDBFB2C379
:103CF0004EE150E060E070E0C3010E94E8151F92C1
:103D000064E0562E5F9274E1872E912CA12CB12C89
:103D1000ECE5CE2EEFE8DE2EE2E8EE2EEFE3FE2E0F
:103D20000FE115ED22E934E440E050E06CE574E485
:103D3000C3010E94B6161F925F9204EA10ED24E2BE
:103D400034E440E050E06CE574E4C3010E94B61630
:103D50006CE271E080E090E00E94BD2243E150E01F
:103D600060E070E0C3010E94E8150F900F900F9083
:103D70000F9004E010E0AE01475D5F4F64E670E035
:103D8000C3010E947F11C3010E94E8130150110971
:103D900091F74EE150E060E070E0C3010E94E81549
:103DA00064EF71E080E090E00E94BD22C3010E94B8
:103DB000E813C7C2EB961FAE1EAEEB9700E911E009
:103DC000EB962EAD3FADEB9742E050E060E070E047
:103DD000C3010E946C16180194E6290E311CB8012B
:103DE000882777FD8095982F0E94712DC158DF4F4D
:103DF000688379838A839B83CF57D040B10188271A
:103E000077FD8095982F0E94712D8B019C011F9248
:103E1000EAE0EF934AE0842E912CA12CB12C58EBD0
:103E2000C52E5EE1D52E55E8E52E5FE3F52EC1588F
:103E3000DF4F488159816A817B81CF57D040C301D0
:103E40000E94B616EB968EAD9FADEB970196EB9662
:103E50009FAF8EAFEB970F900F9098EE291693E0DF
:103E6000390611F08101ACCFC3010E94960F1F9259
:103E7000EAE0EF9300E010E829E834E4C158DF4FAE
:103E8000488159816A817B81CF57D040C3010E940C
:103E9000B6160F900F90412C512C920142E050E049
:103EA00060E070E0C3010E946C16B1016C597F4F55
:103EB000882777FD8095982F0E94712DED966CAF25
:103EC0007DAF8EAF9FAFED97B101882777FD8095CD
:103ED000982F0E94712DAB01BC011F92FAE0FF9355
:103EE0002AE0822E912CA12CB12C38EBC32E3EE17E
:103EF000D32E35E8E32E3FE3F32EED960CAD1DAD4A
:103F00002EAD3FADED97C3010E94B61684E6281A88
:103F100031089FEF491A590A0F900F90E0E92E16C9
:103F2000E1E03E0609F0B9CFEF968EAD9FADEF9779
:103F30000197EF969FAF8EAFEF97892B09F03ACF9D
:103F40006CE271E080E090E03BC1212C312C54EF19
:103F5000452E55245394910143E050E060E070E019
:103F6000C3010E946C16B2016C597F4F882777FD00
:103F70008095982F0E94712DED966CAF7DAF8EAF1E
:103F80009FAFED97B201882777FD8095982F0E940B
:103F9000712DAB01BC011F929AE09F938AE0882E9D
:103FA000912CA12CB12C9CE5C92E9FE8D92E92E82A
:103FB000E92E9FE3F92EED960CAD1DAD2EAD3FAD74
:103FC000ED97C3010E94B616E5E64E0E511CFFEFB9
:103FD0002F1A3F0A0F900F9086EE481685E058067C
:103FE00009F0B9CF212C312C910143E050E060E081
:103FF00070E0C3010E946C16B2016C597F4F882794
:1040000077FD8095982F0E94712DED966CAF7DAF56
:104010008EAF9FAFED97B201882777FD8095982FDF
:104020000E94712DAB01BC011F929AE09F931AE090
:10403000812E912CA12CB12C0CE5C02E0FE8D02E96
:1040400002E8E02E0FE3F02EED960CAD1DAD2EAD87
:104050003FADED97C3010E94B616E5E64E0E511C2A
:10406000FFEF2F1A3F0A0F900F9088ED481689E056
:10407000580609F0B9CF212C312C910143E050E0D2
:1040800060E070E0C3010E946C16B20164567109D1
:10409000882777FD8095982F0E94712DED966CAF43
:1040A0007DAF8EAF9FAFED97B201882777FD8095EA
:1040B000982F0E94712DAB01BC011F929AE09F9333
:1040C000AAE08A2E912CA12CB12CBCE5CB2EBFE806
:1040D000DB2EB2E8EB2EBFE3FB2EED960CAD1DAD53
:1040E0002EAD3FADED97C3010E94B616E5E64E1A20
:1040F0005108FFEF2F1A3F0A0F900F9086EE4816D7
:1041000085E0580609F0B9CF212C312C910143E00C
:1041100050E060E070E0C3010E946C16B20164568A
:104120007109882777FD8095982F0E94712DED9653
:104130006CAF7DAF8EAF9FAFED97B201882777FD53
:104140008095982F0E94712DAB01BC011F929AE0BF
:104150009F93EAE08E2E912CA12CB12CFCE5CF2E62
:10416000FFE8DF2EF2E8EF2EFFE3FF2EED960CAD19
:104170001DAD2EAD3FADED97C3010E94B616E5E62D
:104180004E1A5108FFEF2F1A3F0A0F900F9084EF3D
:10419000481681E0580609F0B9CFEF96EEADFFADB5
:1041A000EF973197EF96FFAFEEAFEF97EF2B09F058
:1041B000CCCEC3010E94960F64E670E080E090E0F0
:1041C0000E94BD22BEC04FE050E060E070E0C3013D
:1041D0000E94E81590E4C92E96E0D92E2AE5422ED9
:1041E000512CCE0101961C013AE5A32EB12C44EBD3
:1041F000842E912CF10188E011928A95E9F7BA8218
:10420000A982BC82AB825E824D82C4018419950969
:1042100098878F83A1016AE070E0C3010E947F113B
:10422000B601882777FD8095982F0E94712DAB01EC
:10423000BC01EE24E394F12C0FE010E020E030E02C
:10424000C3010E9483169FEF491A590AE4E1CE0E7A
:10425000D11CF6E94F16510469F64EE050E060E0DB
:1042600070E0C3010E94E815A0EFAA2EAAE0BA2EC2
:10427000B6E9CB2ED12C1AE5412E512C04EB802E21
:10428000912CF10188E011928A95E9F75A824982CE
:104290005C824B82DE82CD82C4018C199D09988795
:1042A0008F83A1016AE070E0C3010E947F11B50114
:1042B000882777FD8095982F0E94712DAB01BC0156
:1042C000EE24E394F12C0FE010E020E030E0C30195
:1042D0000E94831691E0C91AD108E4E1AE0EB11C28
:1042E000FAE5CF16D10469F64BE050E060E070E0EB
:1042F000C3010E94E81504E110E024EF31E040E042
:1043000050E060E87FE3C3010E9474146CE070E049
:10431000C3010E9450174CE050E060E070E0C30120
:104320000E94E81524EF31E040E050E060E87FE3D0
:10433000C3010E947414C3010E94E813C3010E94C8
:10434000960F4BE050E060E070E0C3010E94E8157A
:1043500081C047E150E060E070E0C3010E94E815D1
:10436000AE014F5D5F4F6CE271E0C3010E947F11AF
:10437000EE24E394F12C08EC10E020E030E040E083
:1043800050E061E674E4C3010E94831648E150E006
:1043900060E070E0C3010E94E815AE01475E5F4F28
:1043A0006CE271E0C3010E947F1108EC10E020E094
:1043B00030E040E050E066E174E4C3010E948316FF
:1043C00044E150E060E070E0C3010E94E815AE01F6
:1043D0004F5E5F4F6CE271E0C3010E947F1108ECF9
:1043E00010E020E030E040E050E066E973E4C30113
:1043F0000E948316AE01475F5F4F6CE271E0C3011C
:104400000E947F114AE150E060E070E0C3010E9429
:10441000E815C3010E94691108E918E020E030E0C6
:1044200040E050E066E173E4C3010E94831668E552
:1044300072E080E090E00E94BD22C3010E94960FCE
:104440004BE050E060E070E0C3010E94E815C3015A
:104450000E94E813CE57DF4F0FB6F894DEBF0FBEB1
:10446000CDBFDF91CF911F910F91FF90EF90DF9023
:10447000CF90BF90AF909F908F907F906F905F9004
:104480004F903F902F9008951F920F920FB60F926A
:1044900011242F933F938F939F93AF93BF9380915A
:1044A000D5069091D606A091D706B091D806309146
:1044B000D40623E0230F2D3720F40196A11DB11D52
:1044C00005C026E8230F0296A11DB11D2093D40636
:1044D0008093D5069093D606A093D706B093D806BE
:1044E0008091D9069091DA06A091DB06B091DC06A6
:1044F0000196A11DB11D8093D9069093DA06A09371
:10450000DB06B093DC06BF91AF919F918F913F91F5
:104510002F910F900FBE0F901F9018952FB7F89402
:104520006091D5067091D6068091D7069091D806F5
:104530002FBF08953FB7F8948091D9069091DA067D
:10454000A091DB06B091DC0626B5A89B05C02F3FE5
:1045500019F00196A11DB11D3FBF6627782F892F45
:104560009A2F620F711D811D911D42E0660F771F0A
:10457000881F991F4A95D1F70895CF92DF92EF9245
:10458000FF92CF93DF936B017C010E949A22EB0193
:10459000C114D104E104F10489F00E946C2C0E9442
:1045A0009A226C1B7D0B683E734090F381E0C81A21
:1045B000D108E108F108C851DC4FEACFDF91CF9173
:1045C000FF90EF90DF90CF900895789484B582604B
:1045D00084BD84B5816084BD85B5826085BD85B5A7
:1045E000816085BDEEE6F0E0808181608083E1E856
:1045F000F0E010828081826080838081816080838E
:10460000E0E8F0E0808181608083E1EBF0E0808190
:1046100084608083E0EBF0E0808181608083EAE762
:10462000F0E08081846080838081826080838081EB
:10463000816080838081806880831092C1000895AA
:104640008E3008F08E5087702091280190E4299FC9
:1046500090011124822B80937C0080917A008064E9
:1046600080937A0080917A0086FDFCCF809178005B
:104670002091790090E0922B0895833081F028F406
:10468000813099F08230A1F008958730A9F0883008
:10469000B9F08430D1F4809180008F7D03C0809187
:1046A00080008F7780938000089584B58F7702C053
:1046B00084B58F7D84BD08958091B0008F7703C04D
:1046C0008091B0008F7D8093B0000895CF93DF93E9
:1046D00090E0FC01E75EFE4F2491FC01E35DFE4F9C
:1046E0008491882349F190E0880F991FFC01EB5ACF
:1046F000FE4FA591B491855B9E4FFC01C591D4916D
:104700009FB7611108C0F8948C91209582238C93F7
:10471000888182230AC0623051F4F8948C91322F40
:10472000309583238C938881822B888304C0F894EE
:104730008C91822B8C939FBFDF91CF9108950F9323
:104740001F93CF93DF931F92CDB7DEB7282F30E0B2
:10475000F901EB5FFE4F8491F901E75EFE4F149182
:10476000F901E35DFE4F04910023C9F0882321F095
:1047700069830E943D236981E02FF0E0EE0FFF1F67
:10478000E55BFE4FA591B4919FB7F8948C916111B0
:1047900003C01095812301C0812B8C939FBF0F9084
:1047A000DF91CF911F910F910895FC01818D228D92
:1047B00090E0805C9F4F821B91098F739927089529
:1047C000FC01918D828D981731F0828DE80FF11DDB
:1047D000858D90E008958FEF9FEF0895FC01918DF6
:1047E000828D981761F0828DDF01A80FB11D5D9653
:1047F0008C91928D9F5F9F73928F90E008958FEFC1
:104800009FEF089582E795E2892B49F080E090E0E0
:10481000892B29F00E94722581110C9400000895C3
:10482000FC01848DDF01A80FB11DA35ABF4F2C914D
:10483000848D90E001968F739927848FA689B7891C
:104840002C93A089B1898C9180648C93938D848DF5
:10485000981306C00288F389E02D80818F7D8083C4
:104860000895CF93DF93EC01888D8823C9F0EA89FE
:10487000FB89808185FD05C0A889B9898C9186FD59
:104880000FC00FB607FCF5CF808185FFF2CFA88956
:10489000B9898C9185FFEDCFCE010E941024E7CF1E
:1048A000DF91CF910895CF92DF92FF920F931F93E4
:1048B000CF93DF931F92CDB7DEB76C01DC015B961F
:1048C0009C915B975C968C915C97981307C050966F
:1048D000ED91FC915197808185FD32C0F601038DE9
:1048E00010E00F5F1F4F0F731127F02EF601848D1C
:1048F000F81211C00FB607FCF9CFD6015096ED9112
:10490000FC915197808185FFF1CFC60169830E9498
:1049100010246981EBCF838DE80FF11DE35AFF4F1F
:104920006083D6015B960C935B975296ED91FC9158
:10493000539780818062808381E058968C930DC06C
:10494000D6015696ED91FC91579760835096ED9164
:10495000FC91519780818064808381E090E00F908A
:10496000DF91CF911F910F91FF90DF90CF9008952D
:10497000BF92CF92DF92EF92FF92CF93DF93EC0141
:104980006A017B01B22EE889F98982E080834115B2
:1049900081EE580761057105A1F060E079E08DE3D3
:1049A00090E0A70196010E943F2F21503109410953
:1049B00051095695479537952795211580E1380778
:1049C00098F0E889F989108260E874E88EE190E057
:1049D000A70196010E943F2F215031094109510939
:1049E0005695479537952795EC85FD853083EE855F
:1049F000FF852083188EEC89FD89B082EA89FB89C6
:104A0000808180618083EA89FB89808188608083DE
:104A1000EA89FB89808180688083EA89FB898081BB
:104A20008F7D8083DF91CF91FF90EF90DF90CF90CB
:104A3000BF9008951F920F920FB60F9211242F93DB
:104A40008F939F93EF93FF93E091ED06F091EE0625
:104A50008081E091F306F091F40682FD12C090810E
:104A60008091F6068F5F8F732091F706821751F0C1
:104A7000E091F606F0E0E352F94F958F8093F60649
:104A800001C08081FF91EF919F918F912F910F90A5
:104A90000FBE0F901F9018951F920F920FB60F9296
:104AA00011242F933F934F935F936F937F938F9333
:104AB0009F93AF93BF93EF93FF938DED96E00E948A
:104AC0001024FF91EF91BF91AF919F918F917F91B2
:104AD0006F915F914F913F912F910F900FBE0F906B
:104AE0001F9018958DED96E00E94D52321E0892B2B
:104AF00009F420E0822F08951092E0061092DF065C
:104B000088EE93E0A0E0B0E08093E1069093E206A7
:104B1000A093E306B093E40686E393E09093DE0669
:104B20008093DD0685EC90E09093EA068093E90699
:104B300084EC90E09093EC068093EB0680EC90E0A0
:104B40009093EE068093ED0681EC90E09093F00652
:104B50008093EF0682EC90E09093F2068093F1064A
:104B600086EC90E09093F4068093F3061092F6069C
:104B70001092F7061092F8061092F906089508951B
:104B80000E94E5220E94BF250E94160BC2E0D4E2DB
:104B90000E94D7062097E1F30E940224F9CFCF921A
:104BA000DF92EF92FF920F931F93CF93DF936C01ED
:104BB0007A01EB01E60EF71E00E010E0CE15DF05EE
:104BC00061F06991D601ED91FC910190F081E02DA9
:104BD000C6010995080F191FF1CFC801DF91CF91C8
:104BE0001F910F91FF90EF90DF90CF900895611586
:104BF000710581F0DB010D900020E9F7AD01415016
:104C00005109461B570BDC01ED91FC910280F381A9
:104C1000E02D099480E090E00895EF92FF920F93C9
:104C20001F93CF93DF938C01FB01C0E0D0E0649130
:104C30007F018FEFE81AF80A662361F0D801ED9141
:104C4000FC910190F081E02DC8010995C80FD91F92
:104C5000F701EDCFCE01DF91CF911F910F91FF9022
:104C6000EF9008950C94F725DC01ED91FC910190F3
:104C7000F081E02D09940F931F93CF93DF93EC0104
:104C80006DE00E9434268C016AE0CE010E94342639
:104C9000800F911FDF91CF911F910F9108950F9376
:104CA0001F93CF93DF93EC010E940D268C01CE0160
:104CB0000E943B26800F911FDF91CF911F910F9192
:104CC00008958F929F92AF92BF92CF92DF92EF9210
:104CD000FF920F931F93CF93DF93CDB7DEB7A197CA
:104CE0000FB6F894DEBF0FBECDBF7C01C42EE52FFA
:104CF000CB01D22E19A221E02D1510F02AE0D22EE0
:104D00008E010F5D1F4F8D2C912CA12CB12C6C2D81
:104D10007E2FA50194010E943F2F8C2DD29E8019D9
:104D20001124015011098A3014F4805D01C0895C9E
:104D3000F8018083211531054105510521F0C22E6E
:104D4000E32FCA01E4CFB801C7010E94F725A1965D
:104D50000FB6F894DEBF0FBECDBFDF91CF911F918C
:104D60000F91FF90EF90DF90CF90BF90AF909F900A
:104D70008F900895CF92DF92EF92FF920F931F933F
:104D8000CF93DF93EC016A017B012115310579F4A2
:104D9000E881F9810190F081E02D642FDF91CF91BE
:104DA0001F910F91FF90EF90DF90CF9009942A30E0
:104DB0003105E9F477FF1AC06DE20E9434268C01B8
:104DC00044275527BA014C195D096E097F092AE06D
:104DD000CE010E946126800F911FDF91CF911F911C
:104DE0000F91FF90EF90DF90CF9008952AE0B701E8
:104DF000A601CE01DF91CF911F910F91FF90EF900F
:104E0000DF90CF900C9461264F925F926F927F92C9
:104E10008F929F92AF92BF92CF92DF92EF92FF92CA
:104E20000F931F93CF93DF93EC016A017B01B22EA6
:104E30009A01AB01C701B6010E948E2E882319F09A
:104E400062E473E027C026013701E89477F82FEF7A
:104E50003FEF4FE75FE7C301B2010E948E2E811141
:104E60000DC02FEF3FEF4FE75FE7C301B2010E9494
:104E7000D22C18161CF466E473E00CC02FEF3FEF41
:104E80004FE75FE4C701B6010E94212E1816ACF46B
:104E90006AE473E0CE01DF91CF911F910F91FF90F3
:104EA000EF90DF90CF90BF90AF909F908F907F90CA
:104EB0006F905F904F900C94F7252FEF3FEF4FE7E7
:104EC0005FECC701B6010E94D22C87FDE1CF20E044
:104ED00030E0A901C701B6010E94D22C87FF0AC0A9
:104EE0006DE2CE010E9434268C01F7FAF094F7F8B7
:104EF000F09402C000E010E0A12C60E070E080E0DF
:104F00009FE3AB1441F020E030E040E251E40E9426
:104F1000D62CA394F6CF9B01AC01C701B6010E9429
:104F20006E2C6B017C010E94432D2B013C010E94E1
:104F30006F2D9B01AC01C701B6010E946D2C6B0166
:104F40007C012AE0B301A201CE010E946126080F74
:104F5000191FBB2039F06EE473E0CE010E94F725E3
:104F6000080F191F7B2C772041F120E030E040E250
:104F700051E4C701B6010E94252E6B017C010E94FD
:104F80003E2D4B01AA2497FCA094BA2C2AE030E0D5
:104F9000B501A401CE010E94BA26080F191FC50150
:104FA000B4010E94712D9B01AC01C701B6010E94A2
:104FB0006D2C6B017C017A94D6CFC801DF91CF9123
:104FC0001F910F91FF90EF90DF90CF90BF90AF9027
:104FD0009F908F907F906F905F904F9008950C946A
:104FE00004273F924F925F926F927F928F929F928F
:104FF000AF92BF92CF92DF92EF92FF920F931F93E7
:10500000CF93DF9300D000D0CDB7DEB78B0129015D
:105010003A0190912901981721F09F3F09F0DAC1D8
:1050200004C0EFE5F1E0349081C080932901EFE501
:10503000F1E0E491EF3F09F4CDC1E13031F1E2302C
:1050400009F44BC0E11171C014BC15BC94B5926059
:1050500094BD95B5916095BD282F30E0F901E35DD1
:10506000FE4FE491F0E0EE0FFF1FE55BFE4F459130
:10507000549150938A0740938907F901E75EFE4FE8
:10508000249120938807312C53C0109280001092F5
:1050900081009091810098609093810090918100AF
:1050A000916090938100282F30E0F901E35DFE4F7D
:1050B000E491F0E0EE0FFF1FE55BFE4F4591549148
:1050C0005093830740938207F901E75EFE4F2491D6
:1050D00020938107332433942BC01092B000109298
:1050E000B1009091B00092609093B0009091B100A7
:1050F00091609093B100282F30E0F901E35DFE4FFD
:10510000E491F0E0EE0FFF1FE55BFE4F45915491F7
:1051100050937C0740937B07F901E75EFE4F249193
:1051200020937A0752E0352E03C03E2E37FC52C141
:1051300061E00E9466234801A12CB12C832D8D7F54
:1051400009F0C7C060E072E18AE790E0A501940130
:105150000E94612F29833A834B835C8369017A0122
:1051600081E0C81AD108E108F1089FEFC916D104FF
:10517000E104F10409F008F49AC060E472E48FE0FD
:1051800090E0A50194010E94612F69017A01E1E09C
:10519000CE1AD108E108F108F2E03F1219C08FEFF2
:1051A000C816D104E104F10409F008F48AC060E9EA
:1051B00070ED83E090E0A50194010E94612F6901E8
:1051C0007A0191E0C91AD108E108F10883E001C031
:1051D00082E0EFEFCE16D104E104F10409F008F407
:1051E00067C068E478EE81E090E0A50194010E9438
:1051F000612F69017A01F1E0CF1AD108E108F108C5
:105200003320E1F082E038121BC09FEFC916D104B1
:10521000E104F10409F008F4DBC064E274EF80E01B
:1052200090E0A50194010E94612F69017A01E1E0FB
:10523000CE1AD108E108F10885E003C083E001C07F
:1052400084E0FFEFCF16D104E104F10489F180F18D
:1052500062E17AE780E090E0A50194010E94612F6D
:1052600069017A0181E0C81AD108E108F10831101A
:1052700002C084E001C086E09FEFC916D104E104BA
:10528000F104B1F0A8F0C980DA80EB80FC809AE0EC
:10529000F594E794D794C7949A95D1F7E1E0CE1AA4
:1052A000D108E108F108332031F087E00BC081E03C
:1052B000332011F007C085E095B5987F982B95BDF8
:1052C00038C082E09091B100987F982B9093B10004
:1052D00030C060E072E18AE790E0A50194010E948D
:1052E000612F69017A01F1E0CF1AD108E108F108D4
:1052F000C114D10481E0E806F10488F068E478EE96
:1053000081E090E0A50194010E94612F69017A017A
:1053100091E0C91AD108E108F10893E001C091E0D9
:10532000E1E03E1206C080918100887F892B809346
:105330008100411451046104710471F0D801AA0F75
:10534000BB1FA30192010E94862F28EE33E040E0AC
:1053500050E00E943F2F03C02FEF3FEFA901F1E083
:105360003F16A1F082E0381619F1311033C0C7BCE6
:1053700020938B0730938C0740938D0750938E07B3
:1053800080916E00826080936E0024C0D09289006C
:10539000C092880020938407309385074093860746
:1053A0005093870780916F00826080936F0012C0D6
:1053B000C092B30020937D0730937E0740937F0710
:1053C000509380078091700082608093700002C0CB
:1053D00084E078CF0F900F900F900F90DF91CF91D6
:1053E0001F910F91FF90EF90DF90CF90BF90AF9003
:1053F0009F908F907F906F905F904F903F90089517
:10540000813039F018F0823051F0089510926E001A
:10541000089580916F008D7F80936F000895809133
:1054200070008D7F8093700081E08093B000809148
:10543000B100887F84608093B1001092B30008951A
:10544000CF93C82F809129018C1307C0EFE5F1E0BD
:1054500084919FEF9093290101C08FEF0E94002A51
:1054600060E08C2FCF910C949F231F920F920FB668
:105470000F9211242F933F934F935F936F937F93DA
:105480008F939F93AF93BF93EF93FF9380917D078B
:1054900090917E07A0917F07B0918007892B8A2B7E
:1054A0008B2B51F190917A07E0917B07F0917C076B
:1054B00080818927808380917D0790917E07A091CC
:1054C0007F07B0918007181619061A061B06C4F448
:1054D00080917D0790917E07A0917F07B091800712
:1054E0000197A109B10980937D0790937E07A0934E
:1054F0007F07B093800704C0809129010E94202A71
:10550000FF91EF91BF91AF919F918F917F916F919B
:105510005F914F913F912F910F900FBE0F901F9071
:105520001895009729F0BC0180E090E00C94F42FCE
:105530000895CF93DF9300D000D0CDB7DEB79B01A5
:10554000AC01611571058105910569F069833A83A4
:105550004B835C830E94EF2F29813A814B815C81D0
:105560000E94612F03C060E070E0CB010F900F90AC
:105570000F900F90DF91CF910895CF92DF92EF922D
:10558000FF926B017C01621773078407950764F42F
:10559000CA01B9016C197D098E099F090E94992AD7
:1055A0006C0D7D1D8E1D9F1DFF90EF90DF90CF90A5
:1055B00008954F925F926F927F92AF92BF92CF9277
:1055C000DF92EF92FF920F931F93CF93DF93CDB7AC
:1055D000DEB729013A01621B730B840B950B2989F5
:1055E0003A894B895C892A193B094C095D09298B49
:1055F0003A8B4B8B5C8B9B01AC0169897A898B89D7
:105600009C890E940F2FE418F50806091709A801C4
:1056100097010E94612F2A0D3B1D4C1D5D1DCA0183
:10562000B901DF91CF911F910F91FF90EF90DF9023
:10563000CF90BF90AF907F906F905F904F90089504
:10564000CF92DF92EF92FF920F931F93CF93DF934E
:10565000EC010E948E226BA37CA38DA39EA30F8DD1
:1056600018A129A13AA16B017C01C01AD10AE20A52
:10567000F30A0D8D1E8D20E030E00C151D052E0562
:105680003F0534F46F8F78A389A39AA381E001C00A
:1056900080E0DF91CF911F910F91FF90EF90DF900D
:1056A000CF900895CF92DF92FF920F931F93CF93E5
:1056B000DF9300D0CDB7DEB76C01F42E69837A8317
:1056C0000E94B20E69817A81811135C0C6010E94A3
:1056D000060E6AE570E0C6010E944D0E8EE190E074
:1056E000F601968F858F80ED97E09087878300E0A5
:1056F00010E024E832E4018F128F238F348F0AE107
:1057000018EF22EC3DE3058B168B278B308F178E1D
:1057100010A211A212A28DE290E094838383118AD9
:10572000128A138A148A11861286138614861682A8
:10573000158217A2F0A60F900F90DF91CF911F91C5
:105740000F91FF90DF90CF900895CF93DF93EC01FE
:105750000E94B20E882329F0CE01DF91CF910C94E4
:105760000C0EDF91CF910895CF93DF93EC01CB0125
:1057700078876F836D8D7E8D0E942B2F80E090E067
:105780000E946F2D9B01AC01698F7A8F8B8F9C8F4C
:105790006BED7FE089EC90E40E94D62C6D8B7E8BC4
:1057A0008F8B988FDF91CF910895FC0127853089E9
:1057B000620F731F0C944D0ECF92DF92EF92FF9207
:1057C0000F931F93CF93DF9300D000D0CDB7DEB7F8
:1057D0008C010E94202B882309F471C0F80187A155
:1057E00081115DC021853285438554856189728927
:1057F000838994890E946E2C0E94882E9B01AC01A3
:10580000F8016381748180E090E029833A834B83BF
:105810005C830E946F2D29813A814B815C810E94BB
:10582000252E6B017C01F8016581768180E090E096
:105830000E946F2D9B01AC01C701B6010E946E2C26
:105840006B017C0120E030E0A9010E94212E20E0C4
:1058500030E040E05FE387FD05C0C701B6010E946C
:105860006E2C04C0C701B6010E946D2C0E943E2D13
:10587000F8017687658780A5882329F07195619561
:10588000710976876587F80165857685665A7F4F49
:1058900087859089680F791FC8010E944D0EF80115
:1058A000258936894789508D6189728983899489D0
:1058B0000E946E2CF801618B728B838B948B0F90FE
:1058C0000F900F900F90DF91CF911F910F91FF904C
:1058D000EF90DF90CF90089508955058BB27AA27E6
:1058E0000ED075C166D130F06BD120F031F49F3FFE
:1058F00011F41EF45BC10EF4E095E7FB51C1E92FF2
:1059000077D180F3BA17620773078407950718F0F9
:1059100071F49EF58FC10EF4E0950B2EBA2FA02DD9
:105920000B01B90190010C01CA01A0011124FF274C
:10593000591B99F0593F50F4503E68F11A16F04047
:10594000A22F232F342F4427585FF3CF4695379546
:105950002795A795F0405395C9F77EF41F16BA0B0B
:10596000620B730B840BBAF09150A1F0FF0FBB1FB9
:10597000661F771F881FC2F70EC0BA0F621F731F02
:10598000841F48F4879577956795B795F7959E3F5F
:1059900008F0B3CF9395880F08F09927EE0F9795ED
:1059A00087950895D9D008F481E008950CD00FC1EF
:1059B00007D140F0FED030F021F45F3F19F0F0C085
:1059C000511139C1F3C014D198F39923C9F3552368
:1059D000B1F3951B550BBB27AA27621773078407E2
:1059E00038F09F5F5F4F220F331F441FAA1FA9F398
:1059F00033D00E2E3AF0E0E830D091505040E6958A
:105A0000001CCAF729D0FE2F27D0660F771F881FEA
:105A1000BB1F261737074807AB07B0E809F0BB0BD9
:105A2000802DBF01FF2793585F4F2AF09E3F5105FD
:105A300068F0B6C000C15F3FECF3983EDCF386959A
:105A400077956795B795F7959F5FC9F7880F911D73
:105A50009695879597F90895E1E0660F771F881F5F
:105A6000BB1F621773078407BA0720F0621B730B12
:105A7000840BBA0BEE1F88F7E095089504D0689464
:105A8000B111D9C00895BCD088F09F5790F0B92FBC
:105A90009927B751A0F0D1F0660F771F881F991F83
:105AA0001AF0BA95C9F712C0B13081F0C3D0B1E095
:105AB0000895C0C0672F782F8827B85F39F0B93FA5
:105AC000CCF3869577956795B395D9F73EF4909585
:105AD0008095709561957F4F8F4F9F4F0895E89403
